:020000040000FA
:10800000D8DB002091AC0000A1A400005DAC000012
:108010005DAC00005DAC00005DAC00005DAC00003C
:10802000000000000000000000000000A5A5000006
:108030005DAC00000000000031A500005DAC000058
:108040004DA600004DA600004DA600004DA6000064
:108050004DA600004DA600004DA600004DA6000054
:108060004DA600004DA600004DA600004DA6000044
:108070004DA600004DA600004DA600004DA6000034
:108080004DA600004DA600004DA600004DA6000024
:108090004DA600004DA600004DA600004DA6000014
:1080A0004DA600004DA600004DA600004DA6000004
:1080B0004DA600004DA600004DA600004DA60000F4
:1080C0004DA600004DA600004DA600004DA60000E4
:1080D0004DA600004DA600004DA600004DA60000D4
:1080E0004DA600004DA600004DA600004DA60000C4
:1080F0004DA600004DA600004DA600004DA60000B4
:108100004DA600004DA600004DA600004DA60000A3
:108110004DA600004DA600004DA600004DA6000093
:108120004DA600004DA600004DA600004DA6000083
:108130004DA600004DA600004DA600004DA6000073
:108140004DA60000FFFFFFFF81F0004102E000BFED
:1081500083F0004330B54FEA41044FEA430594EA07
:10816000050F08BF90EA020F1FBF54EA000C55EA42
:10817000020C7FEA645C7FEA655C00F0E2804FEA13
:108180005454D4EB5555B8BF6D420CDD2C4480EAF5
:10819000020281EA030382EA000083EA010180EA25
:1081A000020281EA0303362D88BF30BD11F0004F73
:1081B0004FEA01314FF4801C4CEA113102D04042A9
:1081C00061EB410113F0004F4FEA03334CEA1333E4
:1081D00002D0524263EB430394EA050F00F0A780FC
:1081E000A4F10104D5F1200E0DDB02FA0EFC22FAF7
:1081F00005F2801841F1000103FA0EF2801843FAEB
:1082000005F359410EE0A5F120050EF1200E012ADB
:1082100003FA0EFC28BF4CF0020C43FA05F3C01819
:1082200051EBE37101F0004507D54FF0000EDCF192
:10823000000C7EEB00006EEB0101B1F5801F1BD33B
:10824000B1F5001F0CD349085FEA30004FEA3C0C3F
:1082500004F101044FEA445212F5800F80F09A8035
:10826000BCF1004F08BF5FEA500C50F1000041EB39
:10827000045141EA050130BD5FEA4C0C404141EB3D
:108280000101013C28BFB1F5801FE9D291F0000F38
:1082900004BF01460020B1FA81F308BF2033A3F1E7
:1082A0000B03B3F120020CDA0C3208DD02F1140CDE
:1082B000C2F10C0201FA0CF021FA02F10CE002F119
:1082C0001402D8BFC2F1200C01FA02F120FA0CFC12
:1082D000DCBF41EA0C019040E41AA2BF01EB04515B
:1082E000294330BD6FEA04041F3C1CDA0C340EDC59
:1082F00004F11404C4F1200220FA04F001FA02F39C
:1083000040EA030021FA04F345EA030130BDC4F159
:108310000C04C4F1200220FA02F001FA04F340EA4E
:108320000300294630BD21FA04F0294630BD94F0FF
:10833000000F83F4801306BF81F480110134013DE6
:108340004EE77FEA645C18BF7FEA655C29D094EA57
:10835000050F08BF90EA020F05D054EA000C04BFD5
:108360001946104630BD91EA030F1EBF00210020C0
:1083700030BD5FEA545C05D14000494128BF41F05F
:10838000004130BD14F580043CBF01F5801130BDC3
:1083900001F0004545F0FE4141F470014FF000004E
:1083A00030BD7FEA645C1ABF194610467FEA655CFF
:1083B0001CBF0B46024650EA013406BF52EA0335A1
:1083C00091EA030F41F4002130BD00BF90F0000F8F
:1083D00004BF0021704730B54FF4806404F13204CB
:1083E0004FF000054FF0000150E700BF90F0000F84
:1083F00004BF0021704730B54FF4806404F13204AB
:1084000010F0004548BF40424FF000013EE700BF7A
:1084100042004FEAE2014FEA31014FEA02701FBF0A
:1084200012F07F4393F07F4F81F06051704732F03C
:108430007F4208BF704793F07F4F04BF41F4002193
:10844000704730B54FF4607401F0004521F00041F1
:108450001CE700BF50EA010208BF704730B54FF07B
:1084600000050AE050EA010208BF704730B511F07C
:10847000004502D5404261EB41014FF4806404F1B4
:1084800032045FEA915C3FF4D8AE4FF003025FEA3A
:10849000DC0C18BF03325FEADC0C18BF033202EBBE
:1084A000DC02C2F1200300FA03FC20FA02F001FA18
:1084B00003FE40EA0E0021FA02F11444BDE600BFBB
:1084C00070B54FF0FF0C4CF4E06C1CEA11541DBF6A
:1084D0001CEA135594EA0C0F95EA0C0F00F0DEF835
:1084E0002C4481EA030621EA4C5123EA4C5350EA1A
:1084F000013518BF52EA033541F4801143F480136B
:1085000038D0A0FB02CE4FF00005E1FB02E506F0FB
:108510000042E0FB03E54FF00006E1FB03569CF050
:10852000000F18BF4EF0010EA4F1FF04B6F5007F56
:1085300064F5407404D25FEA4E0E6D4146EB0606C8
:1085400042EAC62141EA55514FEAC52040EA5E5051
:108550004FEACE2EB4F1FD0C88BFBCF5E06F1ED8FB
:10856000BEF1004F08BF5FEA500E50F1000041EB32
:10857000045170BD06F0004646EA010140EA0200DF
:1085800081EA0301B4EB5C04C2BFD4EB0C0541EA01
:10859000045170BD41F480114FF0000E013C00F316
:1085A000AB8014F1360FDEBF002001F0004170BD3A
:1085B000C4F10004203C35DA0C341BDC04F1140453
:1085C000C4F1200500FA05F320FA04F001FA05F2DF
:1085D00040EA020001F0004221F0004110EBD370AC
:1085E00021FA04F642EB06015EEA430E08BF20EAD8
:1085F000D37070BDC4F10C04C4F1200500FA04F37B
:1086000020FA05F001FA04F240EA020001F000410C
:1086100010EBD37041F100015EEA430E08BF20EA7F
:10862000D37070BDC4F1200500FA05F24EEA020EC7
:1086300020FA04F301FA05F243EA020321FA04F0F6
:1086400001F0004121FA04F220EA020000EBD370AD
:108650005EEA430E08BF20EAD37070BD94F0000FAD
:108660000FD101F00046400041EB010111F4801FE1
:1086700008BF013CF7D041EA060195F0000F18BF92
:10868000704703F00046520043EB030313F4801FCE
:1086900008BF013DF7D043EA0603704794EA0C0F88
:1086A0000CEA135518BF95EA0C0F0CD050EA41069E
:1086B00018BF52EA4306D1D181EA030101F000411B
:1086C0004FF0000070BD50EA410606BF1046194643
:1086D00052EA430619D094EA0C0F02D150EA01364F
:1086E00013D195EA0C0F05D152EA03361CBF104690
:1086F00019460AD181EA030101F0004141F0FE412F
:1087000041F470014FF0000070BD41F0FE4141F4B2
:10871000780170BD70B54FF0FF0C4CF4E06C1CEAB2
:1087200011541DBF1CEA135594EA0C0F95EA0C0F67
:1087300000F0A7F8A4EB050481EA030E52EA033522
:108740004FEA013100F088804FEA03334FF0805543
:1087500045EA131343EA12634FEA022245EA111570
:1087600045EA10654FEA00260EF000419D4208BF21
:10877000964244F1FD0404F5407402D25B084FEACE
:108780003202B61A65EB03055B084FEA32024FF47A
:1087900080104FF4002CB6EB020E75EB030E22BFD7
:1087A000B61A754640EA0C005B084FEA3202B6EB97
:1087B000020E75EB030E22BFB61A754640EA5C0046
:1087C0005B084FEA3202B6EB020E75EB030E22BFD6
:1087D000B61A754640EA9C005B084FEA3202B6EBD7
:1087E000020E75EB030E22BFB61A754640EADC0096
:1087F00055EA060E18D04FEA051545EA16754FEAF8
:1088000006164FEAC30343EA52734FEAC2025FEA15
:108810001C1CC0D111F4801F0BD141EA00014FF0A4
:1088200000004FF0004CB6E711F4801F04BF014375
:108830000020B4F1FD0C88BFBCF5E06F3FF6AFAE91
:10884000B5EB030C04BFB6EB020C5FEA500C50F121
:10885000000041EB045170BD0EF0004E4EEA1131A4
:1088600014EB5C04C2BFD4EB0C0541EA045170BDAB
:1088700041F480114FF0000E013C90E645EA060EEF
:108880008DE60CEA135594EA0C0F08BF95EA0C0F1D
:108890003FF43BAF94EA0C0F0AD150EA01347FF465
:1088A00034AF95EA0C0F7FF425AF104619462CE73C
:1088B00095EA0C0F06D152EA03353FF4FDAE10469F
:1088C000194622E750EA410618BF52EA43067FF4F0
:1088D000C5AE50EA41047FF40DAF52EA43057FF480
:1088E000EBAE12E74FEA4102B2F1E04324BFB3F529
:1088F000001CDCF1FE5C0DD901F0004C4FEAC00217
:108900004CEA5070B2F1004F40EB830008BF20F0FA
:108910000100704711F0804F21D113F13872BCBFB4
:1089200001F00040704741F480114FEA5252C2F109
:108930001802C2F1200C10FA0CF320FA02F018BF52
:1089400040F001004FEAC1234FEAD32303FA0CFCA5
:1089500040EA0C0023FA02F34FEA4303CCE77FEA34
:10896000625307D150EA01331EBF4FF0FE4040F47E
:108970004000704701F0004040F0FE4040F400002D
:10898000704700BF53B94AB9002908BF00281CBF6F
:108990004FF0FF314FF0FF3000F00CB8ADF1080C94
:1089A0006DE904CE00F008F8DDF804E0DDE902230B
:1089B00004B07047704700BF2DE9F04786468C46EB
:1089C0000846089E154674461946002B40F0C180A3
:1089D0008542B2FA82F245D94AB1C2F1200300FAC7
:1089E00002FC954094402EFA03F343EA0C0C4FEA44
:1089F000154EA8B2230CBCFBFEF80EFB18CC08FBEE
:108A000000F943EA0C43994528D9EB1808F1FF37E0
:108A100004D2994502D9A8F102072B44A3EB09031C
:108A2000A4B2B3FBFEFC0EFB1C330CFB00F044EACB
:108A30000344A04214D92C190CF1FF3304D2A042F4
:108A400002D9ACF102032C44241A43EA07401EB1B8
:108A5000D440002334607360BDE8F0874746DDE70B
:108A60006346F1E792BB431B01214FEA154EAFB2BB
:108A7000200CB3FBFEFC0EFB1C330CFB07F840EA9A
:108A80000343984561D9EB180CF1FF3004D29845A7
:108A900002D9ACF102002B44A3EB0803A4B2B3FB50
:108AA000FEFC0EFB1C330CFB07F744EA0344A74211
:108AB0004DD92C190CF1FF3304D2A74202D9ACF1E5
:108AC00002032C44E41B43EA0040C0E7C2F1200348
:108AD0009540944020FA03F12EFA03F34FEA154E25
:108AE0009040AFB20343B1FBFEFC0EFB1C10190C0F
:108AF0000CFB07F841EA0041884522D969180CF1BE
:108B0000FF3004D2884502D9ACF102002944A1EB20
:108B100008019BB2B1FBFEFC0EFB1C110CFB07F71E
:108B200043EA01439F420ED9EB180CF1FF3104D206
:108B30009F4202D9ACF102012B44DB1B41EA004108
:108B400093E76046E3E76146F7E76046A4E76346DC
:108B5000B8E7834206D916B9002108467CE7C6E982
:108B600000E0F9E7B3FA83F78FB9834201D3724586
:108B700008D8BEEB020460EB030301209C461EB93B
:108B8000002169E73846FAE7C6E9004CF8E7C7F183
:108B9000200CBB400EFA07F522FA0CF42EFA0CF169
:108BA000BA401C4320FA0CF3B8404FEA1449014381
:108BB0001FFA84FEB3FBF9F809FB18300B0C08FB15
:108BC0000EFA43EA00439A4540D9E31808F1FF3012
:108BD00004D29A4502D9A8F102002344A3EB0A0368
:108BE00089B2B3FBF9F809FB183308FB0EFE41EA22
:108BF00003418E452CD9611808F1FF3304D28E450C
:108C000002D9A8F10203214443EA0040A1EB0E017E
:108C1000A0FB02984145CE46434602D306D14D45BE
:108C200004D20138B9EB020E68EB0403002EA7D082
:108C3000B5EB0E0261EB030101FA0CFC22FA07F31B
:108C4000F9404CEA0303C6E9003199E74046C5E71D
:108C50004346D9E7034613F8012B002AFBD1181A23
:108C600001387047000000002DE9F04F384C394EB4
:108C7000394D87B009E00021204600F081FB024613
:108C8000A0B14921284601F049FB204600F086FBAF
:108C90000028F0D002464921304601F03FFB002178
:108CA000204600F06DFB02460028EAD1284800F07B
:108CB0006DF900283ED122A7D7E900670FF2880995
:108CC000D9E900894FF07C54214D1FE02046FFF781
:108CD0009FFB32463B46FFF7F3FBFFF703FE0446DC
:108CE00000214FF4A47008F0B5FB2046FFF790FB7D
:108CF00082468B46194A0A21CDE900AB03A809F048
:108D000041F94921164803AA01F008FB284600F062
:108D10003BFA0028DAD12046FFF77AFB32463B4681
:108D2000FFF7CEFB42464B46FFF714FAFFF7DAFD9A
:108D30000446D5E7024649210A4801F0EFFABAE7AE
:108D4000AE47E17A14AEEF3F7B14AE47E17A843F41
:108D50000C3E0100F04701001C480100584801008A
:108D60005C48010040480100704700BF2DE9F04118
:108D700012F0FC6F0569D0E901766AD1134602F062
:108D80003002302A56D0494A494C1A40A24242D0B9
:108D900003F00602042A32D013F4402207D09C03C9
:108DA00075D5B2F5402F1BD0424A9A4315D04FF0EB
:108DB000010C3C680CFA01FC1CEA040F23F480123D
:108DC00056D02C68DB074CBF4CEA040424EA0C04A0
:108DD0002C603368BDE8F041184783F44023E6E790
:108DE00035494FF47673354A354801F073FA354802
:108DF00001F070FA4FF47671304801F063FA3249AD
:108E00002F4840F2D1332D4A01F064FA40F2D131BB
:108E10002A4801F057FA2D4940F2CE33274A284814
:108E200001F058FA2A4801F055FA40F2CE312348B1
:108E300001F048FA274940F2CA33204A204801F09D
:108E400049FA254801F046FA40F2CA311B4801F0C0
:108E500039FA224940F2C733184A194801F03AFA60
:108E60001F4801F037FA40F2C731144801F02AFADE
:108E70001C494FF47973114A114801F02BFA1A4832
:108E800001F028FA4FF479710C4801F01BFA1749E8
:108E90004FF47573094A0A4801F01CFA144801F0AE
:108EA00019FA4FF47571054801F00CFA020003003D
:108EB0000200010001001000DC4501003843010000
:108EC000CC43010020460100244501008C440100F0
:108ED000D4440100104401004C4401006C430100E3
:108EE000EC4301004C4601008C460100584501004E
:108EF000A045010070B580B3066976B3446864B3D9
:108F0000606806F08BFA58B3E06806F087FA78B329
:108F100062896068217A42F48032FFF727FF0546B4
:108F200068B9628AE068217C42F48032FFF71EFF54
:108F3000054658B9102370603360284670BD45213E
:108F4000227A0E4801F0EAF9284670BD4521227CBC
:108F50000B4801F0E3F9284670BD6FF01505ECE70A
:108F60004521227A074801F0D9F96FF01205E4E7AC
:108F70004521227C044801F0D1F9F6E7F4460100CE
:108F800024470100A0460100C84601002DE9F8432E
:108F9000002800F0DA800369002B00F0D6804468D6
:108FA000D3F800804FF02003EFF3118983F3128888
:108FB000BFF36F8F62896068217A42F40032FFF755
:108FC000D5FE0546002840F08580628AE068217C55
:108FD00042F40032FFF7CAFE054600286ED1012197
:108FE0006068257A4268A94012680369114200F05E
:108FF000AF801B68194283680CBF1B69DB68984708
:109000000121E068257C4268A94012680369114289
:1090100000F09E801B681942836814BFDB681B69DF
:109020009847012006F0D2F9182701260AE0002D02
:1090300040D08368DB6898476020013F06F0C6F99E
:109040007B1C53D06068217A436806FA01F11A68E4
:1090500006FA07F51142036905EA080578D01B688E
:109060001942836814BFDB681B699847012006F02A
:10907000ADF96068217A436806FA01F11A6803695C
:10908000114265D01B681942836814BF1B69DB68F5
:109090009847012006F09AF96068217A436806FA39
:1090A00001F11B680269194252D013681942BED0FF
:1090B000002DBED083681B699847BDE789F31188EE
:1090C000BFF36F8F4521227C294801F027F92846FC
:1090D000BDE8F88389F31188BFF36F8F4521227AA9
:1090E000244801F01BF92846BDE8F8830121E06817
:1090F000227C0369914042681268114228D01B68A3
:109100001942836814BFDB681B6998474FF44370AA
:1091100006F05CF962896068217A42F48032FFF7D8
:1091200025FE05460028D5D1628AE068217C42F4FC
:109130008032FFF71BFE05460028BFD189F3118856
:10914000BFF36F8F2846BDE8F8836FF01505BEE7C3
:10915000094940F24F63094A094801F0BBF8094840
:1091600001F0B8F840F24F61044801F0ABF800BFDD
:1091700024470100F44601004C4601003843010039
:10918000CC4301008C4601002DE9F04F85B000284A
:1091900000F0BE80D0F810A0BAF1000F00F0B88047
:1091A000DAF80030446800934FF02003EFF3118B9E
:1091B00083F31288BFF36F8F628AE068217C42F4E8
:1091C000C022FFF7D3FD0546002840F0948001211E
:1091D000E06843681A68237C99401142036900F0F3
:1091E000A9801B68194283680CBFDB681B6998471C
:1091F0004FF0000827260127C146A82006F0E6F810
:10920000CDF804A0628AE068217C42F4C022FFF716
:10921000ADFD00286ED1E068217C436807FA01F1BA
:109220001A680369114200F085801B68194283683F
:1092300014BF1B69DB689847628AE068217C42F4AE
:109240008032FFF793FD002854D1032006F0BEF8CA
:10925000E068237C426807FA03FA12681AEA020FF0
:1092600059D00569826803A95268904738B92968BE
:10927000039A4A4012EA0A0F14BF01200020182E58
:1092800031DCB040013E731C48EA0008BAD1628A62
:10929000DDF804A0E068217C42F4C022FFF766FDFF
:1092A000054640BB40F2DC5006F090F8628AE06868
:1092B000217C42F48032FFF759FD0546D8B98BF383
:1092C0001188BFF36F8F009C4921234642462448F2
:1092D00001F024F84921234801F020F8A04538D1B5
:1092E000CAE9008910E0A6F11903984049EA00098B
:1092F000013E87E705468BF31188BFF36F8F452149
:10930000227C194801F00AF8284605B0BDE8F08F24
:109310006FF01505F8E7154940F2F653144A154861
:1093200000F0D8FF144800F0D5FF40F2F651104885
:1093300000F0C8FF0D4940F24F630D4A0D4800F0A0
:10934000C9FF0D4800F0C6FF40F24F61084800F029
:10935000B9FF4521094800F0E1FF6FF00405D3E7AC
:109360005847010070470100244701004C460100A6
:1093700038430100CC4301008C46010078470100CE
:1093800048B102693AB11368002023F4C07343EA7C
:10939000C111116070476FF015007047002844D06C
:1093A0000269002A41D0136823F0FF7343F4781355
:1093B00013600269002A36D0136823F4F03343F4B3
:1093C000404313600369002B2DD01A6822F4C05269
:1093D0001A6003693BB31A6822F4C0621A6002691A
:1093E0000AB3136823F4C07343F4807313600269F3
:1093F000CAB1136823F0600343F0200313600369CC
:109400008BB11A6822F004021A6003695BB11A6812
:1094100042F001021A6002692AB1136823F01A03AC
:1094200043F010031360002070476FF01500704781
:1094300000207047014B1B68184700BF50C6002032
:10944000014B1860704700BF50C6002000B586462B
:1094500000234FF0020C0A46074985B00191684687
:109460007146009302938DF802C0039308F0C0FE8A
:1094700005B05DF804FB00BF3594000080B50546DB
:109480000E4614461F4608F019F803460AF05CFC25
:10949000214604463A46034F30463B51A847E0591F
:1094A00001F05AFC0800000010B4836800EBC10C06
:1094B000B3F5004F0CD3DCF80C3099421ED0DCF829
:1094C0000810043200EBC10440F82230E3600BE0E6
:1094D000BCF80630994211D0BCF80410043200EBFD
:1094E000C10440F82230E380826800EBC300B2F58B
:1094F000004F2CBF8160818010BC70470121002487
:10950000C36802F1040C01FA02F223EA0203C36009
:1095100040F82C4010BC704770B48668541AB6F5F9
:10952000004F00EBC1034FEA4405A1EB02011FD33A
:109530005E685D6001EB560186684D00B6F5004F30
:1095400000EBC2032CBF5D605D808568B5F5004F00
:109550002CBF40F8324020F832408468B4F5004F08
:109560000CD370BC5B6802EB530340F833107047B8
:10957000B3F802C05D8001EB5C01DDE75B8870BC85
:1095800002EB530220F83210704700BF836810B519
:10959000B3F5004F00EBC10100EBC20C19D3DCF8AE
:1095A00004304C685B0803EB54035C004C6081683A
:1095B000B1F5004F06D3DCF8041002EB510240F87D
:1095C000323010BDBCF8021002EB510220F83230EC
:1095D00010BD4B88BCF802E05B0803EB5E034FEA6A
:1095E000430EA1F802E0E2E7836800EBC102B3F5A5
:1095F000004F0AD201235288DA400132D21AB2FA5D
:1096000082F2C2F11F02FFF74FBF52685208012ACF
:1096100001D00223F1E7704730B4846800EBC10247
:10962000B4F5004F22D2012553885B0801335B1B40
:10963000B3FA83F3C3F11F0300EB830CDCF8105083
:10964000D5B901259D40C368B4F5004F43EA050331
:10965000C360CCF810102CBF916091808368B3F583
:10966000004F2CBFD160D18030BC704753685B087D
:10967000012BF9D00225D9E7B4F5004F00EBC50C5A
:109680002BBFDCF80830BCF804309360938084680A
:1096900000EBC303B4F5004F2CBFD560D5808268C2
:1096A000B2F5004F2CBFD960D9808368B3F5004F65
:1096B0002CBFCCF80810ACF8041030BC704700BFC9
:1096C000F8B583680446B3F5004F0D464FEAC1066E
:1096D00000EBC10714D3796805EB510100EBC1031E
:1096E0005B68D80736D5A159691A04EBC1035B68DA
:1096F000DB0714D529462046BDE8F840FFF78CBFAC
:10970000798805EB510100EBC1035B88DA0721D5AD
:10971000A15B691A04EBC1035B88DB07EAD420462E
:10972000FFF762FFA3682046B3F5004F2CBFA15995
:10973000A15B2A46691AFFF729FFA3682046B3F503
:10974000004F2CBFA359A35BED1A2946BDE8F84092
:10975000FFF762BF2046FFF747FFA3682946B3F52E
:10976000004F2CBF7A687A88204605EB5202FFF73B
:109770000DFFA368B3F5004FB5D2A15B691A04EBE6
:10978000C1035B88C9E700BF2DE9F0418668B6F5E3
:10979000004F34BF0B4601F1FF33B3FA83F3C3F13B
:1097A0001F0200EB82073D69A5B12C464FF0030C68
:1097B000B6F5004F00EBC40E17D3DEF80480B1EB12
:1097C000580F21D9DEF80C40BCF1010C3C6101D0EE
:1097D000A542EDD14FF0FF34C268C3F120039C4095
:1097E00014400AD12046BDE8F081BEF80280B1EBFA
:1097F000580F09D9BEF80640E6E794FAA4F2B2FA87
:1098000082F2131D50F823402146FFF74DFE2046FB
:10981000BDE8F081C1B310B500680C468368B3F5AC
:10982000004F18D20439091A21F007020244538864
:10983000C90813F0010F36D001EB530C30F83CE0AF
:10984000ACEB0E0C8C4520D123F001035380BDE816
:109850001040FFF735BF0839091A21F0070202440A
:109860005368C90813F0010F1DD001EB530C50F8D9
:109870003CE0ACEB0E0C614507D123F001035360D3
:10988000BDE81040FFF71CBF7047B7230D4A0E48D4
:109890000E4900F01FFD21460D4800F01BFDB721C9
:1098A000084800F00FFDAF23064A0748094900F0B9
:1098B00011FD2146084800F00DFDAF21014800F0E0
:1098C00001FD00BF8C480100CC430100FC480100B1
:1098D00024490100B0480100C4480100F8B50568FA
:1098E00079B3AB68B3EBD10F2BD9B3F5004F34BFCD
:1098F00004230823CC1D1C44E40828462146FFF716
:1099000043FFF0B1AB68C600B3F5004F05EBC007ED
:109910000FD37B68B4EB530F15D343F001037B6087
:10992000AB68B3F5004F34BF042308231E44A819C5
:10993000F8BD7B88B4EB530F05D343F001037B8064
:10994000EEE70020F8BD0444014622462846FFF712
:10995000E3FD2146FFF760FEAB68B3F5004F01D28F
:109960007B88EAE77B68D8E72DE9F84307684E1E55
:10997000BB681446B3F5004F34BF042208220E40E2
:1099800058D0C1F1000909EA01094A4506F1FF3141
:1099900028BF4A46314240F08A80002C50D0B3EBB9
:1099A000D40F4DD9B3F5004F34BF04230823E11D74
:1099B0003144891A19443846C908FFF7E5FE804644
:1099C00000283DD0BB6809EBC005B3F5004F34BF9C
:1099D0000422082215443D4406F1FF321544B5FB2C
:1099E000F6F534BF6FF003016FF0070106FB05F5D4
:1099F000A5EB09052C4407342944C91B24F00704AE
:109A0000E41BB0EBD10F4FEAE4044FEAD10628D3B0
:109A1000B3F5004F07EBC60816D3D8F8043006EBB1
:109A20005302944231D343F00103C8F8043028466E
:109A3000BDE8F883914223D9B1460E46002CAED141
:109A400000252846BDE8F883B8F8023006EB53023B
:109A500094421AD343F00103A8F802302846BDE827
:109A6000F883414632463846FFF756FD4146FFF738
:109A7000D3FDBB6807EBC608B3F5004FE4D3CCE7D2
:109A80002146BDE8F843FFF729BF31462246384654
:109A9000FFF742FD2146FFF7BFFDBB68B3F5004F5E
:109AA00002D2B8F80230D5E7D8F80430BBE707494E
:109AB0004FF4A273064A074800F00CFC064800F079
:109AC00009FC4FF4A271024800F0FCFB6049010060
:109AD0008C480100CC4301007C490100B2F5802F85
:109AE000F8B569D2042A88BF042340F29480D21AC0
:109AF000CC1D8D1824F0070425F007052D1B172D0C
:109B00004FEAD50778D9B5F5802F38BF3A464FF0E0
:109B1000000328BF07F1FF32B2FA82F20460C4E901
:109B200002732CBF02230123C2F12406B6000736BC
:109B300003EBD603BB42C2F120024FEAD6064CD853
:109B40000021920004F110000AF0EEF87300BA1B35
:109B5000B5F5802F04EBC6014FEA420043F0010344
:109B60002CD26380002323804880A368B3F5004F84
:109B70002CBF44F8366024F83660A1686319B1F54B
:109B8000004F4FF000012CBF59605980A368B3F516
:109B9000004F2CBF62516253A26804EBC703B2F5B9
:109BA000004F10D35A68314642F001025A602046F5
:109BB000BDE8F840FFF730BD082398E76360002355
:109BC00023604860D1E75A88314642F001025A804A
:109BD0002046BDE8F840FFF71FBD16494FF4037358
:109BE000154A164800F076FB154800F073FB4FF459
:109BF0000371114800F066FB124940F2FB130E4A54
:109C00000E4800F067FB0E4800F064FB40F2FB11C9
:109C1000094800F057FB0C494FF4F973064A07480E
:109C200000F058FB064800F055FB4FF4F97102486C
:109C300000F048FB084A01008C480100CC430100B9
:109C4000C0490100DC4901009C4901002DE9F04FA9
:109C50001446828B834612F0080C83B040F04F818B
:109C600002F0070002290746CDF804C080B255D0A3
:109C7000DBF81860002EC0F2E180411F012940F29C
:109C80000681042840F0898122F00702DBF80050A9
:109C900092B2ABF81C20002D00F0398142F0200276
:109CA000ABF81C2067B34FF00008DBF8087045469E
:109CB000C246002F51D1002D50D1BAF1000F1FD054
:109CC0002F464BE0BAF1000F02D05846B949D047B1
:109CD0004FF02002EFF3118482F31288BFF36F8FED
:109CE000484605F08BFF002800F01781484605F034
:109CF000A3FFBBF81C2022F0080292B2ABF81C2094
:109D0000D1064DD5012122F0100292B202F00700D7
:109D100002290746ABF81C2080B2A9D100285ED1E9
:109D2000DBF8001000297AD0002F40F01281DBF818
:109D30001010D1F800A0BAF1000F00F022813D46CA
:109D40004FF006083E4622F0070242F00602ABF84A
:109D50001C20DBF80870002FADD0012742F008026C
:109D60000BF114094846ABF81C2005F055FF0028FC
:109D700000F0E18084F31188BFF36F8FBFB9002D2D
:109D8000A0D02846314650F8047B00F079FA04460A
:109D900018B32946334642465846A0473D46EEE7AB
:109DA00093063CD522F02002022192B2AEE7DBF806
:109DB00008100029E3D00C683346424658464F68E5
:109DC000B847002CDBD0214624683346424658462B
:109DD0004F68B847002CF6D1D1E73D46CFE70228BF
:109DE0001AD001281BD1DBF80010C1B1012F40F0BF
:109DF000BC80DBF81010D1F808A0BAF1000F00F019
:109E00000581002522F0070242F005024FF0050807
:109E10002E46ABF81C209CE7BBF81E5015B30BF187
:109E20001405284605F0F8FE002800F0E78084F3CA
:109E30001188BFF36F8F03B0BDE8F08F4FF00108BA
:109E4000019B22F0070242F00102DBF80050CBF840
:109E50000430ABF81C20CBF80030474529D04FF038
:109E6000000A76E7022F40F0BD80DBF81010D1F831
:109E700004A0BAF1000F00F0D58022F0070242F0F2
:109E800004024FF004082E46ABF81C2061E7019B4A
:109E90000628DBF80050CBF80430CBF800300FD0A8
:109EA0004FF0000822F0070292B24745ABF81C20A1
:109EB000D5D1002D3FF424AF4FF0000A57464DE7AF
:109EC0004DB12846BBF81E10013189B2ABF81E1007
:109ED00000680028F8D122F00701BBF81E0041F00D
:109EE0000202ABF81C2089B210B14FF00208B4E7AF
:109EF00041F022024FF00208ABF81C20ADE7012927
:109F00000CBF42F0100242F02002828387E7002F4C
:109F10003FF4F6AEA846AA461BE77223264A274816
:109F2000274900F0D7F94946264800F0D3F97221B5
:109F3000214800F0C7F92449F0231F4A1F4800F0C8
:109F4000C9F94946214800F0C5F9F0211A4800F046
:109F5000B9F91F4919484FF4AB731E4A00F0BAF91A
:109F60004FF4AB711B4800F0ADF91B4913484FF497
:109F7000B273184A00F0AEF94FF4B271154800F010
:109F8000A1F916490D484FF4AD73124A00F0A2F939
:109F90004FF4AD710F4800F095F91149074840F2B0
:109FA0001B130C4A00F096F940F21B11094800F00F
:109FB00089F900BF55A00000AC4A0100CC43010064
:109FC0000C4B0100244B0100DC4A0100F44A010063
:109FD000584A0100344A0100944A0100644A0100D1
:109FE0009C4501001549164840F25D13154A00F0E2
:109FF00071F940F25D11134800F064F91249F02341
:10A00000124A0F4800F066F929469BE710490C48B0
:10A010004FF4B4730B4A00F05DF94FF4B471094882
:10A0200000F050F90A49064840F26113054A00F071
:10A0300051F940F26111034800F044F97C4A0100F3
:10A04000CC430100344A0100DC4A0100AC4A010063
:10A05000644A0100F8B504460D4600F114064FF0BD
:10A060002003EFF3118783F31288BFF36F8F30461D
:10A0700005F0C4FD50B1304605F0DEFDA5613A465D
:10A080002046BDE8F8400121FFF7E0BD7223064AF3
:10A090000648074900F01EF93146064800F01AF953
:10A0A0007221014800F00EF9AC4A0100CC430100D6
:10A0B0000C4B0100244B010088B138B50C4659B156
:10A0C0000B684BB14B683BB105462022002109F0DB
:10A0D0002BFE2C61002038BD6FF0150038BD6FF0ED
:10A0E000150070472DE9F84F002800F082800D46DA
:10A0F00000297ED001F1040A0446504600F0ACF875
:10A10000061E27D1AB68032B73D804F114094FF056
:10A110002003EFF3118B83F31288BFF36F8F484650
:10A1200005F06CFD804600286AD0484605F084FDA5
:10A130004FF6FF72E38BA78B934207F007073FD0E0
:10A14000022F39D0062F48D8DFE807F008424747EA
:10A1500008190800D9DA3046BDE8F88F00232B60D3
:10A16000636893B31D606560002F45D13E4620466D
:10A170005A460221FFF76AFD3046BDE8F88F6FF0BE
:10A1800085064FF00008484605F046FD002845D0FA
:10A190008BF31188BFF36F8FB8F1000FDBD05046FF
:10A1A000002100F06DF880460028D4D03A462946B8
:10A1B00020460023C047CEE701333E46E383E2E773
:10A1C0006FF00A064FF00008DDE725606560CBE719
:10A1D0006FF004064FF00008D5E7174917484FF411
:10A1E000E473174A00F076F84FF4E471144800F075
:10A1F00069F86FF01506AEE73E464FF00008C2E77B
:10A200007223104A0D48104900F064F849460F487F
:10A2100000F060F872210B4800F054F8F023094A6E
:10A2200006480B4900F056F849460A4800F052F833
:10A23000F021044800F046F8944A0100CC430100A4
:10A24000344A0100AC4A01000C4B0100244B0100D0
:10A25000DC4A0100F44A0100034630B1426802F0D2
:10A260000302012A07D0032A02D06FF015007047BD
:10A270000268002AF9D0002210469A60704700BF99
:10A2800008B54268034602F00302032A816003D145
:10A29000006800225A6008BD4AB9074907484523AB
:10A2A000074A00F017F84521054800F00BF8002098
:10A2B00000225A6008BD00BF9C450100CC4301004C
:10A2C0003C4B0100404080F311884FF0040002DF56
:10A2D000704700BF0FB400B583B004A951F8040B58
:10A2E0000191FFF7B3F803B05DF804EB04B07047D9
:10A2F000704700BF0122024B0020C3F84025704781
:10A300000090034020B1034B800143F00103184744
:10A31000704700BFA040010003F08EBA0FB400B533
:10A3200083B004A951F8040B0191FFF78FF803B033
:10A330005DF804EB04B07047014910220A607047D1
:10A3400010ED00E072B6404080F31188BFF36F8FCC
:10A35000BFF34F8F30BF62B6BFF36F8F704700BF40
:10A3600072B6494081F31188BFF34F8F20BF80F34D
:10A37000118862B6704700BF10B5044682B0D4E9B8
:10A3800001320092226845210B48FFF7C7FFD4E94C
:10A3900003236069452100900848FFF7BFFFE26989
:10A3A00045210748FFF7BAFF4521A269054802B0D9
:10A3B000BDE81040FFF7B2BF644B0100984B0100AD
:10A3C000CC4B0100E04B010038B505460C4611B1FD
:10A3D0000846FFF7D1FF21462846BDE8384005F082
:10A3E0003FB800BF38B504460568FFF7C5FF2146F2
:10A3F0002846BDE8384005F033B800BF40B2002819
:10A4000007DB012300F01F01024A40098B4042F89C
:10A410002030704700E100E00123054A410952F86D
:10A42000212000F01F0003FA00F01040704700BF29
:10A4300000E100E038B54B1C072B044611D840B2B0
:10A440005B010028DBB206DB00F1604000F56140F3
:10A4500080F8003338BD0B4A00F00F000244137639
:10A4600038BD0D465C23084A08490948FFF732FF0A
:10A470002946084807232246FFF72CFF5C210248A3
:10A48000FFF720FFFCEC00E0144C01004C4C0100F5
:10A49000CC430100684C010000210120FFF794BF6C
:10A4A00008B500F005F8BDE8084000F015B900BF98
:10A4B00030BFFFF7FDBF00BF0B4A08B50B4B22F0C2
:10A4C0007F029A60BFF34F8FBFF36F8FD3F888205E
:10A4D00022F47002C3F8882005F09AF807F018F902
:10A4E00000F0CAFB05F0E2F80080000000ED00E09B
:10A4F00010B40C4A0C4993680C680C49C3F8984096
:10A50000C3F894004B684FF0000C43F080534B604D
:10A510008CF31188BFF36F8F936810BCD3F8980049
:10A52000704700BF38CE0020245F010000ED00E03E
:10A5300019498A6882F89DE04FF030001044EFF32B
:10A54000098C80E8F01F202080F31288BFF36F8F02
:10A55000124F4FF000664A698A603E604FF09004E7
:10A56000141920680E4C206092F99DE0D2F89400F6
:10A570000023C2F8943080F3118802F1300090E893
:10A58000F01F8CF3098802F1000004B500F03CF8DC
:10A59000BDE804407047000038CE002004ED00E024
:10A5A000E0C800201EF0040F0CBFEFF30880EFF3AB
:10A5B0000980816911F8021C0229FFD001B5FFF75B
:10A5C00011FF01BD70B44FF0807600254FF43C447C
:10A5D00042F8203C039B0B4942F81C3C049B21F0B1
:10A5E000010142F8183C059B42F8081C42F8143C53
:10A5F00042F8046C203AC0F89450C0F89C400265C0
:10A6000070BC70477D940000D0F8803083F30B88D5
:10A61000704700BF0B4B0C4CD0F8905098602560F1
:10A62000D0F8803083F30B88104681F3098800212D
:10A6300063B681F31188BFF36F8F00220023FEF70A
:10A640001DFF00BF38CE0020E0C8002001B5EFF3A9
:10A650000580A0F110004FEAC0000449014409C977
:10A660009847BDE80140024908470000203E01002C
:10A67000D9A60000DFF84CC0134A2DE9F04102EBE7
:10A680000C05013D114BB5FBFCF5114F0E46FC18B6
:10A69000013CB4FBF3F480460CFB05F503FB0454CA
:10A6A000361B30460B4909F032FB70193A4600213F
:10A6B000083E09F039FBC8F8906004F10800BDE8D5
:10A6C000F08100BF01000000000000000400000055
:10A6D0000800000090400100044B996858698842C6
:10A6E00003D003494FF080520A60704738CE0020F3
:10A6F00004ED00E008B532484521FFF70FFE314B6D
:10A700009B6A980120D42F4B1D209B6AD90124D429
:10A710002C4B9B6ADA0229D42A4B9B6A1B032ED44A
:10A72000284B9B6A590333D4264B9B6A9A0338D42F
:10A73000244B9B6ADB033DD4224A936A6FEA0343AE
:10A740006FEA1343936208BD45211F48FFF7E6FDFA
:10A750001C4B1E209B6AD901DAD51C484521FFF706
:10A76000DDFD184B1F209B6ADA02D5D5184845211C
:10A77000FFF7D4FD134B02209B6A1B03D0D5452164
:10A780001448FFF7CBFD0F4B21209B6A5903CBD513
:10A7900011484521FFF7C2FD0A4B22209B6A9A030C
:10A7A000C6D50E484521FFF7B9FD064B23209B6A0D
:10A7B000DB03C1D50A484521FFF7B0FD2420BBE7E4
:10A7C000A84C010000ED00E0C84C0100E04C010085
:10A7D000004D0100304D0100544D0100804D01003D
:10A7E000A04D010070B505460C462C484521FFF7E9
:10A7F00095FD2B4B9B6AD8043ED41623284A926AB7
:10A80000110533D4264EB26A920525D4244A926AA1
:10A8100050051BD4224A916AC90511D4926A920448
:10A8200008D4184600211E4A936A43F47F4393627A
:10A83000217070BD1B484521FFF770FD1C20F1E71A
:10A8400019484521FFF76AFD1B20EBE74521174812
:10A85000FFF764FD1A23DDE745211548FFF75EFD8C
:10A86000B26BB36A1B040DD41923CFE745211148FD
:10A87000FFF754FD1823C5E745210F48FFF74EFDAC
:10A880001723BBE745210D48FFF748FD002DEBD00E
:10A89000B36A23F40043B362E6E700BFD04D010082
:10A8A00000ED00E0984E0100784E0100584E010086
:10A8B0001C4E0100044E0100EC4D01003C4E010015
:10A8C00070B505460C463C484521FFF727FD3B4B3C
:10A8D0009B6AD9062BD4394B10209B6A1A072FD4B8
:10A8E000364EB36A9B0734D4344B9B6ADA073AD4AA
:10A8F000324B9B6A9B063FD4304B9A6AD60602D4F1
:10A900009B6A9D0703D52D4B9B6AD90645D42B4BDB
:10A910009A6A920603D55A6A22F400525A620021BA
:10A92000264A936A43F0FF039362217070BD244866
:10A930004521FFF7F3FC214B11209B6A1A07CFD565
:10A940001E4E20484521FFF7E9FCB36A12209B0701
:10A95000CAD545211C48FFF7E1FC726BB36A1906A2
:10A9600010D41320C0E719484521FFF7D7FC134B3B
:10A9700014209B6A9B06BFD515484521FFF7CEFCE6
:10A980001520B9E745211348FFF7C8FC002DE8D092
:10A99000B36A23F08003B362E3E70F4940F2631325
:10A9A0000E4A0F48FFF796FC0E48FFF793FC40F263
:10A9B00063110A48FFF786FCCC4E010000ED00E071
:10A9C000E84E0100044E0100204F01005C4F0100E1
:10A9D000984E0100404F0100BC4F0100804F010024
:10A9E000CC430100085001002DE9F043834B8BB0AC
:10A9F000D3F804800023C8F3080983F31188BFF358
:10AA00006F8F02F07F43B3F17F4F19D112F001072E
:10AA1000154615D1530606460C464AD4100745D5AF
:10AA200000266CB100238DF80730A9F10303092B30
:10AA300015D8DFE803F0645D504C14141414144767
:10AA40006F494FF48B636F4A6F48FFF743FC6F48C1
:10AA5000FFF740FC4FF48B616A48FFF733FC6C4909
:10AA600018F4F87F6B4A6C4808BF0A46A9F1100336
:10AA70004521FFF753FC20686168A268E36802ADD6
:10AA80000FC520696169A269E3690FC5002E71D005
:10AA9000C3F3080240F2FF110AB90B430993384689
:10AAA00002A9FFF791FC0BB0BDE8F0833446012604
:10AAB000B7E745215948FFF731FC6907B0D4344660
:10AAC0003E46AEE745215648FFF728FCD3E7FFF79F
:10AAD00011FE0746CFE700200DF10701FFF782FEC8
:10AAE00007469DF80730002BC5D00BB0BDE8F083BA
:10AAF00000200DF10701FFF7E3FE0746F1E74521CE
:10AB00004848FFF70BFC00233C4D8DF80730EB6AFB
:10AB10009A0736D4EB6A002B3FDBEB6A5B004FD51C
:10AB200045214148FFF7FAFB6B69A26943F4807342
:10AB30006B61BFF34F8FBFF36F8F6B6932F8022CDD
:10AB400023F480736B61BFF34F8FBFF36F8F4DF6AC
:10AB500002739A4226D0AB6ADBB2BBB9AB6A13F47C
:10AB60007F4F26D1AB6AB3F5803F38D3FFF7C2FDE4
:10AB70000746B6E7099B23F4FF7323F0010309930B
:10AB80008DE745212948FFF7C9FB74E701200DF146
:10AB90000701FFF795FE0746A3E745212448FFF785
:10ABA000BDFB68E7452122682248FFF7B7FB27680D
:10ABB00097E701200DF10701FFF714FE074690E724
:10ABC0001D4940F22E330F4A0F48FFF783FB1B4805
:10ABD000FFF780FB40F22E310A48FFF773FB16495E
:10ABE00040F22A33074A0848FFF774FB1448FFF77E
:10ABF00071FB40F22A310348FFF764FB00ED00E0EF
:10AC0000A0500100804F0100CC430100B45001006E
:10AC10006C500100845001003C520100F4500100CE
:10AC2000105201001C510100745101003851010003
:10AC300060510100985101009C450100E051010064
:10AC4000BC510100044B5A6942F010025A615A6922
:10AC500042F480625A61704700ED00E0EFF3088033
:10AC6000EFF3098101B57246FFF7BEFE01BD00BFDB
:10AC7000704700BF704700BF002320200349CA1857
:10AC80000133412B82F80003F9D1704700E100E065
:10AC9000002080F31488BFF36F8F002080F30A88B0
:10ACA00080F30B88FFF738FB00200E490860BFF3E4
:10ACB0004F8F0D4880F3088800F01AF8202080F3A9
:10ACC00011880A484FF40061401880F30988EFF3B7
:10ACD00014800221084380F31488BFF36F8FFFF7BD
:10ACE000EBFB000094ED00E0D8DB002098CE0020C4
:10ACF00072B6002383F31388154AD2F8900010F43B
:10AD00007F4FC0F3072107D01846C2F898300133AF
:10AD10009942C2F8A000F8D100234FF0FF300D494E
:10AD200003F120020133102B41F82200F8D1002357
:10AD30004FF0FF30074903F160020133102B41F857
:10AD40002200F8D162B6BFF34F8FBFF36F8F704709
:10AD500000ED00E000E100E00A4B9B68834201D077
:10AD600006F0B2BBEFF30583002BF9D0064B5A680F
:10AD700042F080525A605A6A22F400425A6206F047
:10AD8000A3BB00BF38CE002000ED00E040E800F398
:10AD900013F4803FD8B208BF6FF01500704700BFB2
:10ADA00010B50A4C84B0234601210948094A00F035
:10ADB00001F90022084B0121E41A01A8CDE9013470
:10ADC000039200F01BF904B010BD00BF0000042086
:10ADD0005452010080C5002050C7002010B50F2834
:10ADE000D1E900430A89B1F80AC003F1FF3324F026
:10ADF0001F010B4412D80CF0070C23F01F030B4C5F
:10AE000043EA4C0302F01F020A4343F00103C4F873
:10AE10009800C4F89C20C4F8A03010BD024645211B
:10AE20000348FFF77BFA6FF0150010BD00ED00E05E
:10AE3000645201002DE9F84F164691B10446894647
:10AE4000002700F104086568002D73D01F2D01D97B
:10AE5000EB0609D03A4645215248FFF75FFA6FF0FA
:10AE600015063046BDE8F88F58F804AC1AF01F0FED
:10AE7000F0D15046FFF78AFF03465544681E1D4631
:10AE8000FFF784FF854279D115F1160F78D0AE42D5
:10AE900076DD454BC3F89850D3F89C00C3F8985022
:10AEA00058F8041C6268D3F8A0A020F01F000A44E0
:10AEB00088424AF01F0A02F1FF3B4AD0C3F898507B
:10AEC000D3F8A020013921F01F0102F01F020A432C
:10AED000DA452146F0B2C3F8A02033D0FFF77EFF59
:10AEE00010F1160FBBD03049461CC1F8985062686B
:10AEF00058F8043C0AF1FF3A134423F01F00F6B25D
:10AF00008244AAEB0B020F2ED1F89C5022F01F02B4
:10AF1000D1F8A0303FD803F00E03134305F01F0211
:10AF2000024343F00103C1F89860C1F89C20013648
:10AF3000C1F8A03001374F4504F10C0408F10C08AA
:10AF400081D18EE7FFF74AFF10F1160F87D0461C1C
:10AF5000F0E7DA451AD0C3F89850D3F89C1022F0E5
:10AF60001F0201F01F010A43F0B22146C3F89C20E2
:10AF7000FFF734FF10F1160FE9D170E76FF01505F8
:10AF80002A4645210948FFF7C9F968E72146E8B292
:10AF9000FFF724FFCEE7324645210548FFF7BEF90B
:10AFA0005DE700BF9052010000ED00E0B8520100E3
:10AFB0006452010038B50C4D0C462A78FFF73AFF71
:10AFC0002870163000D038BD40F21B13074A0848DD
:10AFD0000849FFF77FF921460748FFF77BF940F260
:10AFE0001B110248FFF76EF984CE0020E0520100E9
:10AFF000CC4301009C4501001853010000295ED09C
:10B000002DE9F84F884606464FF0000A2C4CDFF831
:10B01000B4B02BE015F1160F44F8045C3DD02A4B78
:10B020001B78AB4239DDCBF89850CBF89850DBF861
:10B030009C20237A62F304032372DBF8A030227A87
:10B040005B0863F347122272DBF89C3023F01F0386
:10B050002360DBF8A03023F01F03E3600AF1010A4C
:10B06000C24506F10C0604F1140426DA7768002FB5
:10B07000F4D0D6F800904846FFF788FE054607EB67
:10B0800009000138FFF782FE8542C3D06FF0150238
:10B090000E4B0AEB8A0A43F82A2040F22B130C4A83
:10B0A0000C480D49FFF716F941460C48FFF712F915
:10B0B00040F22B110648FFF705F9BDE8F88F7047FD
:10B0C000E8C8002000ED00E084CE0020E4C80020A5
:10B0D000E0520100CC4301009C45010044530100B3
:10B0E0002E4B70B51C68102C38D8BFF35F8F00252D
:10B0F0002B4E2C4AC6F89450C6F8C020E4B15968CB
:10B10000087ACB680A684FEA501C23F01F03C6F880
:10B11000985022F01F0200F01F0043EA4C03013553
:10B12000024343F00103A542C6F89C2001F110013F
:10B13000C6F8A030E4D1ECB205221B49184B0C70C4
:10B14000C3F89420BFF34F8FBFF36F8FD3F89030C5
:10B15000C3F30723102B12D1002070BD4FF4A97345
:10B16000124A13491348FFF7B5F821461248102236
:10B17000FFF7B0F84FF4A9710C48FFF7A3F80F4997
:10B180004FF4DE73094A0B48FFF7A4F80C48FFF7A9
:10B19000A1F84FF4DE710548FFF794F82054010040
:10B1A00000ED00E0AAFF440084CE0020E052010040
:10B1B0009C450100CC43010074530100A8530100D9
:10B1C000FC53010008B5024B1B689847002008BDDE
:10B1D000F8C80020034A04499378086043F002034A
:10B1E0009370704754C60020F8C8002008B506497F
:10B1F000064821F00701C1F1005202F58022FEF756
:10B200006DFC002008BD00BFEBDD0020D8DD002074
:10B2100070B5049D0469C9B24FF02006EFF3118E9A
:10B2200086F31288BFF36F8F01EB410104EB810CB1
:10B23000DCF8484004F00706012E0CD004F0C004EE
:10B24000A5428EF31188BFF36F8F0CBF6FF07700AC
:10B250004FF0FF3070BD8900CCF848508EF3118854
:10B26000BFF36F8FCCE9102343685B5898470020E9
:10B2700070BD00BF0B460069DBB2002100EB43103C
:10B28000104700BF70B505460C464026094B82B0FA
:10B29000E91A49112346084A08480096FFF7B8FF03
:10B2A000011E01DB02B070BD2846234602B0BDE896
:10B2B0007040184710C9002075B20000BC3D010065
:10B2C000002002F013BC00BF10B54FF02003EFF3D5
:10B2D000118483F31288BFF36F8F0A4A136823F037
:10B2E0000201DB07116004D584F31188BFF36F8F6F
:10B2F00010BD012002F060FC84F31188BFF36F8F52
:10B3000010BD00BF68C90020002002F055BC00BF7E
:10B31000104604F047BE00BF802230B5002401254E
:10B3200087B002AB0092084ACDE90233CDE904456B
:10B33000FFF76EFF002805DB4FF48042002302A8D0
:10B3400004F08AFE07B030BD11B30000C9B2012974
:10B3500008B508D8036901EB410103EB8103986C40
:10B3600000F0070008BD054905487A23054AFEF7A5
:10B37000B1FF7A210348FEF7A5FF00BF98540100F2
:10B38000CC43010058540100064C08B50649074853
:10B3900040F25D132246FEF79DFF40F25D1120460C
:10B3A000FEF790FF5854010098540100CC4301006F
:10B3B0001A4A70B5831AC3F34713012B2BD80646DC
:10B3C0000D464FF02000EFF3118180F31288BFF398
:10B3D0006F8F03EB430302EB830CDCF848209B00E8
:10B3E00012F0800410D10122CCF8482081F311889A
:10B3F000BFF36F8F0A4A13445B6898472146304673
:10B400002B46BDE87040184781F31188BFF36F8F5A
:10B410004FF0FF31F3E7FFF7B7FF00BF10C900207F
:10B420000055010070B50022012104460520FFF7F8
:10B4300001F80F4802F008FB0E4B984215D102F0BC
:10B4400029FB25690C492846FEF736FE00280BDB50
:10B450000126AE642469084904F12000FEF72CFEA1
:10B46000002801DB0020666570BD6FF0040070BD30
:10B4700025B500000000AD0BC854010010B5C9B2DD
:10B480000129026923D84FF02003EFF3118C83F3D5
:10B490001288BFF36F8F01EB410102EB8102936CC5
:10B4A000890013F0400406D08CF31188BFF36F8F2E
:10B4B0004FF0FF3010BD012393648CF31188BFF36C
:10B4C0006F8F43680B445B689847204610BDFFF7B9
:10B4D0005BFF00BF30B40024104B00EB400203EBD5
:10B4E0008203D3E9105201461C644FF02004EFF3AD
:10B4F000118084F31288BFF36F8F9C6C04F0C0043A
:10B5000044F002049C6480F31188BFF36F8F1DB177
:10B510002B4630BC0248184730BC704710C9002089
:10B52000BC3D0100012808D0042808B50BD0B0B9F3
:10B53000114B9B6C5B0702D008BDFFF7CBBFBDE88A
:10B540000840FFF7C7BF0D490D4840F26E230D4A72
:10B55000FEF7C0FE40F26E210A48FEF7B3FE07492F
:10B56000074840F27223074AFEF7B4FE40F2722108
:10B570000448FEF7A7FE00BF10C900209C4501004B
:10B58000CC430100585401004FF02003EFF3118128
:10B5900083F31288BFF36F8F174A136843F00200DA
:10B5A0001060DA0706D481F31188BFF36F8F012092
:10B5B00002F09CBA114BD3F80C24D3F80C34DB07FF
:10B5C000F1D54FF02003EFF3118083F31288BFF31E
:10B5D0006F8F0B4A936C03F0C00343F00203936434
:10B5E00080F31188BFF36F8F81F31188BFF36F8FE2
:10B5F0000020FFF76FBF00BF68C900200050004067
:10B6000010C9002038B5C9B204694FF02005EFF326
:10B61000118E85F31288BFF36F8F01EB410104EBAC
:10B62000810CDCF8484004F00705012D0CD004F033
:10B63000C004802C8EF31188BFF36F8F0CBF6FF0A6
:10B6400077004FF0FF3038BD80248900CCF84840A7
:10B650008EF31188BFF36F8FCCE9102343685B58DA
:10B660009847002038BD00BF2DE9F041012406466F
:10B67000454BD3E8EF2FC3E8E14F0029F9D1002A69
:10B680004FD0002E4BD0731E012B70D8012E06D147
:10B690003E4BD3F81C3403F00303022B3FD004F0DD
:10B6A000A5F9054618B93A4B1B78002B4ED14FF03F
:10B6B0002003EFF3118783F31288BFF36F8F012507
:10B6C000324CDFF8D080D4F81824D4F81834D203E0
:10B6D00005D503F00303022B1CD0012E1AD0002D38
:10B6E0003AD03846FEF73CFED4F81835DBB2012BD1
:10B6F000E9D1D4F80421002AE5D00020022120223B
:10B70000C4F80401D4F80401C4F81815C8F880215D
:10B71000A360D8E72DB387F31188BFF36F8FBDE81F
:10B72000F0811D491D484A60CA608C60FEF7DAFC52
:10B730000028A6DA1A491B484FF40C731A4AFEF780
:10B74000C9FD4FF40C711848FEF7BCFD02220F4BE7
:10B750000746C3F80823B3E70021212005F07AFE4D
:10B76000C2E70222094BC3F80423BDE8F0810F4968
:10B770000C4840F242230C4AFEF7ACFD40F2422155
:10B780000948FEF79FFD00BF0CC900200050004093
:10B7900093CE002000E100E0FCC8002030C900206A
:10B7A000BC540100CC430100585401009C450100E9
:10B7B0000A2838B5044607D0074DAB680648DB6950
:10B7C000E1B29847204638BD034D0D21AB682846AD
:10B7D000DB699847F1E700BFF83D010008B507486D
:10B7E00003F01CFE38B10648FFF7F4FC0448FDF7EF
:10B7F00027FE002008BD6FF0120008BDF83D0100D3
:10B80000B1B70000084608B5114601F0D7FF00287F
:10B8100018BF6FF0040008BD08B501F0CDFF002887
:10B8200018BF6FF0040008BD03465B6800205B682A
:10B830001B690B60704700BF034610B45B6802EAE7
:10B8400001045B6821EA02019C60D960002010BC01
:10B85000704700BF03465B6800205B6899607047D3
:10B8600003465B6800205B68D9607047034610B4EC
:10B870005B6800205A68536821EA03040B40946017
:10B88000D36010BC704700BF38B5046900293AD0B6
:10B890004B685BB365684DB18D421DD02B4601E00E
:10B8A00099420CD018461B68002BF9D1DAB10D6013
:10B8B000A36861600BB1002038BDA160FBE70B6895
:10B8C0000360A368994205D000230B60002AF2D0E0
:10B8D0006568ECE7A060F7E7A0680B6881426360E9
:10B8E000F2D1A360F0E76FF0150038BD0C493B239F
:10B8F0000C4A0D48FEF7EEFC0C48FEF7EBFC3B2132
:10B900000848FEF7DFFC0A493A23064A0648FEF7D4
:10B91000E1FC0848FEF7DEFC3A210248FEF7D2FCC3
:10B920009C55010044550100CC430100B055010075
:10B93000805501008C55010030B5406801F01F04AE
:10B94000057BB2F5001F85B044EA451449D00025B7
:10B95000B2F5800FCDE9025539D0B3F1C06F3ED0BA
:10B96000B3F1007F14BF012302238DF808308368F0
:10B97000CB40D90702D4B2F1A07F0FD000232046DC
:10B98000194602AA02F0CAF9244B984239D1012182
:10B99000204602F081FB002005B030BD630924D1B0
:10B9A0004FF0FF33E340DA071FD51D4B04F180024F
:10B9B00053F82230DB07E1D40DF107052946204674
:10B9C00002F006FB174B98421ED00395D6E7B3F161
:10B9D000007F0CBF042305238DF80830CEE7032336
:10B9E000C3E7204602F0E4FBD5E70F490F4840F2D9
:10B9F0002F330F4AFEF76EFC40F22F310C48FEF752
:10BA000061FC6FF01500C7E7284602F03FFB034BCF
:10BA10009842DAD06FF00B00BEE700BF0000AD0B1C
:10BA2000002584400400AD0BFC550100CC4301000F
:10BA3000C85501002DE9F0410F46D0F8048007F009
:10BA40001F0698F80C3084B046EA43161446304678
:10BA50000DF1070102F0BCFA14F4403F054609D18C
:10BA6000304602F0EBFB4C4B9D4224D0002004B04A
:10BA7000BDE8F08100233046194602AACDE9023321
:10BA800002F04CF9444B984254D1854269D0A50349
:10BA900021D4E3064FF000034CBF0324C4F3401449
:10BAA0001A46304602A98DF8084002F037F93A4BA1
:10BAB0009842DBD03EE09DF8070002F0E1FAA84290
:10BAC000D4D0364936486C23364AFEF703FC6C2145
:10BAD0003448FEF7F7FB40F206332340B3F5837F8B
:10BAE00057D02AD8062B05D036D81BB1022B08BF59
:10BAF00004231FD18DF8083084F48033C3F300434E
:10BB0000E0068DF809304CBF0323C4F34013210332
:10BB10008DF80A3035D4620304D50123D8F8042007
:10BB2000BB40D3600022304602A902F0BBF91A4B99
:10BB300098429BD06FF0150099E740F202229342A1
:10BB400025D0B3F5407F08BF0323D3D0B3F5007FE2
:10BB500008BF0223CED0EDE7B3F5807FEAD1012301
:10BB6000C8E79DF8070002F08BFAA8428FD00B4976
:10BB70000B487F230B4AFEF7ADFB7F210948FEF7F8
:10BB8000A1FB0123D8F80420BB409360CAE705233A
:10BB9000B0E70723AEE700BF0000AD0B4C56010035
:10BBA000CC4301002056010010B502F05FFA08B145
:10BBB000002010BD044602F031FA084B984209D12A
:10BBC0002146074802F0FEF9224605213120FEF702
:10BBD00031FCEDE76FF0040010BD00BF0000AD0BBD
:10BBE000E5BB0000430912D1104B596879B170B51B
:10BBF00001250C680E4E85408A682A4003D04B68A8
:10BC00003BB1304698471CB121462468F4E77047A1
:10BC100070BD08495D23084A0848FEF75BFB0848E9
:10BC2000FEF758FB5D210448FEF74CFB6CC9002071
:10BC3000D03D01006056010044550100CC43010095
:10BC4000B05501004368136090F808C003EBCC0CBA
:10BC500063451DD293F805C008338C4516D000B556
:10BC600004E093F805C008338C450CD0136090F8BD
:10BC700008C0D0F804E00EEBCC0C6345F1D36FF0B4
:10BC800001005DF804FB00205DF804FB0020704714
:10BC90006FF00100704700BF002900F02D81F8B55A
:10BCA00000EB810150F8044B04F07F037F2B4FEA37
:10BCB000144C23D0C4F34324BCF1190F1BD8DFE884
:10BCC0001CF0FF00D900E8005700E300C400570053
:10BCD0001A001A001A001A00CE00D4001A001A0026
:10BCE0001A001A001A001A001A001A001A009E0000
:10BCF000BD00C700DC006FF08500F8BDBCF1190F76
:10BD0000F9D801A353F82CF0E1BD0000EFBE00000C
:10BD1000EBBD0000F5BD0000EBBD0000E1BD000083
:10BD2000F5BD0000F7BC0000F7BC0000F7BC000048
:10BD3000F7BC0000EBBD0000E1BD0000F7BC000057
:10BD4000F7BC0000F7BC0000F7BC0000F7BC000027
:10BD5000F7BC0000F7BC0000F7BC0000F7BC000017
:10BD6000E5BE0000D1BE0000DBBE0000C7BE000083
:10BD7000C2F8103550F8045C15F4005C0ED15E0971
:10BD800067468EB15D495E4840F22F335D4AFEF74B
:10BD9000A1FA40F22F315B48FEF794FA5E094FF0AA
:10BDA000010C0027002EEDD1C5F3C1154FF0FF3671
:10BDB000DE40F607E6D5544E06EB830EDEF8006251
:10BDC000524B334043EA4C033B4343EA850343EA87
:10BDD0000423CEF8003281427FF464AF0020F8BD26
:10BDE0004FF0FF33C2F80C35F5E74FF0FF33C2F8E0
:10BDF0000835F0E74FF0FF33C2F81035EBE7C2F833
:10BE0000603550F8045CC5F38035002D43D14FF008
:10BE1000010C5D09B6D14FF0FF35DD40ED07B1D51E
:10BE20000125394E9D40F56050F8045CAE0445D5BF
:10BE30004FF0010C0027C5F3C115B7E7C2F8643510
:10BE400050F8045CC5F38035DFE7C2F80C35DEE757
:10BE5000C2F8683550F8045CC5F38035D5E7C2F800
:10BE60000835002C86D1062484E7C2F80C35002C56
:10BE7000F9D07FE7C2F814357CE7C2F86C3550F88A
:10BE8000045CC5F38035C0E74FF0000CC2F80835FC
:10BE9000BFE7C2F808355D097FF474AF4FF0FF3596
:10BEA000DD40EF077FF56EAF4FF0010C164D0CFA39
:10BEB00003F6AE6050F8045CAE04B9D4012773E712
:10BEC000C2F80C35E7E74FF0FF33C2F86C3582E774
:10BED0004FF0FF33C2F864357DE74FF0FF33C2F80F
:10BEE000683578E74FF0FF33C2F8603573E74FF0FD
:10BEF000FF33C2F814356EE700207047FC5501008F
:10BF0000CC430100C855010000258440F0F8FCFF37
:10BF10000A460369043393E8030082E80300002023
:10BF2000704700BF43681B68D3F88004C3F88004DF
:10BF3000704700BF30B4002544682368C3F8441537
:10BF4000C3F84825C3F82051D3F82021C3F858512D
:10BF50006268D3F85811D20611D50269D2682AB1A5
:10BF6000D2F8C01041F00101C2F8C01008244FF40B
:10BF7000800241680968C1F80045C3F80423012222
:10BF80009A6030BC704700BF30B4436805691B68D5
:10BF90004FF02000EFF3118C80F31288BFF36F8F06
:10BFA000EC68A06DB8B1606E90B96166EC68A2668D
:10BFB000C3F83415C3F83825D3F8002242F0200224
:10BFC000C3F800228CF31188BFF36F8F30BC704729
:10BFD0006FF00F00F6E76FF00C00F3E70369D86825
:10BFE00020B10160DB6800205A6070476FF0850067
:10BFF000704700BF02694368D0681B6870B910B40D
:10C00000D3F810416CB10124926912780A70C3F818
:10C010001001D3F810211C6010BC70476FF0850030
:10C0200070474FF0FF30F7E738B505694368E868B7
:10C030001C68836DD3B1436E5BB10022D4F800322B
:10C0400023F02003C4F80032C4F84C21D4F84C315A
:10C05000E868803005F070FF00200123EA6882F86C
:10C06000CA00EA6882F8CB30636038BD6FF00D001B
:10C0700038BD00BF38B503694168DA680D6891685A
:10C0800051B1002482F8CD40D868203005F054FF2B
:10C090000123EB60204638BD6FF00D0038BD00BFB6
:10C0A000C368DA68D969521A10D0082A28BF082252
:10C0B00010B55A61C36899691961C3689C68D3E96E
:10C0C0000601214407F023FE012010BD10467047F1
:10C0D000F0B402694FF02003EFF3118C83F3128860
:10C0E000BFF36F8FD468D4F8C03023EA0103C4F8DB
:10C0F000C030D368D3F8C02032B902290AD0002258
:10C1000043681B68C3F800258CF31188BFF36F8F59
:10C11000F0BC704705270125416803F1C404096894
:10C12000D1F83C65C3F8C42083F8C820C1F8344571
:10C13000C1F83875C1F81021D1F81021CD62D1F8BD
:10C140001021002AFBD00022C1F81021D1F81021C3
:10C15000D1F83C55AE420AD103F1C30203F1C80441
:10C1600001E0A24204D012F8011F0029F9D0E9B27F
:10C1700083F8C910C3E700BF4B79012B69D0032BAB
:10C180004DD14FF0100C8B79032B48D170B4CC7982
:10C190000CB1012C3ED10A7912B1022A3AD10E22F9
:10C1A00043681E680B68B3F5164F00F0998023D8DA
:10C1B000B3F5165F00F0928035D9B3F5E14F00F08A
:10C1C000858053D947F61225AB4208BF4FF40003D0
:10C1D00020D14CEA040C0469C6F82435436842EACD
:10C1E0000C021B680434C3F86C25002303C984E8DF
:10C1F0000300184670BC7047B3F5613F6BD01ED882
:10C20000B3F5963F5DD043D9B3F5E13F08BF4FF09A
:10C21000EB73DED070BC6FF08503184670476FF08B
:10C22000850318467047B3F5966F51D014D9B3F50E
:10C23000166F43D0B3F5965FECD12B4BC9E7B3F53E
:10C24000612F40D01AD9294DAB42E3D14FF0805332
:10C25000BFE74FF0000C96E7B3F5967F2BD0B3F510
:10C26000167F08BF4FF41C33B3D0D3E7B3F5615F3B
:10C270001FD0B3F5964FCDD11D4BAAE71D4DAB4254
:10C2800014D0B3F5E12F08BF4FF0E863A1D0C1E7A8
:10C290004DF6C025AB4206D0B3F5614F08BF4FF451
:10C2A0006B0396D0B6E74FF4650392E74FF08063D7
:10C2B0008FE7114B8DE74FF4A0338AE74FF41D232E
:10C2C00087E70E4B85E74FF0706382E70C4B80E702
:10C2D0004FF49E237DE74FF06C737AE7094B78E7C4
:10C2E0004FF41D0375E700BF00B0130040420F007C
:10C2F00000A04E0090D0030000F03A0000903A01F8
:10C3000000C07500005027002DE9F043054683B0BA
:10C31000002201210820FEF78DF80820FEF76EF8B4
:10C3200000216F68D5F810803E6801AAC6F8001594
:10C33000C8F80050D7F80C904846FFF783FC041E5D
:10C340007DDB019BD9F8002019791868FFF7A4FC60
:10C35000041E74DB284608F10401FFF70DFF0446B4
:10C3600000286CD17B6899076DD4D8F80C30002B6D
:10C370003AD00421012208206B682D691B68C3F89C
:10C380000413E968C1F8C0203D49C3F80413C3F899
:10C390000005D3F84C11A9B15A6002E0D3F824216A
:10C3A0001AB9D3F84421002AF8D00022C3F84C214E
:10C3B000D3F84C11C3F81021D3F81011C3F844215D
:10C3C000D3F84431E86800222E49803005F072FD30
:10C3D000EB68C3F8B450E86800222B49203005F020
:10C3E00069FDEB685D6510E00823C6F800353B7A0F
:10C3F0005BB9C6F81031D8F81830D6F81021C6F855
:10C4000034350123C6F8383533607B689A0704D485
:10C410004FF48073C6F804337B68DB0648BF4FF4E3
:10C4200080034FF0000248BFC6F804330123D8F858
:10C430001410C6F84415C6F84825B360F3602046CA
:10C4400003B0BDE8F08308F11C0001F003FC0F4BC2
:10C4500098420ED198F81C0006F10C0206F5907176
:10C4600001F064FA012098F81C30984001F058FA65
:10C470007BE745210648FDF751FF6FF00404DEE736
:10C4800010020A0039C7000095C400000000AD0B7F
:10C49000AC56010010B5436B1B681A695968D36824
:10C4A0000C68996841B1002183F8CD10D068203024
:10C4B00005F042FD0123E36010BD00BFF0B51E464C
:10C4C000436805460469D3F800C083B04FF02003E9
:10C4D000EFF3118783F31288BFF36F8FE368D86897
:10C4E00000285BD1DA604FF48003D4F80CE0CEF87A
:10C4F0000810CCF8043301F06043B3F1005FE36847
:10C500002CD11961E3685A616B68D3E90021D2F834
:10C510005831C3B10022E368284683F8CD204FF09C
:10C52000FF32E368C3F8BC20E368D3E90412FFF7E5
:10C5300001FD87F31188BFF36F8FE37A012B12D0CF
:10C54000002003B0F0BD890703D4D2F82031002BBE
:10C55000E0D10122E36883F8CD20EAE7D8612046E4
:10C56000FFF79EFDD0E7731CEAD04FF40040002196
:10C570000E4B26EAE676C6FB00310D4A184600232C
:10C58000FCF700FAE4680026002702460B46203438
:10C590002046CDE9006705F09DFCD1E787F31188BF
:10C5A000BFF36F8F6FF00F00CBE700BF3F420F006C
:10C5B00040420F0010B44368D3E90024D2F8583148
:10C5C00023B9A30711D4D2F8203173B100244FF05E
:10C5D000FF32CB6883F8CD40CB68C3F8BC20CB6872
:10C5E00010BCD3E90412FFF7A5BC0122CB6883F885
:10C5F000CD2010BC704700BFF8B505460F46066950
:10C6000003F0F4F910B93D4B1B786BBB4FF02003DE
:10C61000EFF3118483F31288BFF36F8F6B681A688E
:10C62000D2F85811002945D0F3682BB1D96819B157
:10C63000D3F8BC1000295BDB736928461F70012208
:10C640007169FFF777FC84F31188BFF36F8FF8BD32
:10C65000D1F82021002AEFD183F31188BFF36F8F27
:10C660002120002104F0F6FE64246B681A68D2F8D9
:10C67000581191B14FF02002EFF3118382F3128829
:10C68000BFF36F8F6A681C461168D1F85801002803
:10C69000D2D152689207DFD4DAE75B68990703D4F6
:10C6A000D2F82031002BE5D1012001F0C9F8013C7E
:10C6B000DBD1D5E75B6803F002031BB9D2F8203168
:10C6C000002BB1D184F31188BFF36F8F4FF020039B
:10C6D000EFF3118483F31288BFF36F8F6B68D3E994
:10C6E0000023D2F8581103F0020300299CD1E4E79B
:10C6F000D2F84C25C3F8BC209EE700BF93CE0020A3
:10C7000000234FF0020C00B587B0CDE90233CDE92C
:10C71000043302690193D3680491996D1B6ED2684A
:10C72000CDE902138DF804C0136813B1526801A952
:10C73000984707B05DF804FB70B5446BE36893F865
:10C74000CE30002B31D11022266873681B68C3F8E5
:10C750000823E368D3F8B850DA6EAA4205D0DD6644
:10C76000E3685A6FDA67E368DD6E1A6FAD1A1DD49D
:10C77000D3E91712A818884220D98D1A002D0FDD91
:10C7800030462946FFF7BCFFE268136E2B44136660
:10C79000E268136F2B441367E068803005F0CCFB30
:10C7A000102273681B68C3F8042370BDC3F8B82057
:10C7B000E368D3E917128A42DFD8F1E7002DEFD002
:10C7C000D3E91E128A420CDA29463046FFF798FF59
:10C7D000E268136E2B441366E268136F2B441367F1
:10C7E000DEE7521ADA67DBE70A68B2B110B586B045
:10C7F000029200220C460421CDE903220369019232
:10C800000592DA688DF80410136813B15268694410
:10C8100098470023236006B010BD70472DE9F0470C
:10C82000D0F80490164699F808200469D9F8005009
:10C8300086B0002A40F09580E268884692F8CA10D7
:10C84000002940F08B8092F8CB10002940F08680C0
:10C85000B3F5E87F0746536757DC5C230022E168A5
:10C860008B67E368C3F85880E368DE65E3681A669F
:10C87000E3685A66E3689A66D9F80430DA060FD599
:10C88000E16891F8C9205AB1B24228BF32469246B7
:10C890004046C431904407F03AFAB6EB0A063BD062
:10C8A00000230122C5F83485C5F83865C5F8103174
:10C8B000D5F81011C5F84C31E368D5F84C1183F860
:10C8C000CA20D9F80430DB0619D54FF02003EFF366
:10C8D000118183F31288BFF36F8F3B69DB682BB143
:10C8E000D3F8C02042F00202C3F8C02008227B68BF
:10C8F0001B68C3F8002581F31188BFF36F8F0123F4
:10C900002B60002006B0BDE8F0871D4A82FB0312B1
:10C91000DB17C3EB6203A1E7E268514692F8C93026
:10C920003846A3EB0A0382F8C930FFF7E9FEE16855
:10C9300038465831FFF758FF0523CDE90166CDE9A8
:10C9400003663A690596D2688DF804301368002BA7
:10C95000D7D03846526801A99847D2E76FF00F0048
:10C96000D0E7084940F24233074A0848FDF7B2FCD5
:10C970000748FDF7AFFC40F242310348FDF7A2FC47
:10C98000676666669C450100D0560100CC430100F5
:10C99000045701002DE9F041436802691C6888B022
:10C9A000D4F80831002B55D1D4F8242105464ABBD0
:10C9B000D4F810311BB1D4F80433DF0661D4D4F8B5
:10C9C0004C3123B1D4F81031002B00F08980D4F819
:10C9D000443123B1D4F81071002F00F02F81D4F826
:10C9E000203123B1D4F80433D90500F1AF80D4F855
:10C9F000583123B1D4F804335A0200F1C58008B08D
:10CA0000BDE8F081C4F824314268D4F824111168DB
:10CA100003AED1F88024C1F880240393C6E9013322
:10CA2000C6E903330623D0078DF80C3020D5012248
:10CA30002B698DF81020DA6813681BB1314628463F
:10CA4000526898472846FFF7EFFAD4F81031002BC8
:10CA5000B5D0B0E70023C4F80831D268D4F8083163
:10CA6000D2F8B8300133C2F8B83008B0BDE8F08170
:10CA7000910700F11581530700F1428102F008028D
:10CA8000D6E74FF000080122C4F810812E69D4F8CF
:10CA900010316B681F68F36883F8CE20F06880302F
:10CAA00005F04AFAF268D7F83C1592F8C93082F8D6
:10CAB000C980F268106E1B1A0B44106F23EAE371F1
:10CAC00008444345106700F35A81F16891F8CA3071
:10CAD00003F0FF02002B40F0E58081F8CE206EE7E6
:10CAE0000322C4F84C31D4F84C11CDE90333CDE91D
:10CAF00005332F6907938DF80C20FB6803AED3F83C
:10CB00000080B8F1000F04D05A6831462846C0476B
:10CB1000FB685A6F561C3FF45AAF4FF40040002197
:10CB2000DA67FE68A14AB36F23EAE373C3FB00210F
:10CB3000002310469E4AFBF725FF02460B46CDE92F
:10CB4000000106F1800005F0C5F940E76B681B683D
:10CB50004FF02001EFF3118281F31288BFF36F8F42
:10CB6000D3F8201131B100200121C3F82001D3F8FE
:10CB70002001D96082F31188BFF36F8FD4F8583148
:10CB8000002B3FF43CAF35E76B682C69D3E900829A
:10CB9000D30600F1E680E3689B68002B3FF42FAFDB
:10CBA0004FF02003EFF3118283F31288BFF36F8FEE
:10CBB000E368D3F8BC100029ACBFD3F8BC30D8F878
:10CBC0004C3582F31188BFF36F8FE06890F8CD2069
:10CBD000002A40F0D88081680269914200F0E48028
:10CBE0004269C7699A421F4400F08F80203005F0E7
:10CBF000A3F9002303AE0393C6E90133C6E9033367
:10CC0000E3689A68CDE90427DB684FF480029F420D
:10CC10001CBF01238DF80C300023C8F80823E268FC
:10CC20009360E268D3602B69DA681368002B3FF4E5
:10CC3000E6AE3146284652689847E0E6C4F84471AB
:10CC40002E692846F168D4F844315831D5F804806B
:10CC5000FFF7CAFDF16828466431FFF7C5FDF368A8
:10CC600083F8CA70F36893F8CB20002A5BD103AE37
:10CC7000D8F80430D80651D4002305210393C6E91F
:10CC80000133C6E903332A698DF80C10D2681368A2
:10CC9000002B3FF4A4AE31462846526898479EE6E2
:10CCA0000222C5E628465831FFF79EFD4FF02003CB
:10CCB000EFF3118183F31288BFF36F8FF3685A6E1D
:10CCC00002B39A650023F268906ED065F2685366ED
:10CCD000F2689366F2681366D7F84C310BB90123FA
:10CCE0003B60D7F8003223F02003C7F8003281F30D
:10CCF0001188BFF36F8F0022F36883F8CE205EE6C1
:10CD0000042295E601237B60F1E7C7612046FFF727
:10CD1000C7F9002837D1E068C76967E702212846CC
:10CD2000FFF7D6F9A8E783F8CB706B6805211B687D
:10CD300003AED3F83C250122C3F83465C3F8381597
:10CD4000C3F81071D3F81011DA62D3F81021002A59
:10CD5000FBD00022C3F81021D3F81021D3F83C35C2
:10CD600086E74FF480030121C8F808332846FFF70F
:10CD7000AFF9E368DA68002A7FF40EAF3FE6284691
:10CD8000FFF7BEFCA1E64FF02003EFF3118683F31B
:10CD90001288BFF36F8F21462846FFF70BFC86F3FE
:10CDA0001188BFF36F8F2AE61F461FE73F420F002F
:10CDB00040420F0030B40F490B68D01AC3180B6003
:10CDC00022F07F424B68A2F5001443F10003B4F552
:10CDD000400F4B600AD2084B1B6819068C184FEAAB
:10CDE0001323064A43F10005C2E9004530BC04F0B4
:10CDF000FBBD00BF60C7002088C9002068C70020B5
:10CE00002DE9F047424B04461B680D461A0A1B06E3
:10CE1000BFF35F8F3F49D1F80415CB1842F10002F0
:10CE2000B1F5801F06D23C49D1E90001834272EB83
:10CE3000010167D3A34272EB050150D23749E31ACF
:10CE400065EB02028B4272F1000259D2DFF8D0E0AA
:10CE5000DEE902239D4208BF94424BD04FF4803656
:10CE60004FF000096FF0020C2A4A24F07F48C2F804
:10CE70004863C2F84091D2F84031C2F84085C2F808
:10CE80004463D2F80415274FACEB0103434423F06D
:10CE90007F43BB422ED90320D2F8403163B1D2F890
:10CEA0000415A1EB080323F07F43B3F5000F21D94C
:10CEB000C2F84091D2F8403101EB000A2AF07F43DA
:10CEC000C2F84035C2F84463D2F804150130ACEB27
:10CED0000103534423F07F43BB42DDD80AE0124BE9
:10CEE000D3E8EF1F41F00101C3E8E21F002AF7D1A8
:10CEF000DFF82CE000230D4ACEE90245CEE90023FD
:10CF0000BDE8F08713F1807342F1000292E700BFA1
:10CF100088C900200050014068C70020010080003F
:10CF200050C70020FDFF7F0080C90020B5CD000064
:10CF30002DE9F047002202204FF0FF384FF0FF3973
:10CF40004FF480364FF40017284C294BDFF8A4A08B
:10CF5000C4F80833C4F84833274BC4F80825012126
:10CF6000C3E90289C4F80463C4F804031520CAF8AD
:10CF70008071FDF75FFA1520FDF740FA01231F4D80
:10CF8000A36023602B60D5E8EF8F28F00103C5E88C
:10CF9000E23F002AF7D1C4F80863BFF35F8FBFF305
:10CFA0006F8F00211648FFF72BFF18F0010F05D1F6
:10CFB0000220FEF759FB0020BDE8F087D5E8EF3FDF
:10CFC00043F00103C5E8E23F002AF7D10D4BC4F856
:10CFD0000463D3E8AF3FDB074FF0020048BFCAF855
:10CFE0000071FEF741FB0020BDE8F08700500140D2
:10CFF00003000F0000E100E050C7002084C90020BA
:10D00000FFFF7F0080C90020414BD3F80423900725
:10D0100002D5D3F804212AB93D4BD3F80423D10318
:10D020000ED4704700213B4AC3F80411D3F80431F1
:10D03000136801331360364BD3F80423D103F0D5C2
:10D040002DE9F043344A83B0D2E8EF1F21F001000C
:10D05000C2E8E40F002CF7D1CA0705D4D3F8403159
:10D0600013B903B0BDE8F0830021294A294BC2F867
:10D070004011D2F840111B68190A1B06BFF35F8FDD
:10D08000D2F80425D31841F10001B2F5801F0AD26D
:10D09000224AD2E90067B34271EB070203D213F1CF
:10D0A000807341F100014FF02000EFF3118280F313
:10D0B0001288BFF36F8F1A4CD4E90267B342B941AB
:10D0C0001FD34FF0FF384FF0FF3900204FF4803C62
:10D0D000C4E902890E4B216865682060C3F848C323
:10D0E000C3F84001D3F8403182F31188BFF36F8F4A
:10D0F0000029B6D032463B460095884703B0BDE8CC
:10D10000F08382F31188BFF36F8F03B0BDE8F08323
:10D110000050014088C9002080C9002068C7002055
:10D1200050C70020411CF8B55BD0012857DD2E4ABE
:10D130002E4B9042D4BF04461C462D4B1868020A61
:10D140000006BFF35F8F2B4BD3F80435181842F15C
:10D150000002B3F5801F07D2274BD3E90067B04226
:10D16000BA4101D210F18070244AD2E90031C01ACC
:10D17000B0F5000F38BF0019214CD4E8EF7F27F03D
:10D180000102C4E8E52F002DF7D14FF48036194D88
:10D19000C5F80863BFF35F8FBFF36F8F134A9042E8
:10D1A00028BF1046C01841F10001FFF729FEFA0719
:10D1B00000D4F8BDD4E8EF3F43F00103C4E8E23FF8
:10D1C000002AF7D10F4BC5F80463D3E8AF3FDB0764
:10D1D000EFD54FF400120C4BC3F80021F8BD012429
:10D1E000ABE7024CA9E700BFFEFF7F00FFFF7F0017
:10D1F00088C900200050014068C7002060C7002097
:10D2000084C9002080C9002000E100E0104B1B68A9
:10D21000190A1B06BFF35F8F0E4AD2F80425D318F4
:10D2200041F10001B2F5801F0DD230B40A4AD2E9B3
:10D230000045A342A94101D213F18073074A30BCD3
:10D240001068181A7047054A1068181A704700BF0E
:10D2500088C900200050014068C7002060C7002036
:10D2600030B5114C0021A4462346104A04F1500E5B
:10D2700015681A68824212D0A2B15A68AA1A8A4264
:10D28000C8BF9C4603F10803C8BF1146A34201D39F
:10D290007345EED3013DCCE90005604630BD9C46A8
:10D2A000604630BD9C46F5E700CA0020FCC900205E
:10D2B00030B4002400250020054A064BC2E9004591
:10D2C000D3E8EF2FC3E8E10F0029F9D130BC704754
:10D2D00070C70020FCC9002002F078B82DE9F04F9B
:10D2E00087B080460D4606F0C3FB002800F0ED80B5
:10D2F00004F0CAFC2B680746002B0E4600F0E880BD
:10D30000BCBF4FF0FF332B600122002101A802F0C7
:10D310003BFE6C46CDF814804FF02003EFF3118BE9
:10D3200083F31288BFF36F8F06F00EFDDFF8A8912C
:10D33000DFF8A88159F80000FFF792FFD8F8003015
:10D3400042689A4208D043608BF31188BFF36F8F15
:10D35000002007B0BDE8F08F0023DFF884A1009320
:10D36000DAF80430002B00F09F801C60CAF80440FB
:10D370008BF31188BFF36F8F2B685A1C00F08D80E0
:10D380004FF4004240F2E730002123EAE373C3FB8D
:10D3900002014FF47A720023FBF7F4FA02460B46BF
:10D3A00001A802F059FE4FF02003EFF3118B83F335
:10D3B0001288BFF36F8FDAF8003043B1A34202D175
:10D3C00079E0A34260D01A461B68002BF9D106F021
:10D3D000BBFC59F80000FFF743FFD8F8003043606A
:10D3E0008BF31188BFF36F8F06F042FB00286CD0DF
:10D3F0002C68631CACD004F047FC4FEA40194FEA9C
:10D400004118B9EB000948EAD06868EB01084FEA17
:10D41000890C1CEB000C4FEA88004FEA461E40EADC
:10D4200099704FEA471341EB00014EEAD76EDB1BC0
:10D430006EEB060E4FEA8E0E4EEA937E9B00D819D5
:10D4400046EB0E06C900F60046EA507641EA5C71EA
:10D45000CCF31033C0F3103043EA414340EA464076
:10D460001B1A4FEAD1314FEAE47261EBD631E41A6C
:10D4700062EB0102002AB8BF00242C60002C7FF46C
:10D4800067AF6FF00A0064E700991160DAF80410E2
:10D49000994206D00023009399E74FF0FF321346DC
:10D4A0007EE7CAF80420F5E7CAE900448BF3118847
:10D4B000BFF36F8F60E7DAF80420009BA242CAF83E
:10D4C0000030E7D1CAF80430E4E76FF06D0040E7C0
:10D4D00003F040FED5E700BF08000000FCC90020B3
:10D4E00070C7002010B5041E04DD06F02DFC084BAB
:10D4F0001C5010BDDF23074A07480849FCF7EAFE25
:10D5000021460748FCF7E6FEDF210248FCF7DAFE79
:10D510000C000000A4570100CC430100D8570100C3
:10D52000E857010002F062BA10B58646006810B1F3
:10D53000144B984212D2144C94F800C0BCF1060F60
:10D5400013D8104800EB0C100CF1010CCEF80000C1
:10D5500084F800C0BDE8104002F016BD7033984258
:10D56000E9D2BDE8104002F00FBD0849F323084A94
:10D570000848FCF7AFFE0848FCF7ACFEF32104486E
:10D58000FCF7A0FE8CC9002087CE002010580100B7
:10D59000A4570100CC4301001C58010008B548B154
:10D5A0000B4A904206D37032904203D2BDE8084045
:10D5B00002F0F8BC0749FE23074A0848FCF78AFE38
:10D5C0000748FCF787FEFE210348FCF77BFE00BFFF
:10D5D0008CC9002044580100A4570100CC4301002D
:10D5E000CC59010010B560B31D4B0446984228D3B6
:10D5F0007033984225D24B1C18D04FF4004C40F2A7
:10D60000E730002221EAE173C3FB0C02002311463C
:10D610004FF47A72FBF7B6F902460B46204602F049
:10D620001BFD002818BF6FF00A0010BD4FF0FF323D
:10D630001346204602F010FD002818BF6FF00A00C4
:10D6400010BD08494FF48473074A0848FCF742FEAE
:10D650000748FCF73FFE4FF484710348FCF732FEA5
:10D660008CC9002044580100A4570100CC4301009C
:10D67000CC59010038B505460A4BD3E8EF1F0131FC
:10D68000C3E8E21F002AF8D1074B1C684CB163695C
:10D69000AB4200D015B9201D02F084FC2468002C98
:10D6A000F5D138BDFCC9002070C70020014600221A
:10D6B0000023014802F038B950CA00200146014851
:10D6C00002F040B950CA0020014600220023014860
:10D6D00002F02AB968CA00200146014802F032B9B6
:10D6E00068CA002000B1704708B50E490E4801F025
:10D6F0008FFB28B90D490C4801F08AFB58B908BDC9
:10D70000024645210A48FCF709FE0849064801F08F
:10D710007FFB0028F3D0BDE80840024645210548BC
:10D72000FCF7FCBDF4590100145A01004C5A0100E9
:10D73000185A0100645A0100002070472DE9F04199
:10D740001B4C8046277815460C461E46A2B0D7B122
:10D750004FF0FF324FF0FF33164802F099FA10BB3A
:10D760006846FDF785FA32462946289B2046C04781
:10D7700004466846FDF77EFA0E4802F067FB204635
:10D7800022B0BDE8F0816846FDF772FA32462946BC
:10D79000289B2046C04704466846FDF76BFA2046A2
:10D7A00022B0BDE8F0811F24204622B0BDE8F08100
:10D7B00093CE00203CC700200020704770B5302673
:10D7C00092B006AB05460C4618460021324606F0DC
:10D7D000ABFACDE90454CDE9020614B9204612B0E3
:10D7E00070BD012304AA0092002102AA01930248FD
:10D7F00000F004F812B070BD0001004010B59E4664
:10D80000134601F50042B2F5803F8C46039C0DD2D1
:10D810004EEA0402FF2A09D844EA0E24014644EAEB
:10D820000C420448BDE81040FFF788BF6FF080004D
:10D8300010BD00BF217C0000704700BF004700BF43
:10D8400001F0C4BD10B50468ACB1B4FA84F3012290
:10D85000C3F11F03DBB29A4024EA0202D0E8EFCF03
:10D86000A44504D1C0E8EE2FBEF1000FF6D1EAD1F5
:10D8700002480B7010BD024810BD00BF0000AD0B88
:10D880000200AD0B036823FA01F2D20711D4012282
:10D8900000B58A4043EA0201D0E8EFCF9C4504D1AD
:10D8A000C0E8EE1FBEF1000FF6D104D108485DF8C4
:10D8B00004FB08487047036842EA0301D0E8EFCF51
:10D8C0009C45F2D1C0E8EE1FBEF1000FEDD0F5E7A8
:10D8D0000000AD0B0400AD0B054C08B5054906482A
:10D8E00044232246FCF7F6FC44212046FCF7EAFCE0
:10D8F000A85A0100E85A0100CC430100054C08B5C4
:10D90000054906484A232246FCF7E4FC4A21204602
:10D91000FCF7D8FCA85A0100EC5A0100CC430100E6
:10D92000014BC3F8040570470070014008B539B1D8
:10D9300040F00040C1F8800022B1C2F8800008BD6C
:10D94000FFF7CAFFFFF7DAFFF0B5054683B00028FE
:10D9500048D0012864D10022364B42F21074C3F83B
:10D960000803C3F80021D3F8002158600123314E89
:10D970000DF107078DF80730A5B9D6F8183403F470
:10D980008033FFB1D6F8182402F003023A703BB19D
:10D990009DF80700012803D1FFF752FF013CEBD1AE
:10D9A00003B0F0BD012D2FD1D6F80C3403F4803331
:10D9B00087B1D6F80C2402F001023A70002BE7D1AF
:10D9C00003B0F0BD002BEBD00120FFF739FF013C85
:10D9D000D3D1E5E7002BE3D00120FFF731FF013C75
:10D9E000E2D1DDE702210122124B0746C3F80813FA
:10D9F000C3F80401D3F80411DA60012342F2107471
:10DA00000C4E8DF80730B7E70B490C4840F2CB338A
:10DA10000B4AFCF75FFC40F2CB310948FCF752FCA3
:10DA200005490648D823074AFCF754FCD821054885
:10DA3000FCF748FC005000409C450100CC4301002D
:10DA4000305B0100F05A010008B550B10B4A117962
:10DA500009B10B4808BD0346012113601171094843
:10DA600008BD0949094840F21513094AFCF732FC80
:10DA700040F215110648FCF725FC00BF80CA0020C3
:10DA80000C00AD0B0000AD0B645B0100CC4301004A
:10DA9000F05A010008B5104B1B7983B10520FCF743
:10DAA000BBFC20B101220D4BC3F8182508BD052091
:10DAB000FCF7A4FC0122094BC3F8182508BD08494E
:10DAC00008484FF49773084AFCF704FC4FF4977129
:10DAD0000548FCF7F7FB00BF80CA0020005000405B
