:10800000E0D200204DA6000035820100E5A5000069
:10801000E5A50000E5A50000E5A50000E5A5000038
:10802000000000000000000000000000119A0000A5
:10803000E5A50000000000009D990000E5A50000F6
:10804000FD9A0000FD9A0000FD9A0000FD9A0000D4
:10805000FD9A0000FD9A0000FD9A0000FD9A0000C4
:10806000FD9A0000FD9A0000FD9A0000FD9A0000B4
:10807000FD9A0000FD9A0000FD9A0000FD9A0000A4
:10808000FD9A0000FD9A0000FD9A0000FD9A000094
:10809000FD9A0000FD9A0000FD9A0000FD9A000084
:1080A000FD9A0000FD9A0000FD9A0000FD9A000074
:1080B000FD9A0000FD9A0000FD9A0000FD9A000064
:1080C000FD9A0000FD9A0000FD9A0000FD9A000054
:1080D000FD9A0000FD9A0000FD9A0000FD9A000044
:1080E000FD9A0000FD9A0000FD9A0000FD9A000034
:1080F000FD9A0000FD9A0000FD9A0000FD9A000024
:10810000FD9A0000FD9A0000FD9A0000FD9A000013
:10811000FD9A0000FD9A0000FD9A0000FD9A000003
:10812000FD9A0000FD9A0000FD9A0000FD9A0000F3
:10813000FD9A0000FD9A0000FD9A0000FD9A0000E3
:04814000FD9A0000A4
:1081440053B94AB9002908BF00281CBF4FF0FF31BA
:108154004FF0FF3000F00CB8ADF1080C6DE904CE1F
:1081640000F008F8DDF804E0DDE9022304B070470C
:10817400704700BF2DE9F04786468C460846089EA6
:10818400154674461946002B40F0C1808542B2FA68
:1081940082F245D94AB1C2F1200300FA02FC9540AB
:1081A40094402EFA03F343EA0C0C4FEA154EA8B29E
:1081B400230CBCFBFEF80EFB18CC08FB00F943EAC9
:1081C4000C43994528D9EB1808F1FF3704D2994597
:1081D40002D9A8F102072B44A3EB0903A4B2B3FB11
:1081E400FEFC0EFB1C330CFB00F044EA0344A042EB
:1081F40014D92C190CF1FF3304D2A04202D9ACF1EA
:1082040002032C44241A43EA07401EB1D44000233D
:1082140034607360BDE8F0874746DDE76346F1E705
:1082240092BB431B01214FEA154EAFB2200CB3FBA6
:10823400FEFC0EFB1C330CFB07F840EA0343984595
:1082440061D9EB180CF1FF3004D2984502D9ACF196
:1082540002002B44A3EB0803A4B2B3FBFEFC0EFB09
:108264001C330CFB07F744EA0344A7424DD92C19ED
:108274000CF1FF3304D2A74202D9ACF102032C441F
:10828400E41B43EA0040C0E7C2F120039540944058
:1082940020FA03F12EFA03F34FEA154E9040AFB2E1
:1082A4000343B1FBFEFC0EFB1C10190C0CFB07F87E
:1082B40041EA0041884522D969180CF1FF3004D203
:1082C400884502D9ACF102002944A1EB08019BB214
:1082D400B1FBFEFC0EFB1C110CFB07F743EA014348
:1082E4009F420ED9EB180CF1FF3104D29F4202D900
:1082F400ACF102012B44DB1B41EA004193E76046E9
:10830400E3E76146F7E76046A4E76346B8E78342DC
:1083140006D916B9002108467CE7C6E900E0F9E76A
:10832400B3FA83F78FB9834201D3724508D8BEEB01
:10833400020460EB030301209C461EB9002169E797
:108344003846FAE7C6E9004CF8E7C7F1200CBB4011
:108354000EFA07F522FA0CF42EFA0CF1BA401C437B
:1083640020FA0CF3B8404FEA144901431FFA84FE83
:10837400B3FBF9F809FB18300B0C08FB0EFA43EABF
:1083840000439A4540D9E31808F1FF3004D29A45D6
:1083940002D9A8F102002344A3EB0A0389B2B3FB78
:1083A400F9F809FB183308FB0EFE41EA03418E4538
:1083B4002CD9611808F1FF3304D28E4502D9A8F1F3
:1083C4000203214443EA0040A1EB0E01A0FB029802
:1083D4004145CE46434602D306D14D4504D2013829
:1083E400B9EB020E68EB0403002EA7D0B5EB0E0226
:1083F40061EB030101FA0CFC22FA07F3F9404CEAA1
:108404000303C6E9003199E74046C5E74346D9E787
:10841400034613F8012B002AFBD1181A01387047C0
:1084240080B483B000AF78607B68013B032B13D822
:1084340001A252F823F000BF4D84000051840000D3
:108444005584000059840000452306E0572304E0C6
:10845400492302E0442300E03F2318460C37BD467D
:1084640080BC704780B584B000AF78600323032BD1
:1084740007D90420FFF7D4FF0346194629480FF013
:1084840089FE7B685B68FB600323032B0AD9042005
:10849400FFF7C6FF03461946FB681B681A462248C5
:1084A4000FF078FE0323032B0BD90420FFF7B8FF4A
:1084B40003461946FB685B681B681A461B480FF0A5
:1084C40069FE0323032B0AD90420FFF7A9FF0346FF
:1084D4001946FB681B7A1A4615480FF05BFE032306
:1084E400032B0BD90420FFF79BFF03461946FB68B7
:1084F400DB681B681A460F480FF04CFE0323032B5E
:108504000AD90420FFF78CFF03461946FB681B7C3D
:108514001A4609480FF03EFE002318461037BD46A0
:1085240080BD00BF38DC010054DC010070DC0100B8
:1085340090DC0100A8DC0100C8DC010080B584B037
:1085440000AFF8607B600B467B8113463B810323BD
:10855400032B07D90420FFF763FF03461946044899
:108564000FF018FE002318461037BD4680BD00BF2B
:10857400E4DC010080B584B000AFF8607B600B469A
:108584007B8113463B810323032B07D90420FFF788
:1085940047FF0346194604480FF0FCFD0023184624
:1085A4001037BD4680BD00BFFCDC010080B582B041
:1085B40000AF78600B467B800323032B07D904208C
:1085C400FFF72EFF0346194603480FF0E3FD00238F
:1085D40018460837BD4680BD14DD010080B584B05F
:1085E40000AFF8600B467A607B810323032B07D925
:1085F4000420FFF715FF0346194604480FF0CAFD8F
:10860400002318461037BD4680BD00BF30DD010091
:1086140080B483B000AF78607B68013B032B13D830
:1086240001A252F823F000BF3D86000041860000FD
:108634004586000049860000452306E0572304E0F0
:10864400492302E0442300E03F2318460C37BD468B
:1086540080BC704780B586B000AF604BBB60604B98
:108664003B61604BFB60BB68002B09D10120FFF725
:10867400CFFF034619465C480FF08CFD0023A9E0A8
:108684003B69002B09D10120FFF7C2FF03461946BD
:1086940056480FF07FFD00239CE0FB68002B09D1B6
:1086A4000120FFF7B5FF0346194651480FF072FD4C
:1086B40000238FE0B8680EF035FE78617B69002BEB
:1086C40008D00120FFF7A4FF0346194649480FF0DC
:1086D40061FD7EE03B461A463A21B8680EF02EFE54
:1086E40078617B69002B08D00120FFF791FF0346D6
:1086F400194641480FF04EFD6BE00320FFF788FF59
:10870400034619463A687B683C480FF043FD3869D4
:108714000EF008FE78617B69002B08D00120FFF77A
:1087240077FF0346194636480FF034FD51E03B46C7
:108734001A463A2138690EF001FE78617B69002BF4
:1087440008D00120FFF764FF034619462D480FF0B7
:1087540021FD3EE00320FFF75BFF034619463A681C
:108764007B6829480FF016FDF8680EF0DBFD786190
:108774007B69002B08D00120FFF74AFF0346194606
:1087840022480FF007FD24E03B461A463A21F868D8
:108794000EF0D4FD78617B69002B08D00120FFF72F
:1087A40037FF034619461A480FF0F4FC11E0032082
:1087B400FFF72EFF034619463A687B6815480FF009
:1087C400E9FC4FF400424FF00003104619460EF046
:1087D40075FD6FE718461837BD4680BD78D901008E
:1087E4008CD90100A0D9010078DD0100A4DD0100CD
:1087F400D0DD0100FCDD010028DE010058DE0100AF
:1088040078DE0100A4DE0100D4DE0100F4DE010004
:1088140020DF010050DF010080B483B000AF786036
:10882400034A7B68136000BF0C37BD4680BC7047A9
:1088340050C6002080B582B000AF78603960044B28
:108844001B6878689847034618460837BD4680BDBC
:1088540050C6002080B58CB000AF786039600EF04F
:108864007FFD0346002B1BD007F11C0300221A6076
:108874005A609A60DA601A610223BB77134B3B6239
:1088840007F11C033A68796818460EF0A3FAFB6AEC
:10889400002B17D007F11C0318460EF07FFD11E0E2
:1088A40007F10C0300221A605A609A60DA6002230E
:1088B400BB73074B3B6107F10C033A6879681846B0
:1088C4000EF088FA3037BD4680BD00BFC973010081
:1088D4003988000080B584B000AF78603960002327
:1088E400FB600AE0094B1B687968FA680A4412784D
:1088F40010469847FB680133FB60FA683B689A426C
:10890400F0D300BF00BF1037BD4680BD50C6002065
:1089140080B500AF14F0C4FF0346024A9B581846C2
:1089240080BD00BF0800000080B584B000AFF860CF
:10893400B9607A603B600EF063FD024614F0B0FF4C
:10894400034606495A50FB683A687968B8689847FC
:10895400FFF7DEFF034618460EF059FD080000003D
:1089640080B584B000AF786039603B68002B44D098
:108974007B681B68FB603968F8680FF0E1F8B86041
:10898400B968F8680EF0D3FD034683F00103DBB247
:10899400002B0DD0AF231B4A1B491C480FF0D7FBFB
:1089A40039681B480FF0D3FBAF2116480FF0BFFB0B
:1089B400B968F8680EF086FE03461946F8680EF0AA
:1089C40070FE0246BB6893420DD0B7230D4A11498D
:1089D4000E480FF0BCFB39680F480FF0B8FBB72105
:1089E40008480FF0A4FB0022B968F8680EF0C5FD32
:1089F400B968F8680FF04EF800E000BF1037BD46C4
:108A040080BD00BF64E1010088E101009CE1010038
:108A1400BCE10100F4E101001CE2010080B58EB06C
:108A240000AFF860B9607A60FB681B68FB62BB68E2
:108A34005B42BA6813403B63BA683B6B9A4212D0FC
:108A4400BA683B6BD31ABB60F86A0EF077FE024635
:108A54003B6B934204D3F86A0EF070FE034600E0C9
:108A64003B6B7B6312E0F86A0EF068FE0246BB685B
:108A7400934205D87968F8680FF0DDF8034687E07B
:108A840000233B63F86A0EF059FE7863BB685A1EF4
:108A9400BB681340002B0ED04FF4A2733E4A3F49EB
:108AA4003F480FF054FB3F480FF051FB4FF4A271C5
:108AB40039480FF03CFB7B68002B06D07968F86AD4
:108AC4000EF0A0FE0346002B01D0002360E07A687C
:108AD400BB681A447B6BD31A1946F86A0EF05CFE25
:108AE400B862B96AF86A0FF044F878627B6A002BBE
:108AF40001D100234CE0796AF86A0EF096FE3862E0
:108B04003A6A3B6B13441A46BB6813445A1EBB684B
:108B1400B2FBF3F3BA6803FB02F23B6BD31A3B627A
:108B24003A6A7B681344073323F00703FB61396A0D
:108B3400F86A0FF005F8B861F86A0EF0A0FC024676
:108B4400FB699B1ADB107B61BA697B6A9A4208D97C
:108B5400BA69796AF86A0EF048FF796AF86A0EF021
:108B640022FFB969F86A0EF0ADFD02467B699342B3
:108B740008D27A69B969F86A0EF037FF7969F86A38
:108B84000EF011FF0122B969F86A0EF0F6FC3B6A97
:108B940018463837BD4680BD64E1010058E2010043
:108BA4009CE1010074E2010080B58CB000AFF86074
:108BB400B9607A6078680EF0D2FD02467B68934211
:108BC4000ED84FF4F973584A584959480FF0BFFA70
:108BD40058480FF0BCFA4FF4F97153480FF0A7FA54
:108BE40078680EF0BCFD02467B689B1A7B60BB680C
:108BF400073323F00703BB62BA687B68134423F08E
:108C040007037B627A6ABB6AD31ADB083B621020D3
:108C14000EF0B6FD02463B6A93420ED840F2FB13B7
:108C2400414A454942480FF092FA42480FF08FFA00
:108C340040F2FB113C480FF07AFABB6AFB61FB6817
:108C4400FA691A60FB693A6A9A60FB690022DA6081
:108C5400396AF8690EF0C0FD03460133BB61BB6994
:108C640004339B0018460EF08BFD7861F8690EF012
:108C7400A6FD02467B6913443A6A9A420ED24FF427
:108C84000373294A2D492A480FF061FA29480FF045
:108C94005EFA4FF4037124480FF049FA0023FB6293
:108CA40008E0FB69FA6A0432002143F82210FB6AE7
:108CB4000133FB62FA6ABB699A42F2DB7A690021EA
:108CC400F8690EF09FFC00220021F8690EF00AFDFD
:108CD40001220021F8690EF050FC3A6A7B69D31A2C
:108CE4001A467969F8690EF08DFC7A697969F86930
:108CF4000EF0F8FC0022396AF8690EF083FC3A6A37
:108D04007B69D31A1A46396AF8690EF0EBFC012222
:108D1400396AF8690EF031FC7969F8690EF043FE9E
:108D240000BF3037BD4680BD64E1010094E201001C
:108D34009CE10100B8E20100D4E2010000E301007B
:108D440080B58AB000AF786039607B6814337B6289
:108D54004FF02003EFF3118283F31288BFF36F8F78
:108D64003A62FB613B6AFB607B6ABB61B86909F0EC
:108D7400FDFF034683F00103DBB2002B0DD0722309
:108D8400104A114911480FF0E2F9B96910480FF07F
:108D9400DEF972210B480FF0CAF900BF7B6A7B61D0
:108DA40078690AF01BF800BFFB683B617B683A688E
:108DB4009A613A690121786800F0BAF800BF28374F
:108DC400BD4680BD2CE301005CE3010074E30100B7
:108DD40094E3010080B586B000AFF860B9607A60B2
:108DE400FB689B8B03F007033B617B68002B0EDA67
:108DF400BB68FA6892E8030083E80300FB6818463E
:108E04000EF062FF0121F8680FF02EF884E03B6950
:108E1400062B02D03B69052B5DD1BB68FA6892E84A
:108E2400030083E80300FB6818460EF04DFF3B691E
:108E3400062B2FD1B8680EF088FF0346002B04D010
:108E4400B8680EF082FF034600E000237B6119E05E
:108E5400FB68DB8B01339AB2FB68DA837B69002BF6
:108E64000ED07B6918460EF0A3FF0346002B05D0F5
:108E74007B6918460EF09CFF034602E0002300E0E5
:108E840000237B617B69002BE2D10221F8680EF09C
:108E9400EBFF12E03B69052B0BD040F20913204A8B
:108EA400204921480FF053F940F209111C480FF0F2
:108EB4003EF90021F8680EF0D7FFF8680FF0C1F80A
:108EC4000346002B28D0FB689B8B43F020039AB207
:108ED400FB689A8320E03B69042B11D10021F868D8
:108EE4000EF0C2FFF8680FF0ACF80346002B13D065
:108EF400FB689B8B43F020039AB2FB689A830BE0D8
:108F040040F21B13064A094907480FF020F940F2C2
:108F14001B1103480FF00BF900BF1837BD4680BD85
:108F2400ACE30100D0E3010074E30100F8E30100C5
:108F340080B598B000AFF860B9607A60FB689B8B2D
:108F440003F00703FB650023BB65FB689B8B03F001
:108F54000803002B14BF0123002387F85330BB6898
:108F6400002B0BD140F23313924A934993480FF0EC
:108F7400EEF840F233118F480FF0D9F897F85330D8
:108F8400002B21D0BB68012B07D1FB689B8B43F0DE
:108F940010039AB2FB689A83F7E1BB68022B0BD0EB
:108FA4004FF49E73834A864984480FF0D0F84FF4F7
:108FB4009E7180480FF0BBF8FB689B8B43F0200345
:108FC4009AB2FB689A83E0E107F1200318460EF099
:108FD4007BFE00237B65BB68022B03D1F8680FF08E
:108FE40030F8B860BB68002B00F0CE810023BB656D
:108FF400BB68012B0AD1FB689B69BB6507F12003A1
:10900400BA6D1946F868FFF7E5FEBFE0BB68032BAD
:1090140039D1FB6D002B0BD04FF4AB73654A694912
:1090240066480FF094F84FF4AB7162480FF07FF884
:10903400FB6818460EF09FFE0346002B0BD040F24F
:1090440057135C4A60495D480FF081F840F25711AC
:1090540058480FF06CF8FB681B691B687B657B6DD7
:10906400002B0BD14FF4AD73524A584953480FF0BB
:109074006EF84FF4AD714F480FF059F80621F868B7
:109084000EF0F2FE82E0BB68042B36D1FB6D022B9E
:109094000BD040F25D13474A4D4948480FF057F84A
:1090A40040F25D1143480FF042F8FB68DB8B002B64
:1090B4000BD04FF4AF733F4A464940480FF047F88E
:1090C4004FF4AF713B480FF032F8FB681B695B68E3
:1090D4007B657B6D002B0BD140F26113354A3B4914
:1090E40036480FF034F840F2611132480FF01FF89F
:1090F4000421F8680EF0B8FE48E0BB68052B39D1AE
:10910400FB6D012B0BD04FF4B2732A4A32492B4822
:109114000FF01DF84FF4B27126480FF008F8FB6801
:1091240018460EF028FE0346002B0BD040F26513C0
:10913400204A254921480FF00AF840F265111D48DC
:109144000EF0F5FFFB681B699B687B657B6D002B4C
:109154000BD14FF4B473174A1C4918480EF0F7FFAB
:109164004FF4B47113480EF0E2FF0521F8680EF0D5
:109174007BFE0BE040F26B130E4A18490F480EF0C9
:10918400E6FF40F26B110B480EF0D1FFFB689B8B9E
:1091940003F00703FA6D9A4222D0FB68083318469D
:1091A4000EF0E9FD034683F00103DBB2002B17D078
:1091B400012316E0ACE30100FCE3010074E30100C9
:1091C4000CE4010020E401002CE4010050E401005F
:1091D40068E4010080E4010090E40100F8E3010088
:1091E400002387F8523097F8523003F0010387F8D0
:1091F40052300023BB6097F85230002B0ED107F198
:10920400200318460EF0B7FD034683F00103DBB2DA
:10921400002B03D17B6D002B00F08D80FB689B8BB2
:1092240043F008039BB2FB64FB6C9AB2FB689A831D
:10923400FB6C03F00703FB65FB681433BB647B68BA
:109244007B61B86C09F0AEFD034683F00103DBB229
:10925400002B0DD0F023614A614962480EF077FF7C
:10926400B96C61480EF073FFF0215C480EF05FFFAB
:109274007B697B647B6C83F31188BFF36F8F00BFC2
:1092840000BF97F85230002B04D0BA6DF96DF8681E
:109294000EF04AFE07F1200318460EF06CFD03465B
:1092A40083F00103DBB2002B06D007F12001BB6D74
:1092B400FA6DF8680EF0A3FE7B6D002B03D07B6D76
:1092C4004A49F8689847FB6814333B644FF020031D
:1092D400EFF3118283F31288BFF36F8FFA63BB63DA
:1092E400FB6BBB613B6C7B63786B09F03FFD034612
:1092F40083F00103DBB2002B0DD07223374A3C49C3
:1093040038480EF024FF796B3A480EF020FF7221A2
:1093140032480EF00CFF00BF3B6C3B63386B09F026
:109324005DFD00BFBB697B60FB689B8B23F008037A
:109334009AB2FB689A83FB689B8B03F01003002BA3
:1093440009D0FB689B8B23F010039AB2FB689A83C5
:109354000123BB600EE0FB689B8B03F02003002B12
:1093640008D0FB689B8B23F020039AB2FB689A8396
:109374000223BB60FB689B8B03F00703FB65BB68A0
:10938400002B7FF426AE00E000BFFB681433FB62C1
:109394007B68FB61F86A09F005FD034683F001036D
:1093A400DBB2002B0DD0F0230C4A0D490D480EF012
:1093B400CEFEF96A0C480EF0CAFEF02107480EF002
:1093C400B6FEFB69BB62BB6A83F31188BFF36F8F80
:1093D40000BF00BF00BF6037BD4680BD2CE3010065
:1093E400A8E4010074E30100C0E40100458D00001D
:1093F4005CE3010094E3010080B590B000AF7860B5
:109404003960002387F83F30002387F83E3000237B
:1094140087F83D30396878680EF03EFDB863BB6B61
:10942400002B01DABB6BBFE07B6814333B634FF066
:109434002003EFF3118283F31288BFF36F8FFA6274
:10944400BB62FB6AFB603B6B7B62786A09F08EFC53
:10945400034683F00103DBB2002B0DD07223544A80
:10946400544955480EF073FE796A54480EF06FFE65
:1094740072214F480EF05BFE00BF3B6B3B62386AC3
:1094840009F0ACFC00BFFB687B617B689B8B03F03D
:1094940007037B637B68DB8B4FF6FF72934203D138
:1094A4006FF00A03BB633BE07B6BBB637B6B022BFC
:1094B40009D1012387F83D307B68DB8B01339AB2F5
:1094C4007B68DA832CE07B6B002B05D07B6B042B51
:1094D40002D07B6B062B0AD17B6B002B0CBF0123C4
:1094E400002387F83E30012387F83F3018E07B6B78
:1094F400052B03D16FF08503BB6311E07B6B012B5C
:109504000BD04FF4E4732E4A2E492B480EF01FFE65
:109514004FF4E4712A480EF00AFE6FF00403BB63B3
:1095240097F83F30002B05D07B683A6811461846FF
:109534000EF04FFC97F83E30002B05D07A690221DB
:109544007868FFF7F5FC2EE07B681433FB617B69D8
:109554003B61F86909F026FC034683F00103DBB2A2
:10956400002B0DD0F023124A174913480EF0EFFDDB
:10957400F96916480EF0EBFDF0210D480EF0D7FD09
:109584003B69BB61BB6983F31188BFF36F8F00BF75
:1095940000BF97F83D30002B05D000237A6B396863
:1095A40078680EF011FDBB6B18464037BD4680BD90
:1095B4002CE301005CE3010074E3010094E3010087
:1095C400ACE3010090E40100A8E40100C0E4010060
:1095D40080B586B000AF7860396000233B6100231A
:1095E4007B6178680EF066FDF8607B683A689A6083
:1095F400FB68032B09D0FB68032B0ED8FB68012BF7
:1096040015D0FB68022B04D007E07B681B687B61E4
:109614000EE07B681B683B610AE04523084A094960
:1096240009480EF094FD452105480EF080FD00BF69
:109634007B6800225A607B6918461837BD4680BD96
:1096440064E5010088E501008CE5010080B584B083
:1096540000AF78607B68002B0AD0074B43F001030E
:10966400FB607B689B01BB60FB68B868984700E0BF
:1096740000BF1037BD4680BD7012020080B400AF39
:10968400044B0122C3F8402500231846BD4680BC84
:10969400704700BF0090034011F07ABD01491022C9
:1096A4000A60704710ED00E072B6404080F3118804
:1096B400BFF36F8FBFF34F8F30BF62B6BFF36F8FAF
:1096C400704700BF72B6494081F31188BFF34F8FD2
:1096D40020BF80F3118862B6704700BF80B483B0A6
:1096E40000AF78607B68013B032B13D801A252F8CA
:1096F40023F000BF099700000D97000011970000A8
:1097040015970000452306E0572304E0492302E0AF
:10971400442300E03F2318460C37BD4680BC704705
:1097240080B584B002AF78600323002B10D00120F1
:10973400FFF7D4FF034618467B681A687B685968AC
:109744007B689B6800930B4601461B480EF022FD84
:109754000323002B10D00120FFF7C0FF0346184657
:109764007B68DA687B6819697B685B6900930B46E0
:10977400014612480EF00EFD0323002B0AD00120EF
:10978400FFF7ACFF034619467B68DB691A460C48B1
:109794000EF000FD0323002B0AD00120FFF79EFFEB
:1097A400034619467B689B691A4606480EF0F2FC8C
:1097B40000BF0837BD4680BDB0E50100E4E5010007
:1097C40018E601002CE6010080B483B000AF034624
:1097D400FB7197F90730002B0BDBFB7903F01F02B9
:1097E400064997F907305B09012000FA02F241F8B3
:1097F400232000BF0C37BD4680BC704700E100E069
:1098040080B483B000AF03463960FB7197F9073029
:10981400002B0ADB3B68DAB20C4997F90730520196
:10982400D2B20B4483F800230AE03B68DAB2084959
:10983400FB7903F00F03043B5201D2B20B441A76B6
:1098440000BF0C37BD4680BC704700BF00E100E09C
:1098540000ED00E080B483B000AF7860084A7B6814
:109864005B0952F823207B6803F01F03012101FAEE
:1098740003F3134018460C37BD4680BC704700BF45
:1098840000E100E080B584B000AFF860B9607A60B0
:10989400BB680133BB60BB68072B10D95C230D4A3E
:1098A4000D490E480EF053FCBB68591E0723FA6895
:1098B4000B480EF04CFC5C2106480EF038FCFB68AB
:1098C4005BB2B9681846FFF79BFF00BF1037BD466F
:1098D40080BD00BF60E6010098E60100B4E6010027
:1098E400D4E6010030BFFFF7FDBF00BF80B400AF76
:1098F400094B0A4A23F07F039360BFF34F8F00BFE5
:1099040000BF00BFBFF36F8F00BF00BF00BF00BF29
:10991400BD4680BC704700BF0080000000ED00E041
:1099240080B400AF054BD3F88830044A23F47003A5
:10993400C2F8883000BFBD4680BC704700ED00E02F
:1099440080B485B000AF7860104B9B687A68C3F828
:1099540094200F4B1A680D4B9B68C3F898200D4B4D
:109964005B680C4A43F0805353600023FB60FB6840
:1099740083F31188BFF36F8F00BF044B9B68D3F848
:10998400983018461437BD4680BC70477CCE002002
:10999400F815020000ED00E019498A6882F89DE09C
:1099A4004FF030001044EFF3098C80E8F01F2020C2
:1099B40080F31288BFF36F8F124F4FF000664A692D
:1099C4008A603E604FF09004141920680E4C2060A9
:1099D40092F99DE0D2F894000023C2F8943080F309
:1099E400118802F1300090E8F01F8CF3098802F12D
:1099F400000004B50EF032FCBDE8044070470000DE
:109A04007CCE002004ED00E020C900201EF0040FED
:109A14000CBFEFF30880EFF30980816911F8021C91
:109A24000229FFD001B50EF0DAFB01BD80B487B086
:109A340000AFF860B9607A603B607B68203B7B6173
:109A4400164A7B699A617B699B6923F001027B69F1
:109A54009A613A687B691A603A6A7B695A607A6AE1
:109A64007B699A60BA6A7B69DA607B694FF08072BD
:109A7400DA617A69FB681A65FB680022C3F89420EE
:109A8400FB680022C3F89C20FB68BC2283F89D205D
:109A940000BF1C37BD4680BC704700BF2D89000045
:109AA40080B586B000AFF860B9607A600EF0E9FB6B
:109AB4000F4AFB689360FB68D3F890300D4A13603B
:109AC400FB68D3F880307B617B6983F30B8800BF2C
:109AD4007B68BA68184682F30988002163B681F36B
:109AE4001188BFF36F8F00220023FEF71DFF00BF14
:109AF4007CCE002020C9002001B5EFF30580A0F141
:109B040010004FEAC0000449014409C99847BDE860
:109B14000140024908470000B4D90100D19B00006C
:109B240080B483B000AF0F4A0F4B1344013B0E4A7D
:109B3400B3FBF2F30C4A02FB03F37B600B4A0C4BBE
:109B44001344013B0A4AB3FBF2F3094A02FB03F351
:109B54003B607A683B68134418460C37BD4680BCAA
:109B6400704700BF00000000010000000800000072
:109B74000400000080B584B000AF78600F4BFB6038
:109B84000F4BBB60FA680F49786813F06CFE0E4BFC
:109B94005A1EFB6813440C4AB3FBF2F30A4A02FB55
:109BA40003F37A6813447B60BA680021786813F081
:109BB40067FE00BF1037BD4680BD00BF0000000037
:109BC4000800000024DC010001000000044B996837
:109BD4005869884203D003494FF080520A607047A5
:109BE4007CCE002004ED00E080B483B000AF786048
:109BF4007B68013B032B13D801A252F823F000BF6A
:109C0400159C0000199C00001D9C0000219C000074
:109C1400452306E0572304E0492302E0442300E0FF
:109C24003F2318460C37BD4680BC704780B588B0CA
:109C340000AFF860B9607A601023FB616FF0150320
:109C4400BB610323002B07D00120FFF7CDFF0346A0
:109C5400194661480EF09EFA604B9B6A03F01003AC
:109C6400002B0CD01123FB610323002B07D0012010
:109C7400FFF7BAFF0346194659480EF08BFA574BC3
:109C84009B6A03F00803002B0CD01223FB6103230F
:109C9400002B07D00120FFF7A7FF034619465148C0
:109CA4000EF078FA4D4B9B6A03F00203002B2CD084
:109CB4001323FB610323002B07D00120FFF794FF3C
:109CC4000346194648480EF065FA444B5B6B7B61CA
:109CD400424B9B6A03F08003002B16D07B69BB6167
:109CE4000323002B08D00120FFF77EFF0346BA6947
:109CF40019463E480EF04EFABB68002B05D0374B90
:109D04009B6A364A23F080039362344B9B6A03F0C8
:109D14000103002B0CD01423FB610323002B07D079
:109D24000120FFF761FF0346194631480EF032FA6D
:109D34002A4B9B6A03F02003002B0CD01523FB61F4
:109D44000323002B07D00120FFF74EFF03461946DB
:109D540028480EF01FFA214B9B6A03F01003002BD6
:109D640005D11E4B9B6A03F00203002B14D01B4B3E
:109D74009B6A03F01003002B0ED040F263131E4ABB
:109D84001E491F480EF0E3F91E480EF0E0F940F2B8
:109D9400631119480EF0CBF9104B9B6A03F02003B2
:109DA400002B05D00D4B5B6A0C4A23F4005353621D
:109DB4000A4B9B6A094A43F0FF0393620121F86846
:109DC4000EF08DFA03461A467B681A70FB69184632
:109DD4002037BD4680BD00BF14E7010000ED00E060
:109DE40030E7010068E7010080E70100A0E7010017
:109DF400BCE70100E0E7010014E8010050E80100BD
:109E04009CE80100BCE8010080B586B000AFF860B2
:109E1400B9607A6016237B610323002B07D00120ED
:109E2400FFF7E2FE0346194653480EF0B3F9534BCD
:109E34009B6A03F48053002B0CD017237B6103230C
:109E4400002B07D00120FFF7CFFE034619464C48EC
:109E54000EF0A0F9494B9B6A03F40063002B0CD06D
:109E640018237B610323002B07D00120FFF7BCFEDE
:109E74000346194643480EF08DF9404B9B6A03F4A0
:109E84000073002B2AD019237B610323002B07D0F6
:109E94000120FFF7A9FE034619463B480EF07AF964
:109EA400364B9B6B3B61354B9B6A03F40043002BA1
:109EB40014D00323002B08D00120FFF795FE03469E
:109EC4003A69194631480EF065F9BB68002B05D094
:109ED4002A4B9B6A294A23F400439362274B9B6ACB
:109EE40003F48063002B0CD01A237B610323002B23
:109EF40007D00120FFF778FE0346194624480EF0E8
:109F040049F91E4B9B6A03F48073002B0DD01B236D
:109F14007B610323002B1BD00120FFF765FE034662
:109F240019461C480EF036F912E0144B9B6A03F4F0
:109F34000053002B0CD01C237B610323002B07D080
:109F44000120FFF751FE0346194613480EF022F98B
:109F54000A4B9B6A094A43F47F4393620121F868E0
:109F64000EF0BDF903461A467B681A707B691846E1
:109F74001837BD4680BD00BF20E9010000ED00E0B8
:109F84003CE9010068E7010054E9010074E90100BB
:109F940090E90100B0E90100E0E7010080B584B078
:109FA40000AF78601D23FB600323002B07D0012042
:109FB400FFF71AFE034619464B480EF0EBF84B4BDD
:109FC4009B6A03F00073002B0CD01E23FB60032359
:109FD400002B07D00120FFF707FE0346194644482B
:109FE4000EF0D8F8414B9B6A03F08073002B0CD021
:109FF4001F23FB600323002B07D00120FFF7F4FD90
:10A00400034619463B480EF0C5F8384B9B6A03F4E7
:10A014008013002B0ED02023FB600323002B07D0DA
:10A024000120FFF7E1FD0346194633480EF0B2F86C
:10A034000223FB602D4B9B6A03F40023002B0CD0FE
:10A044002123FB600323002B07D00120FFF7CCFD65
:10A054000346194629480EF09DF8244B9B6A03F4E5
:10A064008023002B0CD02223FB600323002B07D07A
:10A074000120FFF7B9FD0346194621480EF08AF87E
:10A084001A4B9B6A03F40033002B0CD02323FB6090
:10A094000323002B07D00120FFF7A6FD0346194632
:10A0A40018480EF077F8114B9B6A03F48033002BA9
:10A0B4000CD02423FB600323002B07D00120FFF7DF
:10A0C40093FD0346194610480EF064F8074B9B6A4B
:10A0D400064A6FEA03436FEA13439362FB68184628
:10A0E4001037BD4680BD00BFD0E9010000ED00E09F
:10A0F400F0E9010008EA010028EA010058EA010039
:10A104007CEA0100A8EA0100C8EA010080B582B037
:10A1140000AF786039603B6800221A700323002B7B
:10A1240007D00120FFF760FD0346194603480EF0EF
:10A1340031F800BF0837BD4680BD00BFF8EA010012
:10A1440080B485B000AF78607B689B69FB601B4B73
:10A154005B691A4A43F480735361BFF34F8F00BFA6
:10A1640000BF00BFBFF36F8F00BF00BF00BFFB681D
:10A1740033F8023C7B81114B5B69104A23F48073F2
:10A184005361BFF34F8F00BF00BF00BFBFF36F8F9A
:10A1940000BF00BF00BF7B8903F47F43B3F55F4F6B
:10A1A40005D17B89DBB2022B01D1012300E000231E
:10A1B40018461437BD4680BC704700BF00ED00E070
:10A1C40080B584B000AF786039600023FB6003235E
:10A1D400002B07D00120FFF707FD034619464C4822
:10A1E4000DF0D8FF3B6800221A704A4BDB6A03F07B
:10A1F4000203002B0CD00323002B00F084800120E9
:10A20400FFF7F2FC0346194643480DF0C3FF7AE01A
:10A21400404BDB6A002B0BDA0323002B73D00120A5
:10A22400FFF7E2FC034619463C480DF0B3FF6AE031
:10A23400384BDB6A03F08043002B55D00323002BFB
:10A2440007D00120FFF7D0FC0346194634480DF02F
:10A25400A1FF7868FFF774FF0346002B11D0032396
:10A26400002B0AD00120FFF7BFFC034619467B6888
:10A274001B681A462B480DF08DFF7B681B68FB603A
:10A2840041E0244B9B6ADBB2002B06D03A680121E3
:10A294007868FFF7CBFCF86035E01E4B9B6A03F44B
:10A2A4007F43002B07D03A6801217868FFF7ACFDA3
:10A2B4000346FB6027E0174B9B6AB3F5803F04D34A
:10A2C4007868FFF76BFEF8601DE040F22A33164A07
:10A2D400164917480DF03BFF16480DF038FF40F2C1
:10A2E4002A3111480DF023FF40F22E330E4A0F4954
:10A2F4000F480DF02CFF10480DF029FF40F22E31CD
:10A3040009480DF014FFFB6818461037BD4680BDA0
:10A3140024EB010000ED00E040EB010068EB0100DC
:10A324007CEB0100A0EB010014E80100C4EB010088
:10A334009CE80100C8EB0100ECEB010080B582B0A1
:10A3440000AF786039600323002B0FD00120FFF7A2
:10A354004BFC034619463B680F2B01DC054A00E021
:10A36400054A3B68103B05480DF014FF00BF083751
:10A37400BD4680BD1CEC010034EC010050EC010032
:10A3840080B586B000AFF860B9607A6000237B6165
:10A394007B6800221A70BB68033B092B35D801A2E5
:10A3A40052F823F0D1A30000DDA30000EBA30000CA
:10A3B400FBA300000FA400000FA400000FA40000E2
:10A3C4000FA400000FA4000005A400007968F86839
:10A3D400FFF7F6FE78611DE07A680021F868FFF760
:10A3E40025FC786116E07A680021F868FFF70CFD17
:10A3F40003467B610EE0F868FFF7D0FD786109E061
:10A404007968F868FFF782FE04E0B968F868FFF736
:10A4140095FF00BF7B681B7883F00103DBB2002B40
:10A4240003D0B968F8680DF050FF7B6918461837F7
:10A43400BD4680BD80B586B000AFF860B9607A6073
:10A444003B600023FB7500233B613B6800221A70CC
:10A454007B6803F07F43B3F17F4F01D0002336E0E4
:10A464007B6803F00103002B01D000232FE07B68FD
:10A4740003F04003002B16D00123FB750323002BAC
:10A4840007D00120FFF7B0FB0346194612480DF030
:10A4940081FE7B6803F00403002B02D0BB683B61A0
:10A4A40001E0FB683B61FB7D83F00103DBB2002B21
:10A4B4000CD07B6803F00803002B02D0BB683B611F
:10A4C40004E0FB683B613B6801221A703B69184653
:10A4D4001837BD4680BD00BF68EC010080B592B05E
:10A4E40000AFF860B9607A603B6000237B642D4B59
:10A4F4005B68C3F308033B640023BB63BB6B83F358
:10A504001188BFF36F8F00BF07F136037A68B9680B
:10A51400F868FFF78FFFF863FB6B002B0ED14FF445
:10A524008B63214A214922480DF011FE21480DF088
:10A534000EFE4FF48B611C480DF0F9FD07F1370353
:10A544001A46396CF86BFFF71BFF786497F83730BD
:10A55400002B23D107F114032022F96B184613F0C2
:10A5640082F997F83630002B0BD03B6BC3F308030A
:10A57400002B0CD13B6B6FEA53236FEA43233B63FD
:10A5840005E03B6B23F4FF7323F001033B6307F106
:10A5940014031946786C0DF00FFE00E000BF483735
:10A5A400BD4680BD00ED00E014E8010090EC010020
:10A5B4009CE80100A4EC010080B400AF074B5B6988
:10A5C400064A43F010035361044B5B69034A43F4A6
:10A5D4008063536100BFBD4680BC704700ED00E05E
:10A5E400EFF30880EFF3098101B57246FFF776FFB8
:10A5F40001BD00BF80B483B000AF03463960FB7176
:10A6040097F90730002B0ADB3B68DAB20C4997F95B
:10A6140007305201D2B20B4483F800230AE03B68AE
:10A62400DAB20849FB7903F00F03043B5201D2B2BA
:10A634000B441A7600BF0C37BD4680BC704700BF80
:10A6440000E100E000ED00E0002080F31488BFF397
:10A654006F8F002080F30A8880F30B88FFF71CF8C3
:10A6640000200E490860BFF34F8F0D4880F308881F
:10A6740000F046F8202080F311880A484FF4006166
:10A68400401880F30988EFF314800221084380F313
:10A694001488BFF36F8F0DF0D3FD000094ED00E03C
:10A6A400E0D2002020D4002080B582B000AF7860D2
:10A6B400796803480DF048FE00BF0837BD4680BDE9
:10A6C40090ED00E080B582B000AF0C4B1B681B0A14
:10A6D400DBB23B6000237B6006E07B681846FFF733
:10A6E400E3FF7B6801337B607A683B689A42F4DB62
:10A6F40000BF00BF0837BD4680BD00BF90ED00E03D
:10A7040080B582B000AF72B600BF00233B603B68E7
:10A7140083F3138800BFFFF7D5FF0023FB7109E023
:10A72400164AFB7920334FF0FF3142F82310FB79AE
:10A734000133FB71FB790F2BF2D90023BB7109E0C4
:10A744000E4ABB7960334FF0FF3142F82310BB79D6
:10A754000133BB71BB790F2BF2D962B600BFBFF3D3
:10A764004F8F00BF00BF00BFBFF36F8F00BF00BF9C
:10A7740000BF00BF0837BD4680BD00BF00E100E058
:10A7840080B584B000AF7860114B9B687A689A42B8
:10A7940016D1EFF30583FB60FB68002B14BF012384
:10A7A4000023DBB2002B0BD00A4B5B68094A43F051
:10A7B40080535360074B5B6A064A23F40043536299
:10A7C40078680BF025FB00BF1037BD4680BD00BF85
:10A7D4007CCE002000ED00E080B584B000AF0D4ACF
:10A7E4000D4B01210D4800F093FB3B1D00221A6024
:10A7F4005A609A600A4B7B60074A094BD31ABB60C4
:10A804003B1D0121184600F0B3FB00BF1037BD46C5
:10A8140080BD00BF80C5002000000420D0120200CB
:10A8240070C7002080B483B000AF78607B68013BC0
:10A83400032B13D801A252F823F000BF51A8000043
:10A8440055A8000059A800005DA80000452306E0B3
:10A85400572304E0492302E0442300E03F23184641
:10A864000C37BD4680BC704780B483B000AF7860BD
:10A87400034A7B68136300BF0C37BD4680BC704736
:10A8840090ED00E080B483B000AF7860034A7B6849
:10A89400936000BF0C37BD4680BC704790ED00E06C
:10A8A40080B483B000AF7860034A7B68D36000BF94
:10A8B4000C37BD4680BC704790ED00E080B400AF1B
:10A8C400024BDB681846BD4680BC704790ED00E043
:10A8D40080B483B000AF7860034A7B68136100BF23
:10A8E4000C37BD4680BC704790ED00E080B400AFEB
:10A8F400024B1B691846BD4680BC704790ED00E0D2
:10A9040080B500AF0248FFF7AFFF00BF80BD00BFB6
:10A91400AAFF440090B587B004AF786039603B6803
:10A924001B6823F01F033A68127AC2F30402D2B2FE
:10A9340043EA02013B68DB6823F01F023B681B7A91
:10A94400C3F34213DBB25B0003F00E03134343F083
:10A9540001031A4678680DF022FD0323032B1DD949
:10A964000420FFF75FFF03461C463B681A683B68F8
:10A974001B7AC3F30403DBB219463B681B7AC3F3A7
:10A984004213DBB218463B68DB68029301900091E6
:10A9940013467A68214603480DF0FCFB00BF0C37D0
:10A9A400BD4690BDE8EC010080B58CB000AF786086
:10A9B400084611461A460346FB700B46BB70134605
:10A9C4007B70BB78FB620023BB626FE1BA6A1346FB
:10A9D4005B0013449B001A467B6813445B68002B9E
:10A9E40000F060817B78002B1CD0BA6A13465B00B0
:10A9F40013449B001A467B68134418460DF0E2FC8E
:10AA04000346002B0ED10323002B08D00120FFF7AF
:10AA140009FF0346BA6A1946A9480DF0BBFB6FF05B
:10AA2400150349E1BA6A13465B0013449B001A46B6
:10AA34007B6813441868BA6A13465B0013449B008E
:10AA44001A467B6813445B6819460DF0DBFC786298
:10AA54007B6A13F1160F03D0FA6A7B6A9A420EDC02
:10AA64000323002B08D00120FFF7DCFE03467A6A9B
:10AA7400194694480DF08EFB6FF015031CE17B6AB8
:10AA840018460DF0DEFC38627B6A18460DF001FDB5
:10AA9400F861BA6A13465B0013449B001A467B684C
:10AAA40013441968BA6A13465B0013449B001A46A0
:10AAB4007B6813445B680B44013BBB61BA6A134671
:10AAC4005B0013449B001A467B6813441B683A6A74
:10AAD4009A4211D1BA69FB699A420DD17B6AD8B204
:10AAE400BA6A13465B0013449B001A467B681344FE
:10AAF400194600F0B5F9D6E0BA6A13465B00134470
:10AB04009B001A467B6813441B683A6A9A422ED10A
:10AB1400786ABA6A13465B0013449B001A467B6842
:10AB240013441968BA6A13465B0013449B001A461F
:10AB34007B6813445B680B4419460DF092FCFB6A76
:10AB4400D8B2BA6A13465B0013449B001A467B686A
:10AB54001344194600F084F9F862FB6A13F1160FE6
:10AB640001D1FB6AA8E0FB6A0133FB629BE0BA698E
:10AB7400FB699A4225D1786ABA6A13465B0013448A
:10AB84009B001A467B6813441B68013B19460DF071
:10AB940090FCFB6AD8B2BA6A13465B0013449B006C
:10ABA4001A467B681344194600F05AF9F862FB6AA6
:10ABB40013F1160F01D1FB6A7EE0FB6A0133FB62DD
:10ABC40071E0786ABA6A13465B0013449B001A4624
:10ABD4007B6813441B68013B19460DF06AFCFB6A51
:10ABE400D8B2BA6A13465B0013449B001A467B68CA
:10ABF4001344194600F034F9F862FB6A13F1160F96
:10AC040001D1FB6A58E0FB6A0133FB627A6A07F1FF
:10AC140008030833194610460DF063FCBA6A13465C
:10AC24005B0013449B001A467B6813441968BA6A94
:10AC340013465B0013449B001A467B6813445B680D
:10AC44000B44BB60BA6A13465B0013449B001A466C
:10AC54007B6813441968BA6A13465B0013449B006B
:10AC64001A467B6813445B680B4423F01F02F9699E
:10AC7400BB69CB1A1344013B23F01F037B61FB6ABE
:10AC8400DBB207F108021146184600F0B1F8F86289
:10AC9400FB6A13F1160F01D1FB6A0DE0FB6A013365
:10ACA400FB6200E000BFBB6A0133BB62FB78BA6A97
:10ACB4009A42FFF68BAEFB6A18463037BD4680BD1C
:10ACC40010ED010038ED010080B586B000AFF860EA
:10ACD4007A603B600B46FB72094B1B787B617B6996
:10ACE400DAB2F97A0123F868FFF75EFE78617B69CE
:10ACF400DAB2034B1A707B6918461837BD4680BD1B
:10AD0400CCCE002080B584B000AF78600B46FB70D9
:10AD14000023FB605EE0FA6813465B0013449B006B
:10AD24001A467B6813445B68002B4FD0FA681346BD
:10AD34005B0013449B001A467B6813441868FA6846
:10AD440013465B0013449B001A467B6813445B68FC
:10AD540019460DF057FB01462348FA6813469B0039
:10AD640013449B00034419601F49FA6813469B006F
:10AD740013449B000B441B6813F1160F02D16FF0B0
:10AD840015032CE01849FA6813469B0013449B00F2
:10AD94000B441B68154A1278934202DB6FF01503CB
:10ADA4001DE01149FA6813469B0013449B000B44B1
:10ADB4001B681846FA6813469B0013449B000A4A12
:10ADC4001344043319460DF0AFFB00E000BFFB68E9
:10ADD4000133FB60FB78FA689A429CDB0023184637
:10ADE4001037BD4680BD00BF24C90020CCCE002052
:10ADF40090B583B000AF03463960FB71FC790DF068
:10AE0400DDFB0346013B9C420FD90323002B09D0F1
:10AE14000120FFF707FD03461946FB791A460E4841
:10AE24000DF0B8F96FF0150312E00323032B09D9D1
:10AE34000420FFF7F7FC03461946FB791A46074836
:10AE44000DF0A8F9FB7939681846FFF763FDFB7923
:10AE540018460C37BD4690BD60ED01008CED010035
:10AE640090B587B000AF03463960FB710323032B11
:10AE740009D90420FFF7D6FC03461946FB791A4684
:10AE84000F480DF087F93B681B68BB603B6803F112
:10AE940008013B681A683B685C6807F1080303F122
:10AEA400080023460DF060FB07F10802FB79114608
:10AEB4001846FFF79DFF034618461C37BD4690BD54
:10AEC400B4ED010080B400AF084B05225A60BFF313
:10AED4004F8F00BF00BF00BFBFF36F8F00BF00BF25
:10AEE40000BF00BFBD4680BC704700BF90ED00E0CE
:10AEF40080B400AFBFF35F8F00BF00BF00BF034B40
:10AF040000225A6000BFBD4680BC704790ED00E04F
:10AF140080B584B000AFF8607A603B600B46FB728A
:10AF2400F97A3B687A68F868FFF7CEFE034613F1B6
:10AF3400160F10D140F21B13094A0A490A480DF0B2
:10AF440006F9FB7A194609480DF001F940F21B1184
:10AF540003480DF0ECF800BF1037BD4680BD00BFBC
:10AF6400DCED010014EE010018EE010038EE0100E2
:10AF740080B582B000AF78600B46FB70FB78194651
:10AF84007868FFF7BFFE034613F1160F10D140F2A5
:10AF94002B13094A09490A480DF0D9F8FB781946D8
:10AFA40008480DF0D4F840F22B1103480DF0BFF817
:10AFB40000BF0837BD4680BDDCED010014EE010082
:10AFC40018EE010064EE010090B583B000AF334B7E
:10AFD4001C680DF0F3FA03469C4215D94FF4A9738B
:10AFE4002F4A304930480DF0B2F82C4B1C680DF054
:10AFF400E5FA03461A4621462C480DF0A8F84FF40A
:10B00400A97127480DF093F80323032B0CD90420CE
:10B01400FFF708FC03461C460DF0D0FA03461A4617
:10B02400214623480DF0B6F8FFF762FFFFF768FCEE
:10B0340000237B600BE0194B5A687B681B011344A7
:10B0440019467868FFF766FC7B6801337B60134B15
:10B054001B687A689A42EED3104B1B68DAB2154B20
:10B064001A70FFF72FFF144B1B681B0ADBB2102B5F
:10B074000ED04FF4DE730A4A10490B480DF067F8FE
:10B084000F480DF064F84FF4DE7105480DF04FF8E9
:10B09400002318460C37BD4690BD00BFFC120200C9
:10B0A400DCED010014EE010018EE0100C4EE010015
:10B0B400F8EE0100CCCE002090ED00E014EF01008A
:10B0C40068EF010080B582B000AF78603960044B4E
:10B0D4001B6878689847002318460837BD4680BD2A
:10B0E40038C9002080B483B000AF7860074A7B6819
:10B0F4001360074B9B7843F00203DAB2044B9A7057
:10B1040000BF0C37BD4680BC704700BF38C9002063
:10B1140054C6002080B582B000AF00237B600C4B86
:10B12400073323F007037B60094B073323F007033E
:10B13400C3F1005303F580233B603A6879680548FE
:10B14400FDF732FD002318460837BD4680BD00BF19
:10B154002CDE002020DE00202DE9F04FBDB000AF32
:10B16400C7E93001D7E93023C7E93A234FF47A73AA
:10B17400C7F8E4304FF40043C7F8E030012387F800
:10B18400DF30002387F8DE30012387F8DD30002329
:10B1940087F8DC3097F8DF30002B14D0D7F8E420A0
:10B1A400D7F8E0309A420ED2D7F8E010D7F8E4305E
:10B1B400B1FBF3F2D7F8E43002FB03F3CB1A002B14
:10B1C40001D1012300E0002387F8DB3097F8DB305E
:10B1D40003F0010387F8DB3097F8DF30002B14D03D
:10B1E400D7F8E420D7F8E0309A420ED9D7F8E41023
:10B1F400D7F8E030B1FBF3F2D7F8E03002FB03F309
:10B20400CB1A002B01D1012300E0002387F8DA30A8
:10B2140097F8DA3003F0010387F8DA30D7F8E4203E
:10B22400D7F8E0309A420CD197F8DE30002B05D0E5
:10B23400D7F8E83000221C461546DEE1D7E93A4546
:10B24400DBE14FF000024FF00003C7E9342397F825
:10B25400DB3083F00103DBB2002B2AD097F8DA301D
:10B26400002B06D0D7F8E420D7F8E030B2FBF3F394
:10B2740001E0D7F8E430C7F8CC3097F8DD30002B84
:10B2840009D0D7F8CC30013B00223B617A61D7E981
:10B294000423C7E9342397F8DC30002B09D0D7F80E
:10B2A400CC305B080022BB60FA60D7E90223C7E90F
:10B2B400342397F8DA30002B38D0D7E93A01D7E9AC
:10B2C400342386183E6041EB03037B60D7E90023F7
:10B2D400C7E93A2397F8DE30002B11D0D7E93A2397
:10B2E400012B0DD2D7F8E820D7F8E410D7F8E030D6
:10B2F400B1FBF3F3B2FBF3F300221C4615467CE1E9
:10B30400D7F8E420D7F8E030B2FBF3F30022C7F813
:10B314009830C7F89C20D7E92623D7E93A01FCF7EF
:10B324000FFF02460B4614461D4666E197F8DB30D4
:10B33400002B31D097F8DE30002B0DD0D7F8E83051
:10B34400D7F8E010D7F8E420B1FBF2F202FB03F3E4
:10B3540000221C46154650E1D7F8E020D7F8E43027
:10B36400B2FBF3F30022C7F89030C7F89420D7F863
:10B37400E830D7E924894A4602FB03F2D7F8EC30D7
:10B38400414601FB03F31344D7F8E8204146A2FBEE
:10B3940001452B441D4630E197F8DE30002B35D0B3
:10B3A400D7F8E0300022C7F88830C7F88C20D7F8E7
:10B3B400E830D7E922AB5A4602FB03F2D7F8EC3067
:10B3C400514601FB03F31344D7F8E8205146A2FB8E
:10B3D40001894B449946D7E9342318EB0201C7F895
:10B3E400801049EB0303C7F88430D7F8E430002217
:10B3F400BB67FA67D7E91E23D7E92001FCF7A0FE53
:10B4040002460B46002314461D46F6E097F8DF304B
:10B41400002B00F08280D7F8E43000223B677A6783
:10B424007A4BD7E91C894A4603FB02F200234146C2
:10B4340001FB03F31A44754B4146A1FB03AB02EB3A
:10B444000B039B46BAF10203BB664BF10003FB6698
:10B454004FF0FF324FF00003D7E91A01FCF770FEFA
:10B4640002460B4610461946D7F8E03000223B66E8
:10B474007A66D7E91889434603FB01F24B4600FB81
:10B4840003F313444246A0FB0221C7F8BC10C7F8DB
:10B49400B820D7F8BC201344C7F8BC30D7F8BC3068
:10B4A400012B3AD2D7F8E0300022BB65FA65D7F811
:10B4B400E830D7E916452A4602FB03F2D7F8EC3008
:10B4C400214601FB03F31344D7F8E8202146A2FBED
:10B4D4000121C7F8B410C7F8B020D7F8B42013443A
:10B4E400C7F8B430D7E93423D7E92C452146891865
:10B4F4003965294643EB01017965D7F8E430002228
:10B50400BB64FA64D7E91223D7E91401FCF718FEE7
:10B5140002460B4614461D466FE0D7F8E43000227D
:10B524003B647A64D7E91023D7E93A01FCF708FEB3
:10B5340002460B4610461946D7F8E0300022BB639A
:10B54400FA63D7E90E89434603FB01F24B4600FB3D
:10B5540003F313444246A0FB0221C7F8AC10C7F81A
:10B56400A820D7F8AC201344C7F8AC30D7F8E4309F
:10B5740000223B637A63D7E93A01D7E90C23FCF74D
:10B58400DFFD10461946D7F8E0300022BB62FA62AC
:10B59400D7E90A89434603FB01F24B4600FB03F358
:10B5A40013444246A0FB0221C7F8A410C7F8A02008
:10B5B400D7F8A4201344C7F8A430D7E93423D7E933
:10B5C4002889414689183962494643EB0101796269
:10B5D400D7F8E4300022BB61FA61D7E90623D7E942
:10B5E4000801FCF7ADFD02460B46D7E92A8941461E
:10B5F4008C18494643EB01010D4622462B46104662
:10B604001946F437BD46BDE8F08F00BF8033E10131
:10B6140080B483B000AF0346FB7197F90730002B69
:10B624000CDBFB7903F01F02074997F907305B092C
:10B63400012000FA02F2603341F8232000BF0C37E6
:10B64400BD4680BC704700BF00E100E080B400AF9D
:10B65400084B1B78002B14BF01230023DBB283F0BB
:10B664000103DBB203F00103DBB21846BD4680BC24
:10B67400704700BFDCCE002080B586B000AF786094
:10B684007B68002B0BD14FF485730B4A0B490C4894
:10B694000CF05DFD4FF4857107480CF048FD7B68A4
:10B6A4001A4600231360536093607B6801225A603A
:10B6B40000BF1837BD4680BD9CEF0100CCEF0100F0
:10B6C400E4EF010080B586B000AFF8600B467A6005
:10B6D400FB72FB7A002B02D0012B17D02DE0FB6804
:10B6E400D3F8183403F48033002B14BF0123002350
:10B6F400FB757B68002B2CD0FB68D3F81834DBB2C5
:10B7040003F00303DAB27B681A7022E0FB68D3F813
:10B714000C3403F48033002B14BF01230023FB7586
:10B724007B68002B17D0FB68D3F80C34DBB203F032
:10B734000103DAB27B681A700DE040F2CB33094A98
:10B7440009490A480CF003FD40F2CB3105480CF0DE
:10B75400EEFC00BF00E000BFFB7D18461837BD4675
:10B7640080BD00BF04F0010038F00100E4EF0100E7
:10B7740080B582B000AF03463960FB71FB793A684B
:10B7840019460448FFF79EFF034618460837BD468E
:10B7940080BD00BF0050004080B483B000AF78602B
:10B7A4007B68013B032B13D801A252F823F000BF9E
:10B7B400C5B70000C9B70000CDB70000D1B700007D
:10B7C400452306E0572304E0492302E0442300E034
:10B7D4003F2318460C37BD4680BC704780B584B003
:10B7E40000AF786039603B68FB73FB7B012B09D9A0
:10B7F4007A230C4A0C490D480CF0A9FC7A2109481B
:10B804000CF095FCFB7B194678680DF005F80346AF
:10B814009B68DBB203F00703DBB218461037BD4662
:10B8240080BD00BF4CF001008CF00100E4EF01008A
:10B8340090B587B000AF78600B46FB70FB78194673
:10B8440078680CF0E9FF78617B691B683B617B6970
:10B854005B68FB607B6900221A607B6908331846C9
:10B864000DF086F80323032B10D90420FFF794FF6F
:10B8740003461C46FB78194678680CF0E3FF034640
:10B884009B681A46214608480CF084FC3B69002B4F
:10B8940005D0FB7819463B69FA687868984700BF79
:10B8A4001C37BD4690BD00BFB0F0010080B483B02A
:10B8B40000AF044B7B607B68483318460C37BD46A9
:10B8C40080BC704740C9002080B586B000AF00231B
:10B8D400FB754FF02003EFF3118283F31288BFF35B
:10B8E4006F8FFA60BB60FB683B61194B1B6843F0C8
:10B8F40002031A46164B1A60154B1B6803F001032A
:10B90400002B0FD0FB1C19460120FFF731FFFB78F9
:10B91400012B07D10123FB75FFF7C8FF0346184627
:10B924000DF026F83B697B607B6883F31188BFF3D5
:10B934006F8F00BFFB7D002B04D000210548FFF76B
:10B9440077FF01E00DF045F81837BD4680BD00BF14
:10B954003CC9002028D9010080B584B000AF4FF065
:10B964002003EFF3118283F31288BFF36F8FBA6061
:10B974007B60BB68FB600D4B1B6823F002030B4A22
:10B9840013600A4B1B6803F00103002B01D10DF077
:10B9940026F8FB683B603B6883F31188BFF36F8F25
:10B9A40000BF00BF1037BD4680BD00BF3CC90020AA
:10B9B40080B588B000AFF860B9607A60BB68FB7787
:10B9C400FB7F1946F8680CF027FFB861FB7F012B59
:10B9D4000BD940F25D13114A114912480CF0B7FB20
:10B9E40040F25D110D480CF0A2FBBB690833796885
:10B9F40018460CF04EFF78617B69002B01DA7B69F5
:10BA040008E0FB7F1946F8680CF01CFF03465B68EE
:10BA14009847002318462037BD4680BD4CF00100EE
:10BA24008CF00100E4EF010090B589B000AF7860BC
:10BA3400396007F10C03FB6007F10C033B61002341
:10BA44007B610123BB6107F10C03104A39687868F4
:10BA54000DF008F8F861FB69002B01DAFB6911E0CD
:10BA64004FF4FA704FF00001FFF776FB02460B46E5
:10BA74001046194607F10C0402460B4620460CF00A
:10BA840013FE034618462437BD4690BD918A010033
:10BA940080B485B000AF7860064BFB60FB687A68C1
:10BAA400D31A5B11BB60BB6818461437BD4680BC13
:10BAB400704700BF40C9002080B584B000AF7860F3
:10BAC40039607868FFF7E4FF0346402219460648C8
:10BAD400FFF76EFFF8603B68F9687868984700BF25
:10BAE4001037BD4680BD00BF28D9010080B586B09F
:10BAF40002AF786039607868FFF7CAFF01464023D7
:10BB040000933B68074A08480CF07EFFF860FB6826
:10BB1400002B03DA3B68F9687868984700BF103750
:10BB2400BD4680BDAF8A010028D9010080B588B028
:10BB340000AF0346FB71FB79012B0AD1474B1B78FD
:10BB4400022B06D146480CF03BFE0346022B00F0C4
:10BB5400818010F05EFE0346002B04D1FFF776FDD2
:10BB64000346002B01D0012300E00023FB77FB7F79
:10BB740003F00103FB77FB7F002B0BD04FF0200376
:10BB8400EFF3118283F31288BFF36F8F7A613B6105
:10BB94007B6900E00023BB61FB7F83F00103DBB220
:10BBA400002B31D002212E480CF0A7FD2CE0FB7FA6
:10BBB400002B04D0BB6918460CF05DFD02E00120A7
:10BBC4000CF03FFD254B1B78022B1DD124480CF0B3
:10BBD400EAFD0346012B17D14FF4827120480CF083
:10BBE400BFFD0346002B0FD04FF482711C480CF0AC
:10BBF400A2FD02211A480CF0C7FD0520FFF708FD3D
:10BC0400082117480CF087FD164B1B7807F10B022F
:10BC140011461846FFF7ACFD034683F00103DBB27F
:10BC2400002BC4D1FA7A0D4B1B789A4202D0FB79CF
:10BC3400012BBCD1FB7F002B07D0BB69FB60FB68E9
:10BC440083F31188BFF36F8F05E0022104480CF0E1
:10BC540046FD00E000BF2037BD4680BDFC15020054
:10BC640000500040FD15020080B584B000AF0346CB
:10BC7400FB7101211F480CF0C6FC0346002B1BD1AD
:10BC840001211D480CF0F3FDF8601C48FFF7F4FC9B
:10BC94001B49F868FDF7B0FBB860BB68002B0BDAF2
:10BCA4004FF40C73174A184918480CF050FA4FF423
:10BCB4000C7114480CF03BFAFB79002B15D0002BC7
:10BCC40007DB013B012B04D8FB791846FFF72EFF55
:10BCD4000CE040F242230B4A0D490C480CF037FAB1
:10BCE40040F2422107480CF022FA00BF1037BD464B
:10BCF40080BD00BF98C9002028D90100A0C9002038
:10BD04009CC900204CF00100C8F00100E4EF0100E0
:10BD140038F0010080B584B000AF0346FB711F4BBF
:10BD2400FB60FB79042B1BD0042B25DC002B02D0F9
:10BD3400012B10D020E00021F8680CF06DFDB860F4
:10BD4400BB689B6803F00703002B21D10021F8682E
:10BD5400FFF76EFD1CE00121F868FFF769FD18E0AC
:10BD640040F26E230E4A0F490F480CF0F0F940F2EE
:10BD74006E210B480CF0DBF940F27223084A0949A2
:10BD840009480CF0E4F940F2722105480CF0CFF9AF
:10BD940000BF00BF1037BD4680BD00BF28D90100D9
:10BDA4004CF0010038F00100E4EF010080B586B0EA
:10BDB40000AF7860002201210520FDF763FD1B48D8
:10BDC40003F0FAFD38613B69194A934202D06FF0DF
:10BDD400040326E00CF081FE03F036FE0023FB751D
:10BDE4001BE0FB7D194678680CF016FDF860FB7DBE
:10BDF400194678680CF03BFD03460E4918460CF0D2
:10BE04006EF8B860BB68002B01DABB6809E0FB6818
:10BE140001229A60FB7D0133FB75FB7D012BE0D988
:10BE2400002318461837BD4680BD00BF19BD000069
:10BE34000000AD0B3813020080B582B000AF78600B
:10BE4400174B18460CF09DFE0346002B08D0144BEC
:10BE540018460CF082FE0346002B01DA7B681AE0D8
:10BE64007B680A2B04D10E4B0D2118460CF066FE9C
:10BE74000B4A7B68DBB2194610460CF05FFE084B98
:10BE840018460CF07EFE0346002B03D0044B1846E4
:10BE94000CF06DFE7B6818460837BD4680BD00BFB8
:10BEA40064D9010080B500AF0348FFF71BF90248CD
:10BEB400FCF7B2FC00BF80BD3DBE000080B500AF02
:10BEC400084B18460CF01BFE034683F00103DBB25B
:10BED400002B02D06FF0120302E0FFF7E3FF002310
:10BEE400184680BD64D9010080B584B000AF786085
:10BEF4007B681B6818460CF0C4FE034683F00103FC
:10BF0400DBB2002B0BD040F22F33134A13491448F1
:10BF14000CF01DF940F22F310F480CF008F9002302
:10BF2400FB6078680CF0D2FE0346002B02D10D4B67
:10BF3400FB600BE04FF44E73074A0B4908480CF0C2
:10BF440006F94FF44E7104480CF0F1F8FB681846FA
:10BF54001037BD4680BD00BFF8F001002CF1010090
:10BF640050F101000025844070F1010080B584B0D7
:10BF740000AFF860B9601346FB71BB68002B0CD1AD
:10BF84003A23284A284929480CF0E1F828480CF0BB
:10BF9400DEF83A2123480CF0CAF8BB685B68002B32
:10BFA4000CD13B231F4A234920480CF0D0F82248E7
:10BFB4000CF0CDF83B211B480CF0B9F8F8680CF0F4
:10BFC400E0FE034683F00103DBB2002B13D0BB6811
:10BFD4001946F8680CF060FF034683F00103DBB2F6
:10BFE400002B11D0FB7983F00103DBB2002B0BD0C3
:10BFF4006FF0150311E0FB7983F00103DBB2002B32
:10C0040002D06FF0150308E0FB79002B04D0BB6865
:10C014001946F8680CF0E3FE002318461037BD46B5
:10C0240080BD00BF74F10100B0F1010050F10100C6
:10C03400BCF10100CCF10100E0F1010080B586B053
:10C0440000AFF860B9607A60F8680CF084FE0346CB
:10C05400002B04D0F8680CF07EFE034600E00023B9
:10C064007B617B69002B0ED07B6918460CF0A6FE21
:10C074000346002B05D07B6918460CF09FFE03464F
:10C0840002E0002300E000233B6135E07B699A680D
:10C094007B681340002B19D07B695B68002B0CD1A3
:10C0A4005D23194A19491A480CF051F819480CF043
:10C0B4004EF85D2114480CF03AF87B695B687A69A4
:10C0C40091687A680A407969B86898473B697B61E6
:10C0D4007B69002B0ED07B6918460CF06FFE03467B
:10C0E400002B05D07B6918460CF068FE034602E07D
:10C0F400002300E000233B617B69002BC6D100BF15
:10C1040000BF1837BD4680BD74F10100F8F101008D
:10C1140050F10100E0F1010080B58EB000AFF8608D
:10C124000B467A60FB726C4B7B63002387F83330D9
:10C13400F8680CF0E1FEF862FB7A03F01F02FB6A78
:10C144001B7B5B011343BB6207F123031946B86AE7
:10C1540004F060FA78637B6B5F4A93420CBF01235F
:10C16400002387F833307B6803F44033002B1CD161
:10C17400B86A03F0F5FF97F83330002B13D097F823
:10C184002330184604F01AFB78637B6B524A9342BF
:10C1940009D06C23514A524952480BF0D8FF6C2104
:10C1A4004E480BF0C4FF002392E007F1180300226D
:10C1B4001A605A6007F1180200230021B86A04F0DB
:10C1C4009BF878637B6B444A934202D06FF015036B
:10C1D4007EE097F83330002B13D097F823301846BD
:10C1E40004F0ECFA78637B6B3B4A934209D07F23DB
:10C1F4003A4A3B493B480BF0AAFF7F2137480BF0F2
:10C2040096FF7B6803F40033002B4BD007F1170330
:10C21400194678680CF07BFE78627B6A002B01D0AB
:10C224007B6A55E0FB7D3B757B6803F48033002B10
:10C234000CBF01230023DBB27B7578680CF0C2FECF
:10C244000346BB757B6803F40023002B0AD0FB6A0A
:10C254005A68FB7A012101FA03F3194610460CF0DF
:10C26400F6FC0EE07B6803F48023002B09D0FB6A04
:10C274005A68FB7A012101FA03F3194610460CF0BF
:10C28400F3FC07F1140300221946B86A04F01AF902
:10C2940078637B6B104A934202D06FF0150317E06A
:10C2A400002315E078680CF08DFE034687F82030F3
:10C2B40007F1200100230022B86A04F01DF8786316
:10C2C4007B6B054A934202D06FF0150300E0002314
:10C2D40018463837BD4680BD0000AD0B04F201009E
:10C2E40030F2010050F1010090B58BB000AFF8605E
:10C2F4007A603B600B46FB72FB7A03F01F04F8681C
:10C304000CF0FAFD03461B7B5B0123437B627B68D5
:10C31400B3F5001F04D1786A04F0E2FA00234FE079
:10C3240007F1140300221A605A60396878680CF027
:10C33400E9FE03463B75F8680CF0DEFD03469A6897
:10C34400FB7A22FA03F303F00103002B24D17B6868
:10C35400B3F1A07F20D1786A0CF04DFC0346002B8A
:10C364001AD107F11F031946786A04F053F93862A9
:10C374003B6A154A93420CD107F11F03184604F097
:10C384002FFA38623B6A114A934202D06FF00B03D2
:10C3940016E007F11F03BB6107F11402002300211B
:10C3A400786A03F0A9FF38623B6A084A934202D0D4
:10C3B4006FF0150304E00121786A04F021FA0023E8
:10C3C40018462C37BD4690BD0400AD0B0000AD0BE4
:10C3D40080B485B000AF78600023FB607B68002BDD
:10C3E40001D1044BFB60FB6818461437BD4680BC82
:10C3F400704700BF3CD9010080B584B000AF7860BD
:10C4040004F0CCF90346002B01D0002314E00020F3
:10C4140004F06CF9F860FB68094A934202D06FF0AB
:10C42400040309E00021074804F0E2F80022052192
:10C434003120FDF727FA002318461037BD4680BD8A
:10C444000000AD0B7B91010080B584B000AF786033
:10C454007B681B6818460CF03BFF034683F001031E
:10C46400DBB2002B0BD040F22F33134A134914488C
:10C474000BF06DFE40F22F310F480BF058FE0023F5
:10C48400FB6078680CF049FF0346002B02D10D4B8A
:10C49400FB600BE04FF44E73074A0B4908480BF05E
:10C4A40056FE4FF44E7104480BF041FEFB681846EB
:10C4B4001037BD4680BD00BF50F2010084F2010078
:10C4C400A8F2010000258440C8F2010080B586B0BE
:10C4D40000AF7860084611461A460346FB700B46C7
:10C4E400BB7013467B703B1D1846FFF7ADFF7861A8
:10C4F4007A687B69803253F822303B61114BFB60D0
:10C50400FB68DB433A6913403B61FA78BB785B0014
:10C514001A437B789B001A4397F820301B021A4376
:10C5240097F824301B0413433A6913433B617A6838
:10C534007B698032396943F8221000BF1837BD4641
:10C5440080BD00BF0F07030080B58CB002AFF86058
:10C554000B467A60FB72002387F827304BE197F88B
:10C5640027309B00FA6813441B685B0ADBB203F0B4
:10C574000F0387F8263097F827309B00FA68134496
:10C584001B6803F07F033B624FF0FF33FB613B6AA0
:10C594007F2B02D14FF0FF333B6297F827309B008B
:10C5A400FA6813441B681B0C192B00F2EA8001A2E1
:10C5B40052F823F021C6000037C6000049C6000027
:10C5C4005FC6000071C6000087C600009DC600005B
:10C5D40087C7000087C7000087C7000087C700001F
:10C5E400AFC60000CFC6000087C7000087C70000A1
:10C5F40087C7000087C7000087C7000087C70000FF
:10C6040087C7000087C7000087C70000EFC6000087
:10C6140015C700003BC7000061C700007B683A6A89
:10C62400C3F80C250123FB610123FB760123BB76B0
:10C63400AAE07B683A6AC3F814250023FB7600233A
:10C64400BB76A1E07B683A6AC3F808250123FB6145
:10C654000123FB760123BB7696E07B683A6AC3F834
:10C6640010250023FB760023BB768DE07B683A6AB5
:10C67400C3F808250023FB610123FB760023BB7666
:10C6840082E07B683A6AC3F80C250023FB6101232E
:10C69400FB760123BB7677E07B683A6AC3F8102502
:10C6A4000023FB760023BB766EE07B683A6AC3F80E
:10C6B400082597F82630002B02D1062387F8263068
:10C6C4000023FB760023BB765EE07B683A6AC3F8FE
:10C6D4000C2597F82630002B02D1062387F8263044
:10C6E4000023FB760023BB764EE07B683A6AC3F8EE
:10C6F400602597F827309B00FA6813441B689B0B4E
:10C7040003F00103FB610123FB760123BB763BE0CD
:10C714007B683A6AC3F8642597F827309B00FA6867
:10C7240013441B689B0B03F00103FB610123FB769D
:10C734000123BB7628E07B683A6AC3F8682597F83A
:10C7440027309B00FA6813441B689B0B03F001031A
:10C75400FB610123FB760123BB7615E07B683A6A13
:10C76400C3F86C2597F827309B00FA6813441B68BC
:10C774009B0B03F00103FB610123FB760123BB76D2
:10C7840002E06FF085033DE03B6AB3F1FF3F2DD03B
:10C794003B6A7B61FB69B3F1FF3F03D0F9697869B8
:10C7A4000CF069FD97F827309B00FA6813441B6866
:10C7B40003F40053002B03D00023FB760123BB7644
:10C7C40097F827309B00FA6813441B68DB09DBB237
:10C7D40003F00303D8B2BA7EF97E0023019397F8DD
:10C7E4002630009303467869FFF770FE97F82730E8
:10C7F400013387F8273097F82720FB7A9A42FFF411
:10C80400AEAE002318462837BD4680BD2DE9F04F53
:10C81400BDB000AFC7E93001D7E93023C7E93A23F7
:10C824004FF47A73C7F8E4304FF40043C7F8E030AC
:10C83400012387F8DF30002387F8DE30012387F8EF
:10C84400DD30002387F8DC3097F8DF30002B14D07C
:10C85400D7F8E420D7F8E0309A420ED2D7F8E010A7
:10C86400D7F8E430B1FBF3F2D7F8E43002FB03F37A
:10C87400CB1A002B01D1012300E0002387F8DB3021
:10C8840097F8DB3003F0010387F8DB3097F8DF30EB
:10C89400002B14D0D7F8E420D7F8E0309A420ED910
:10C8A400D7F8E410D7F8E030B1FBF3F2D7F8E03072
:10C8B40002FB03F3CB1A002B01D1012300E0002378
:10C8C40087F8DA3097F8DA3003F0010387F8DA30C2
:10C8D400D7F8E420D7F8E0309A420CD197F8DE304C
:10C8E400002B05D0D7F8E83000221C461546DEE1BF
:10C8F400D7E93A45DBE14FF000024FF00003C7E906
:10C90400342397F8DB3083F00103DBB2002B2AD009
:10C9140097F8DA30002B06D0D7F8E420D7F8E030C7
:10C92400B2FBF3F301E0D7F8E430C7F8CC3097F862
:10C93400DD30002B09D0D7F8CC30013B00223B611D
:10C944007A61D7E90423C7E9342397F8DC30002B54
:10C9540009D0D7F8CC305B080022BB60FA60D7E975
:10C964000223C7E9342397F8DA30002B38D0D7E90B
:10C974003A01D7E9342386183E6041EB03037B6018
:10C98400D7E90023C7E93A2397F8DE30002B11D00A
:10C99400D7E93A23012B0DD2D7F8E820D7F8E410D1
:10C9A400D7F8E030B1FBF3F3B2FBF3F300221C46FB
:10C9B40015467CE1D7F8E420D7F8E030B2FBF3F376
:10C9C4000022C7F89830C7F89C20D7E92623D7E976
:10C9D4003A01FBF7B5FB02460B4614461D4666E1D9
:10C9E40097F8DB30002B31D097F8DE30002B0DD0D8
:10C9F400D7F8E830D7F8E010D7F8E420B1FBF2F22A
:10CA040002FB03F300221C46154650E1D7F8E02050
:10CA1400D7F8E430B2FBF3F30022C7F89030C7F83C
:10CA24009420D7F8E830D7E924894A4602FB03F278
:10CA3400D7F8EC30414601FB03F31344D7F8E82060
:10CA44004146A2FB01452B441D4630E197F8DE30F8
:10CA5400002B35D0D7F8E0300022C7F88830C7F86B
:10CA64008C20D7F8E830D7E922AB5A4602FB03F210
:10CA7400D7F8EC30514601FB03F31344D7F8E82010
:10CA84005146A2FB01894B449946D7E9342318EB5C
:10CA94000201C7F8801049EB0303C7F88430D7F8C4
:10CAA400E4300022BB67FA67D7E91E23D7E92001E7
:10CAB400FBF746FB02460B46002314461D46F6E0F0
:10CAC40097F8DF30002B00F08280D7F8E4300022A2
:10CAD4003B677A677A4BD7E91C894A4603FB02F223
:10CAE4000023414601FB03F31A44754B4146A1FB65
:10CAF40003AB02EB0B039B46BAF10203BB664BF19B
:10CB04000003FB664FF0FF324FF00003D7E91A0130
:10CB1400FBF716FB02460B4610461946D7F8E030E1
:10CB240000223B667A66D7E91889434603FB01F283
:10CB34004B4600FB03F313444246A0FB0221C7F813
:10CB4400BC10C7F8B820D7F8BC201344C7F8BC30D1
:10CB5400D7F8BC30012B3AD2D7F8E0300022BB65BD
:10CB6400FA65D7F8E830D7E916452A4602FB03F2FE
:10CB7400D7F8EC30214601FB03F31344D7F8E8203F
:10CB84002146A2FB0121C7F8B410C7F8B020D7F89A
:10CB9400B4201344C7F8B430D7E93423D7E92C457B
:10CBA400214689183965294643EB01017965D7F88F
:10CBB400E4300022BB64FA64D7E91223D7E91401F4
:10CBC400FBF7BEFA02460B4614461D466FE0D7F843
:10CBD400E43000223B647A64D7E91023D7E93A01B0
:10CBE400FBF7AEFA02460B4610461946D7F8E0307A
:10CBF4000022BB63FA63D7E90E89434603FB01F2C3
:10CC04004B4600FB03F313444246A0FB0221C7F842
:10CC1400AC10C7F8A820D7F8AC201344C7F8AC3040
:10CC2400D7F8E43000223B637A63D7E93A01D7E9C5
:10CC34000C23FBF785FA10461946D7F8E03000229A
:10CC4400BB62FA62D7E90A89434603FB01F24B4609
:10CC540000FB03F313444246A0FB0221C7F8A410CF
:10CC6400C7F8A020D7F8A4201344C7F8A430D7E904
:10CC74003423D7E92889414689183962494643EB68
:10CC840001017962D7F8E4300022BB61FA61D7E987
:10CC94000623D7E90801FBF753FA02460B46D7E906
:10CCA4002A8941468C18494643EB01010D46224628
:10CCB4002B4610461946F437BD46BDE8F08F00BF39
:10CCC4008033E1012DE9F04FBDB000AFC7E9300179
:10CCD400D7E93023C7E93A23A74BC7F8E4304FF428
:10CCE4000043C7F8E030012387F8DF30002387F8DA
:10CCF400DE30012387F8DD30002387F8DC3097F835
:10CD0400DF30002B14D0D7F8E420D7F8E0309A4273
:10CD14000ED2D7F8E010D7F8E430B1FBF3F2D7F82D
:10CD2400E43002FB03F3CB1A002B01D1012300E012
:10CD3400002387F8DB3097F8DB3003F0010387F832
:10CD4400DB3097F8DF30002B14D0D7F8E420D7F885
:10CD5400E0309A420ED9D7F8E410D7F8E030B1FBAE
:10CD6400F3F2D7F8E03002FB03F3CB1A002B01D126
:10CD7400012300E0002387F8DA3097F8DA3003F073
:10CD8400010387F8DA30D7F8E420D7F8E0309A4284
:10CD94000CD197F8DE30002B05D0D7F8E83000220C
:10CDA4001C461546E1E1D7E93A45DEE14FF00002C1
:10CDB4004FF00003C7E9342397F8DB3083F0010315
:10CDC400DBB2002B2AD097F8DA30002B06D0D7F844
:10CDD400E420D7F8E030B2FBF3F301E0D7F8E43015
:10CDE400C7F8CC3097F8DD30002B09D0D7F8CC3019
:10CDF400013B00223B617A61D7E90423C7E934236C
:10CE040097F8DC30002B09D0D7F8CC305B0800222F
:10CE1400BB60FA60D7E90223C7E9342397F8DA3014
:10CE2400002B38D0D7E93A01D7E9342386183E607D
:10CE340041EB03037B60D7E90023C7E93A2397F862
:10CE4400DE30002B11D0D7E93A23012B0DD2D7F8CD
:10CE5400E820D7F8E410D7F8E030B1FBF3F3B2FBE5
:10CE6400F3F300221C4615467FE1D7F8E420D7F8F7
:10CE7400E030B2FBF3F30022C7F89830C7F89C20E7
:10CE8400D7E92623D7E93A01FBF75AF902460B46BC
:10CE940014461D4669E197F8DB30002B31D097F832
:10CEA400DE30002B0DD0D7F8E830D7F8E010D7F8F3
:10CEB400E420B1FBF2F202FB03F300221C46154608
:10CEC40053E1D7F8E020D7F8E430B2FBF3F30022C3
:10CED400C7F89030C7F89420D7F8E830D7E9248908
:10CEE4004A4602FB03F2D7F8EC30414601FB03F358
:10CEF4001344D7F8E8204146A2FB01452B441D46C4
:10CF040033E197F8DE30002B38D0D7F8E030002238
:10CF1400C7F88830C7F88C20D7F8E830D7E922ABB7
:10CF24005A4602FB03F2D7F8EC30514601FB03F3F7
:10CF34001344D7F8E8205146A2FB01894B44994693
:10CF4400D7E9342318EB0201C7F8801049EB030337
:10CF5400C7F88430D7F8E4300022BB67FA67D7E912
:10CF64001E23D7E92001FBF7EBF802460B4600230A
:10CF740014461D46F9E000BF40420F0097F8DF3029
:10CF8400002B00F08280D7F8E43000223B677A67F8
:10CF94007A4BD7E91C894A4603FB02F20023414637
:10CFA40001FB03F31A44754B4146A1FB03AB02EBAF
:10CFB4000B039B46BAF10203BB664BF10003FB660D
:10CFC4004FF0FF324FF00003D7E91A01FBF7B8F82E
:10CFD40002460B4610461946D7F8E03000223B665D
:10CFE4007A66D7E91889434603FB01F24B4600FBF6
:10CFF40003F313444246A0FB0221C7F8BC10C7F850
:10D00400B820D7F8BC201344C7F8BC30D7F8BC30DC
:10D01400012B3AD2D7F8E0300022BB65FA65D7F885
:10D02400E830D7E916452A4602FB03F2D7F8EC307C
:10D03400214601FB03F31344D7F8E8202146A2FB61
:10D044000121C7F8B410C7F8B020D7F8B4201344AE
:10D05400C7F8B430D7E93423D7E92C4521468918D9
:10D064003965294643EB01017965D7F8E43000229C
:10D07400BB64FA64D7E91223D7E91401FBF760F81B
:10D0840002460B4614461D466FE0D7F8E4300022F2
:10D094003B647A64D7E91023D7E93A01FBF750F8E7
:10D0A40002460B4610461946D7F8E0300022BB630F
:10D0B400FA63D7E90E89434603FB01F24B4600FBB2
:10D0C40003F313444246A0FB0221C7F8AC10C7F88F
:10D0D400A820D7F8AC201344C7F8AC30D7F8E43014
:10D0E40000223B637A63D7E93A01D7E90C23FBF7C3
:10D0F40027F810461946D7F8E0300022BB62FA62DE
:10D10400D7E90A89434603FB01F24B4600FB03F3CC
:10D1140013444246A0FB0221C7F8A410C7F8A0207C
:10D12400D7F8A4201344C7F8A430D7E93423D7E9A7
:10D134002889414689183962494643EB01017962DD
:10D14400D7F8E4300022BB61FA61D7E90623D7E9B6
:10D154000801FAF7F5FF02460B46D7E92A8941464A
:10D164008C18494643EB01010D4622462B461046D6
:10D174001946F437BD46BDE8F08F00BF8033E101A6
:10D1840080B400AF084B1B78002B14BF012300238D
:10D19400DBB283F00103DBB203F00103DBB2184618
:10D1A400BD4680BC704700BFDCCE002080B483B095
:10D1B40000AF78607B68013B032B13D801A252F8BF
:10D1C40023F000BFD9D10000DDD10000E1D100007F
:10D1D400E5D10000452306E0572304E0492302E09B
:10D1E400442300E03F2318460C37BD4680BC7047FB
:10D1F40080B584B000AF7860396078680CF09BFA31
:10D20400B8603B68834A934200F0F3803B68814AEC
:10D21400934200F2F2803B68B3F5612F00F0E580A1
:10D224003B68B3F5612F00F2E8803B68B3F5E12F6A
:10D2340000F0D7803B68B3F5E12F00F2DE803B6855
:10D24400754A934200F0C9803B68734A934200F2E6
:10D25400D4803B68B3F5613F00F0BB803B68B3F515
:10D26400613F00F2CA803B68B3F5E13F00F0AD8056
:10D274003B68B3F5E13F00F2C0803B68B3F5963FED
:10D2840000F0A0803B68B3F5963F00F2B6803B689F
:10D29400B3F5614F00F092803B68B3F5614F00F243
:10D2A400AC803B684DF6C022934200F083803B681B
:10D2B4004DF6C022934200F2A0803B68B3F5164FAE
:10D2C40074D03B68B3F5164F00F297803B6847F67D
:10D2D4001222934266D03B6847F61222934200F230
:10D2E4008C803B68B3F5E14F59D03B68B3F5E14F0F
:10D2F40000F283803B68B3F5964F4DD03B68B3F59D
:10D30400964F7AD83B68B3F5615F42D03B68B3F57A
:10D31400615F72D83B68B3F5165F37D03B68B3F5ED
:10D32400165F6AD83B68B3F5965F2CD03B68B3F5BB
:10D33400965F62D83B68B3F5166F20D03B68B3F5AF
:10D34400166F5AD83B68B3F5966F14D03B68B3F5A3
:10D35400966F52D83B68B3F5967F04D03B68B3F51B
:10D36400167F04D049E04FF4A033FB6048E04FF44B
:10D374001C33FB6044E04FF49E23FB6040E04FF419
:10D384001D23FB603CE0254BFB6039E0244BFB6034
:10D3940036E0244BFB6033E0234BFB6030E0234B4F
:10D3A400FB602DE04FF40003FB6029E04FF41D0304
:10D3B400FB6025E04FF46503FB6021E04FF46B0351
:10D3C400FB601DE01A4BFB601AE04FF0EB73FB604F
:10D3D40016E04FF06C73FB6012E04FF08063FB606B
:10D3E4000EE04FF0E863FB600AE04FF07063FB600F
:10D3F40006E04FF08053FB6002E06FF0150304E099
:10D40400F968B8680CF019F9002318461037BD46BE
:10D4140080BD00BF40420F0090D0030000B0130055
:10D424000050270000F03A0000A04E0000C0750034
:10D4340000903A0180B586B000AF78607B681B69C4
:10D444007B6178680CF077F9386178680CF023FB1D
:10D45400F860FB68002B01D0FB685CE07B69DB684B
:10D464000122C3F8C0202E4938690CF059F83869F4
:10D474000CF093F84FF4A67138690CF00AF80346DF
:10D48400002B29D0042138690CF0A1F800BF4FF417
:10D49400A27138690BF0FDFF034683F00103DBB290
:10D4A400002B0AD04FF4927138690BF0F2FF034657
:10D4B40083F00103DBB2002BE9D14FF4A671386984
:10D4C4000BF0D2FF4FF4887138690BF0CDFF4FF4A5
:10D4D400A27138690BF0C8FF7B69DB6880330022D6
:10D4E4001049184610F01FF97B69DB6880337969AD
:10D4F40018460BF0A0FF7B69DB68203300220A4941
:10D50400184610F010F97B69DB68203379691846F6
:10D514000BF091FF002318461837BD4680BD00BFAD
:10D5240010020A003B9F0100199F010080B58CB0D6
:10D5340000AFF860B9607A603B60FB681B69FB620E
:10D54400FB685B68BB62F8680CF0F5F87862BB6A4C
:10D554001B7A002B0ED040F24233634A634964487D
:10D564000AF0F5FD63480AF0F2FD40F242315E48EC
:10D574000AF0DDFDFB6ADB6893F8CA30DBB2002BEE
:10D5840006D1FB6ADB6893F8CB30DBB2002B02D008
:10D594006FF00F03A4E0FB6ADB683A685A673B68E4
:10D5A400B3F5E87F07DD3B68534A82FB0312521050
:10D5B400DB17D31A00E05C23FA6AD2689367FB6A2C
:10D5C400DB68BA689A65FB6ADB687A68DA65FB6AC5
:10D5D400DB6800221A66FB6ADB6800225A66FB6A73
:10D5E400DB6800229A66BB6A5B6803F01003002BB9
:10D5F4003FD0FB6ADB6893F8C930002B39D0FB6A53
:10D60400DB6893F8C9301A467B68934228BF1346F7
:10D614003B62FB6ADB68C4333A6A1946B86810F0A7
:10D6240022F93B6ABA681344BB603B6A7A68D31A2E
:10D634007B607B68002B1CD1FB6ADB6893F8C91004
:10D644003B6ADAB2FB6ADB688A1AD2B283F8C92071
:10D654003B6A1946F8680CF059FBFB6ADB685833DF
:10D664001946F8680CF078FBF8680CF098FB002376
:10D6740036E07A68B968786A0CF00CF84FF488716F
:10D68400786A0BF0F1FE4FF4A671786A0BF0ECFEA9
:10D69400FB6ADB68012283F8CA20BB6A5B6803F07B
:10D6A4001003002B17D04FF02003EFF3118283F304
:10D6B4001288BFF36F8F7A613B617B69FB61022142
:10D6C400F8680CF072F9FB69BB61BB6983F31188DC
:10D6D400BFF36F8F00BF0021786A0BF078FF00233F
:10D6E40018463037BD4680BDDCF2010010F301005E
:10D6F40014F3010034F301006766666680B58CB0EC
:10D7040000AFF860B9607A60F8680CF014F8386219
:10D71400386A0BF0D2FFF861BB68002B02D107F125
:10D72400100300E0BB68FB62BB68002B01D07B6880
:10D7340000E00523BB62BB68002B0BD02E4B1B788B
:10D744007A681946B86810F09BF8BB68FB627B687E
:10D75400BB6204E007F11003FB620523BB62BA6AF3
:10D76400F96A386A0BF096FF4FF48871386A0BF047
:10D774007BFE2C21386A0BF02AFF00BF4FF488711E
:10D78400386A0BF086FE034683F00103DBB2002BFC
:10D79400F4D14FF48871386A0BF066FEBB68002B35
:10D7A40005D1386A0BF089FF0346DBB220E0386A02
:10D7B4000BF083FFB861BA69FB699A4202D0BB6976
:10D7C400DBB215E000237B620DE07B6ABA68134488
:10D7D4001A78094B1B789A4202D0BB69DBB207E086
:10D7E4007B6A01337B627B6ABA6A9A42EDD8002372
:10D7F40018463037BD4680BDFE150200B0B584B072
:10D8040000AF786039603B681C33184602F066FA52
:10D81400F860FB68174A93420DD00323002B07D00E
:10D824000120FFF7C3FC0346194613480AF0B2FC73
:10D834006FF004031AE03B681C7F4FF49071786822
:10D844000BF03BFE05460C2178680BF0D0FE034636
:10D854001A46294620460DF006FD3B681B7F1A46F2
:10D8640001239340184601F0F3FE002318461037B5
:10D87400BD46B0BD0000AD0B50F3010080B483B0D1
:10D8840000AF0346FB7197F90730002B0CDBFB79E3
:10D8940003F01F02074997F907305B09012000FADA
:10D8A40002F2403341F8232000BF0C37BD4680BC50
:10D8B400704700BF00E100E080B483B000AF0346CE
:10D8C400FB7197F90730002B0CDBFB7903F01F0287
:10D8D400074997F907305B09012000FA02F2603327
:10D8E40041F8232000BF0C37BD4680BC704700BF01
:10D8F40000E100E080B582B000AF786039603B6839
:10D90400B3F5805F0BD34FF4C973094A09490A4838
:10D914000AF01DFC4FF4C97105480AF008FC7B6845
:10D924003A68C3F8082500BF0837BD4680BD00BF6C
:10D9340080F30100B4F30100DCF3010080B582B090
:10D9440000AF7860396079683B6823F07F431A46FA
:10D9540003480DF06CF800BF0837BD4680BD00BF1A
:10D964000050014080B582B000AF78607B689BB204
:10D9740050339BB29B009BB2194604480DF094F8B7
:10D98400034618460837BD4680BD00BF005001401D
:10D9940080B582B000AF78607B689BB250339BB295
:10D9A4009B009BB2194603480DF092F800BF08375C
:10D9B400BD4680BD0050014080B582B000AF7860A4
:10D9C4004FF480327B6802FA03F3194603480DF0E2
:10D9D400B1F800BF0837BD4680BD00BF005001400C
:10D9E40080B582B000AF78604FF480327B6802FA71
:10D9F40003F3194603480DF0ABF800BF0837BD46E2
:10DA040080BD00BF0050014080B500AF02480DF05A
:10DA140074F80346184680BD0050014080B584B0B8
:10DA240000AF786001227B6802FA03F3DB431946F6
:10DA340012480CF0DCFFF8604FF480327B6802FA85
:10DA440003F319460E480DF012F8BFF35F8F00BFC1
:10DA540000BF00BFBFF36F8F00BF00BF00BF012234
:10DA64007B689A40FB681340002B14BF01230023FA
:10DA7400DBB218461037BD4680BD00BFC4C90020C4
:10DA84000050014080B582B000AF78600B46FB7057
:10DA9400FB78002B1FD001227B6802FA03F319469E
:10DAA4000F480CF08FFF4FF480327B6802FA03F3C7
:10DAB40019460C480CF0CDFF0B480CF077FF0346D9
:10DAC4001A467B6822FA03F303F00103002B02D009
:10DAD4001520FFF7D3FE00BF0837BD4680BD00BF49
