:10000000F80B0020F1070000C5080000412900009E
:100010004D290000592900007129000065290000C0
:100020000000000000000000000000008910000037
:10003000C50800000000000035100000C5080000E1
:10004000000000000000000000000000AD140000EF
:1000500000000000C50800000000000000000000D3
:10006000C5080000C5080000C5080000C50800005C
:1000700000000000C5080000C5080000C508000019
:10008000C5080000C50800000000000000000000D6
:10009000C5080000C50800000000000000000000C6
:1000A000C50800000000000000000000C5080000B6
:1000B000C5080000C5080000C5080000C50800000C
:1000C000C5080000C5080000C5080000C5080000FC
:1000D000C508000000000000C50800000000000086
:1000E000C508000000000000C50800000000000076
:1000F000C508000000000000000000000000000033
:1001000000000000C5080000000000000000000022
:1001100000000000000000000000000000000000DF
:1001200000000000C5080000000000000000000002
:1001300000000000000000000000000000000000BF
:04014000C5080000EE
:10014400407C0000202E00203E000000A02700007C
:10015400401C002000000000A0270000201C0020FC
:040164000000000097
:10016800202F00209C060000401C0020780400007E
:10017800201C002008000000001C002008000000CF
:1001880000015F5F00000000FE0F00001D1100006D
:100198000004000000000000000000000000000053
:1001A80000000000000000004030002000000000B7
:1001B80001015F5F030100001F01000061020000F0
:1001C800000800000000000001000000010000001D
:1001D800000000000000000088200020000000004F
:1001E80070000000F45B000080000000000F0000B9
:1001F80001000000250300000100000001015F5F0D
:10020800040100001F010000D106000000050000E5
:1002180000000000000000000100000000000000D5
:10022800000000008828002000000000005C00009A
:10023800400000000507000001000000AD050000B7
:0402480001000000B1
:1002600008B500F059F900B108BD00F087F900F0B9
:1002700093F90028F8D1BDE8084002F0C1BD00BFE5
:10028000002110B582B0CDE900111146D0E900423D
:10029000302A3FD194F82C200346022A36D01AB9CE
:1002A00000F064F902B010BD1D482468D0F80404C1
:1002B000013ACDE90040072A2FD8DFE802F02227D3
:1002C0001D18130E090418466A4600F047F9E9E7BD
:1002D00018466A4600F03EF9E4E718466A4600F020
:1002E00035F9DFE718466A4600F02CF9DAE71846D8
:1002F0006A4600F01BF9D5E718466A4600F01EF979
:10030000D0E718466A4600F02DF9CBE7184600F012
:1003100011F9C7E76FF08000C4E76FF08500C1E70F
:10032000401C00202DE9F04F04689FB0002C40F0E5
:10033000EE8081462022214602A802F01DFB2022E9
:1003400021460AA802F018FB3022214612A802F02A
:1003500013FBD9F8182009F118073B464FF0040A9F
:1003600072B9032153F8040D4A1E30B93AB111464F
:1003700053F8040D4A1E0028F8D08A4600E0924641
:10038000D9F828204FF0040B09F1280372B9032192
:1003900053F8040D4A1E40B9002A00F08980114626
:1003A00053F8040D4A1E0028F6D08B46BAF1000F10
:1003B00000F09C8030230021D9F8040012AA02F03A
:1003C00035FB302840F0928012ABBAF1010FCDE935
:1003D000023000F08E8001254E4C02AE09F10C086F
:1003E000019758F8043FD4F80004D91C21F0030108
:1003F000C0F5806E714504EB000701EB000C59D885
:100400002946D9F804003A46C4F800C402F00EFBAD
:100410000135AA45F06046F8087FE2D1019FBBF1A3
:10042000000F68D00AAD29464FF0000CA846D4F85A
:10043000002407EB8B0E57F8046FC2F58060F31CA5
:1004400023F00303834204EB020543D87745C1E957
:1004500000564FF0010C1A4401F10801EBD1D9F814
:100460000830C4F80024C4F8043451465B460AAA94
:1004700002A8FFF705FF45460026074631466B6890
:10048000D9F8040055F8082B013602F0D9FAB34523
:10049000F4D10025D4F8002429461E48C4F8045499
:1004A00002F06AFAC4F8005438461FB0BDE8F08F75
:1004B00093467BE7002102461648C4F8041402F074
:1004C0005BFA6FF08C0700233846C4F800341FB085
:1004D000BDE8F08FBCF1000F01D0C4F8002400216A
:1004E0000C48C4F8041402F047FAEAE76FF08307F7
:1004F000DAE7084C93E7D9F808305146C4F80434D9
:100500000AAA5B4602A8FFF7BBFE0746C1E76FF0E9
:100510008507C9E7401C002008B5282200210248B1
:1005200002F02AFA002008BD482000206FF0850064
:10053000704700BF6FF08500704700BF6FF0850007
:10054000704700BF6FF08500704700BF6FF08500F7
:10055000704700BF6FF08500704700BF6FF08500E7
:10056000704700BF6FF08500704700BFD1E9000100
:1005700002F036BCC0E90021704700BF10B5044C42
:100580000F222046034902F0A3FC204610BD00BF05
:1005900074200020CC07000008B50121024802F0B9
:1005A000BBFB002008BD00BF7020002070B50368B1
:1005B000A6B0B3F57D7F42D040F2F532934220D110
:1005C000002504463C22294607A802950495069575
:1005D0000395059502F0D0F93C22294617A81695F7
:1005E00002F0CAF9A2690321019504F11803002A57
:1005F0005AD153F8042D4E1E002A58D12EB131463F
:10060000F7E76FF0850026B070BD4FF0FF30A26AAB
:10061000042504F1280362B9032153F8042D4D1E6B
:1006200032B935B1294653F8042D4D1E002AF8D0B1
:100630000D462843012807D9012026B070BD00F0DF
:10064000F7FB002026B070BD0423002160680DEB8D
:10065000030202F0EBF9042833D1022E14D000215A
:1006600045B3E369402B2CD816A804AA049001983E
:10067000059300F0EFFBDDE90423054600216068E7
:1006800002F0DEF92846BEE72669402E1CD8334624
:100690000121606806AA02F0C9F9864211D106ABB1
:1006A000029302A90396DBE703200426AFE7304656
:1006B0000E46ACE72A46019800F0CCFB05462846DA
:1006C000A1E76FF080009EE76FF089009BE700BF15
:1006D000002070472DE9F04700249AB004A8049444
:1006E00002F0C8F9002864D007462646DFF8D48017
:1006F000DFF8D49003E0B74204F1180459D0049A0B
:100700000136131919694145F5D10021125908A87C
:100710009D68FFF72FFF2022002112A802F02CF97C
:100720000DF10E0107AACDE90021049B2021181923
:10073000D0F814A006AB05AA0AA8D047034605EBDB
:10074000C505ED0005F1240048444D44002B34D18B
:100750004FF6F8714FF6FF72049BDDF818C0234482
:100760001B698C4588BF94461393DBB2002BDDF8E0
:1007700020E008BF4FF0000E099B20221593079B35
:1007800012A91793BDF80E30ADF84AC0ADF8483045
:10079000CDF850E002F09CFB059A28460AA902F029
:1007A00097FB0123059AB7422A626B6404F118048F
:1007B000A5D100201AB0BDE8F0876FF092001AB002
:1007C000BDE8F08701010080882D00206D6265641E
:1007D00020544C5320332E332E30000000000000F4
:0807E000D82000000100000018
:1007E80000F084BB0000000008B572B62A492B4A05
:1007F8002B4B916083F309882A4B83F30A8883F390
:100808000B88294B22A1D1E90001284CC3E900013A
:1008180000F0C4F8264BA34238BF9C4614D2DCF83B
:1008280008306BB1DCE9001200230439043A51F8AE
:10083800040F013342F8040FDCF808008342F6D3B2
:100848000CF10C0CA445EAD31A481B4B98421BD256
:10085800002403F1FF3CACEB000C00F110032CF07A
:10086800070C08309C4450F8043C53B1002350F85E
:10087800082C043A42F8044F50F8041C01338B4208
:10088800F8D308306045EED102F016F8AFF30080D7
:10089800A5EDF5FEA5EDF5FE0000000000ED00E079
:1008A800F80B002000040020F80B0020680100006D
:1008B800440100006801000088010000FFF790FF74
:1008C800FEE700BFEFF31083012B21D04FF47F0226
:1008D800D2F83031D2F83421BFF34F8FC3F30B0372
:1008E800092B21D0114B186ABFF34F8FA0F1FF30AD
:1008F8004FF47F02B0FA80F0D2F830314009D2F8D4
:100908003421BFF34F8FC3F30B03092B0AD0704771
:10091800064B186ABFF34F8FA0F1FF30B0FA80F092
:100928004009704762B6704772B6DBE70080FF0087
:10093800EFF31083012B1ED04FF47F02D2F8303131
:10094800D2F83421BFF34F8FC3F30B03092B1BD00D
:10095800114BD869BFF34F8F00F001004FF47F02AD
:10096800D2F83031D2F83421BFF34F8FC3F30B03E1
:10097800092B07D07047084BD869BFF34F8F00F099
:100988000100704762B6704772B6034BD869BFF36F
:100998004F8F00F00100E1E70080FF004FF47F0275
:1009A800784908B5D1F8D03043F00203C1F8D03007
:1009B800D2F83031D2F83421BFF34F8FC3F30B0391
:1009C800092B6CD04FF47F02D2F83031D2F83421A1
:1009D800BFF34F8FC3F30B03092B4AD04FF47F02A9
:1009E800D2F83031D2F83421BFF34F8FC3F30B0361
:1009F800092B4DD04FF47F02D2F83031D2F8342190
:100A0800BFF34F8FC3F30B03092B3AD04FF47F0288
:100A1800D2F83031D2F83421BFF34F8FC3F30B0330
:100A2800092B44D00022584907E0D3F80003D3F833
:100A38000433B2F5807F03600BD00868BFF34F8F93
:100A4800D300013003F57F0302F1010201F108012F
:100A5800EBD1EFF31081FFF76BFF80BBFFF732FF9D
:100A680068BB484AD2F88C3043F44063C2F88C30F3
:100A780008BD012AB2D1454BC3F8382AC3F87825F6
:100A8800ACE7012AC2D10E22414BC3F8E42EBDE7E0
:100A9800012AAFD001223D4BC3F87825AAE74FF0D1
:100AA80050230022C3F81421C3F818218AE7002133
:100AB8000122364BC3F80C17C3F81027B2E7BFF36F
:100AC8004F8F344BD3F80024012AFBD13148C3F8A7
:100AD8000425D0F80034012BFBD101290BD04FF4A9
:100AE8007F02D2F83031D2F83421BFF34F8FC3F3ED
:100AF8000B03092B42D0FFF71BFF58B1264AD369D5
:100B080023F00103D361BFF34F8F224BD3F80024A6
:100B1800012AFBD1FFF7D6FE68B11F4A136A23F0FA
:100B2800FF0343F020031362BFF34F8F194BD3F831
:100B38000024012AFBD101290BD04FF47F02D2F8FF
:100B48003031D2F83421BFF34F8FC3F30B03092B95
:100B580016D000220F4BC3F80425D3F80024012A2D
:100B6800FBD1BFF34F8F07490C4BCA6802F4E06210
:100B78001343CB60BFF34F8F00BFFDE772B6BAE7F0
:100B880062B6E6E700ED00E00003FF000040005019
:100B980000A00350009003500080FF000400FA05F5
:100BA800003918BF0121003A18BF012210B40368A8
:100BB800084C890041EA42011C6359605A6842F0B6
:100BC80001025A60BFF34F8FBFF36F8F002010BC34
:100BD800704700BF04AAFF004B68024613F01F00CD
:100BE80034D1126830B514680D68C4F30724A542DF
:100BF8002AD254685060956091F810C023F01F0302
:100C08000CF0010C4CEA030C8B7CDB0003F018039E
:100C18004CEA030C8B68013B23F01F0ECB68497C20
:100C28005B00490003F00E0343EA0E0301F00601DE
:100C380041EA0C0143F00103D16013615460BFF332
:100C48004F8FBFF36F8F30BD012030BD012070473B
:100C580003681A6812F47F4FC2F3072C0AD00022E7
:100C68001146586859609A6001329445D9601961F3
:100C78005860F6D1002070470722024BC3F80423BE
:100C8800704700BF003000500022074BC3F8002116
:100C9800D3F80011C3F80421D3F80411C3F80821CC
:100CA800D3F80831704700BF0030005000231720E8
:100CB800094903F5C0720133202B41F82200F8D10D
:100CC80000231720044903F5E0720133202B41F873
:100CD8002200F8D1704700BF0030005010B4C90B93
:100CE800B1EBD03F9DF8044010D343EA0423084CED
:100CF8004FEAD03C43EA02105FFA8CF202F5C07268
:100D0800614544F822000CF1010CF5D110BC704784
:100D18000030005010B401F1604100F160404FEA2A
:100D2800513CBCEB503F9DF804400ED343EA0423EA
:100D3800074C410B43EA0210CAB202F5E0728C4537
:100D480044F8220001F10101F6D110BC704700BF40
:100D580000300050C0F30E03C3F50043B3FA83F329
:100D6800C3F11B03064AC0F3C730DBB240F48070FE
:100D780043F48073C2F80005C2F80435704700BF19
:100D880000300050C0037047C00300F5FF407F30BB
:100D9800704700BF002070471F2070474FF4004085
:100DA800704700BF00F57F40C0304003704700BF68
:100DB800034602485B031844704700BFFF1FF81F33
:100DC800402070475F2070474FF40050704700BFC5
:100DD800044BC0F30730090200F5007043F82010F7
:100DE800704700BF0030005008B501F0C3FA00B1E9
:100DF80008BD02F0F9F850B94FF6F771054AD36803
:100E08000B4043F0BF6343F40033D36008BD45F2A1
:100E1800235008BD00ED00E0002070470020704717
:100E280000207047704700BFBFF34F8F0549064B3E
:100E3800CA6802F4E0621343CB60BFF34F8F00BF70
:100E4800FDE700BF00ED00E00400FA050B4608B11D
:100E5800032070471146184600F004B872B620BF48
:100E6800FDE700BF38B543680C2B1FD14B68042B36
:100E78001CD14FF0FF3304680D6821682B60A9B1BD
:100E8800A2689AB10623012000F094F970B961684C
:100E9800114B99420CD9A26810488B18834213D978
:100EA8000F48834210D90F4883420DD9022038BD1C
:100EB8000D4B9942FAD9A26809488B18834203D985
:100EC80007308142F2D9EEE7206801F0FDFF0023E8
:100ED80018462B6038BD00BFFF01FF002C02FF0041
:100EE8003801FF004C01FF002F01FF00FFF7B6BFDC
:100EF80008B5114B83F30A88104800F09BFA98B99B
:100F0800FFF772FF80B9FFF787FF68B9FFF786FF21
:100F180030B9FFF787FF00F0FBF800F001FC05E0AF
:100F2800FFF77EFF0028F6D0FFF7E0FF00F0DCF8BF
:100F380000F048F8002008BD0004002040340020DC
:100F480001F00C0370B50C2B0CBF154605464A067C
:100F58000C4601F0080621D58B06B6FA86F358BF71
:100F68002835AA695B0912F8026CB3EBD61F0CD1BD
:100F7800402E0ED0412E14D100F07CFD04461048BE
:100F8800214600F0F1FB204670BDFFF7AFFF402E71
:100F9800F0D1284600F0CAFB204670BDFFF7A6FF37
:100FA80036B16FF08300286000F0FAFE204670BD6D
:100FB800FFF79CFF6FF08300286000F0F1FEF5E773
:100FC800F80B002041DF704770B572B6BFF36F8F22
:100FD8001446EFF30B855FF0000C002A1FBF8CF35B
:100FE8000B886C46954683F30B880F4A01231360E0
:100FF80062B6BFF36F8F0E4600F098FD72B6BFF36E
:101008006F8F314600F0ACFD5FF0000C002C1EBF66
:101018008CF30B88A54685F30B88034C00252560C7
:1010280062B6BFF36F8F70BD44340020402010EAD1
:101038000E0023D001B501F085F8BDE804408842D0
:101048001CD072B6BFF36F8FEFF309821EF0200336
:101058001CBF22E9F00F083A80E80440B1E80440D8
:101068001EF020031CBF0832B2E8F00F0B6882F3B1
:10107800098883F30B8862B6BFF36F8F704700BF90
:10108800EFF308807146EFF30982EFF30B830CB49A
:1010980006B4FFF755FF864606BC0CBC00F00800F6
:1010A80001F00801401A01DC12DB70470CB41EF095
:1010B80020031CBF2DE9F00FBDF1080D094C254692
:1010C80026462746A046A146A246A34630B4704706
:1010D80030BC1EF020031CBF1DF1080DBDE8F00F49
:1010E80006BC7047A5EDF5FE00216020074BDA68C5
:1010F80082F07F4282F47F0242F48042DA601976FD
:101108005976D976D97783F82200704700ED00E048
:10111800704700BF009A0A4B9A420FD101229043B0
:1011280001460246034604460546064607468046EB
:10113800814682468346844686460447FEE7000089
:10114800A5EDF5FE18B311B3836830B4C3F380235B
:10115800046A43F002030B60E4B100228569C169A7
:1011680000F1300303EB850301EB410103EBC103FD
:101178009868013210F0080003F10C0303D1A24271
:10118800F6D130BC704743F6DA3030BC704743F6CE
:10119800DA3070472046F4E7EFF3148381F0020158
:1011A800C1F3400161F3000383F31488BFF36F8F29
:1011B80000207047002A00F0AD802DE9F0410D466F
:1011C800C107164616D480F0020003F00602C0F3E9
:1011D800400C062A4FEA8C0C18D09A072ED54CF0F2
:1011E800080422463146284604F03CFCB8B10020E9
:1011F800BDE8F081EFF3948C4FEA8C0C03F0060203
:101208000CF0040C062A4CF0120CE6D14CF0010448
:1012180022463146284604F025FC0028E7D145E857
:1012280000F32E44180E1B0206F1FF3141E800F2CC
:101238004FEA126705D46FF07F00D9E74CF2DA2045
:10124800D6E71302F7D58742F5D045E800F841E81C
:1012580000F10F0EFFF79EFD4FEA1868804503D393
:10126800FFF79AFD874231D9FFF7AAFD8045E2D3FF
:10127800FFF7A8FD8742DED84046FFF799FD0346F1
:10128800C5F1010128462246194404F0EBFB002869
:10129800D1D008F101050DE02846FFF783FD80460F
:1012A800FFF792FD224601464046013504F0DAFB7D
:1012B8000028C0D0AF42EFD83846FFF773FD22466A
:1012C800311A04F0CFFB002891D1B4E74046FFF76C
:1012D8005BFD0346C5F1010128462246194404F086
:1012E800C1FB0028A7D008F101050DE02846FFF74B
:1012F80049FD8046FFF752FD22460146404601352A
:1013080004F0B0FB002896D0AF42EFD83846FFF77C
:1013180039FDD4E700207047F0B5012587B03A4879
:10132800FFF796FC00224FF44076384C8DF81620D3
:101338002368354801932B442360354B01A9DA68AB
:101348001B690495ADF8146002920393FFF744FCFF
:10135800002855D123688DF81600019301332360C6
:101368002C4B294802932C4B01A90495ADF8146025
:101378000393FFF731FC002842D123688DF816004B
:10138800019301332360254B1F480293244B01A985
:101398000495ADF814600393FFF71EFC00282FD1C5
:1013A80040F20116022723688DF8160001930133D5
:1013B80023601C4B144802931B4B01A90393ADF8FF
:1013C80014600497FFF708FCD0B92368174A019303
:1013D80001332360164B8DF8160001A90A48CDE9A0
:1013E80002230497ADF81460FFF7F6FB044638B9FA
:1013F8002A4629460448FFF7D3FB204607B0F0BD2C
:1014080043F6DA3007B0F0BD242E0020483400201F
:1014180078270000A0270000E05D0000E00700003A
:10142800E0070000201C0020401C0020001C0020B9
:10143800201C002010B5044600F074F800F082F873
:1014480040B900F0A1F828B9FFF766FF10B90223E8
:10145800236010BD43F6DA3010BD00BF884208D0C3
:10146800830704D581F00201C1F3400070470120D1
:1014780070470020704700BF08B5084BD3F800211B
:10148800D3F80821D3F80431FFF7FEFB0822044BF8
:10149800C3F88021BDE80840FFF728BD00300050A0
:1014A80000E100E0FFF7E8FFFEE700BF0020034B84
:1014B800D8765A6A42F470225A62704700ED00E00A
:1014C8000349044BCA68002092B21343CB607047AB
:1014D80000ED00E00800FA050020704700234FF0F7
:1014E800FF30094903F1A0020133102B41F8220013
:1014F800F8D1D1F88032002023F00803C1F88032F7
:10150800D1F88032704700BF00E100E008B5FFF76E
:10151800B3FB0822024BC3F880211A60002008BDE3
:1015280000E100E0064BD3F8D02022F00102C3F816
:10153800D020D3F8D02042F00202C3F8D020704760
:1015480000ED00E030B501250C4C83B0FFF7AEFB91
:10155800D4E90101072300220095FFF7BFFB072309
:101568000022074907480095FFF7D4FBD4E9030197
:101578000139FFF7EFFB002003B030BD78270000EA
:10158800FFFF03200080002038B500214648FFF700
:101598001FFC00214FF05020FFF71AFC00214348A0
:1015A800FFF716FC00214248FFF712FC00214148D2
:1015B800FFF70EFC00214048FFF70AFC00213F48D6
:1015C800FFF706FC00213E48FFF702FC00213D48DA
:1015D800FFF7FEFB00213C48FFF7FAFB00213B48E0
:1015E800FFF7F6FB00213A48FFF7F2FB00213948E4
:1015F800FFF7EEFB00213848FFF7EAFB00213748E8
:10160800FFF7E6FB00213648FFF7E2FB00213548EB
:10161800FFF7DEFB00213448FFF7DAFB00213348EF
:10162800FFF7D6FB00213248FFF7D2FB00213148F3
:10163800FFF7CEFB00213048FFF7CAFB00212F48F7
:10164800FFF7C6FB00212E48FFF7C2FB00212D48FB
:10165800FFF7BEFB2C4C00212C48FFF7B9FB0021FB
:101668002B48FFF7B5FB20460021FFF7B1FB00210F
:101678002848FFF7ADFB00212748FFF7A9FB40F2F8
:101688000115002001224FF48071244BC3F8800417
:10169800C3F88424C3F8C004C3F8C424C4F840556C
:1016A800C3F8401438BD00BF00400050008000500F
:1016B8000090005000A0005000B0005000E0005022
:1016C80000F000500000015000100150004001508F
:1016D80000500150007001500080015000B00150CE
:1016E80000C0015000D0015000E0015000F001504E
:1016F800000002500010025000200250003002503A
:1017080000400250006002500090035000800250D8
:1017180000A002500025845000A003500030005063
:101728000122014B1A6070474C34002010B5044662
:101738000B4A062312686168526852F8140C228911
:10174800FFF738FD18B9074B1B68012B02D003239C
:10175800236010BD00F04AF90323236010BD00BFC9
:10176800243900204C34002004460D46A54628475D
:10177800036923B14FF0EE32196042617047036884
:101788009962704704484FF080510160BFF34F8F52
:10179800BFF36F8F7047000004ED00E02DE9F843B8
:1017A80004681E468368DFF850C09046A4F15002D2
:1017B8009A4244F808CC44F804CC05460F46A4F1F4
:1017C800080416D3A4F1480948220021484601F02C
:1017D800CFF84FF080726FF0020344F8208C44F881
:1017E800087C44F80C6C44F8042CC5E90093BDE867
:1017F800F883FFF77BFBE5E7A5EDF5FE836883F348
:101808000B880368283383F309884068704700BF52
:10181800064A10B41368064C013303F00703001B93
:10182800591C01EBC00010BC1360704750340020F5
:101838005434002010B5064800F0FCFC044628B1DA
:101848008022002101F094F800232360204610BD77
:1018580054340020014610B5EFF3108472B60348E3
:1018680000F0F4FC84F3108810BD00BF543400204D
:1018780030B58646EFF3108572B6406CF8B14FF07C
:10188800000C64460EF1440283681B685B69994248
:1018980008BF144600F17C02C06F08BF0CF1010CB0
:1018A8000028F1D15CB12068BCF1010FC36F23603F
:1018B80005D1DEF8143023EA0103CEF8143085F39D
:1018C800108830BD70B40C4E75689DB101462B462A
:1018D800002403E098681C4650B103461A68526811
:1018E8008A42F7D11CB19A687360A2609D6018465D
:1018F80070BC70472846FBE7003900200368D3E92D
:101908000223520505D58B420CBF00206FF0FA0068
:1019180070478B422CBF00206FF0FA00704700BF61
:1019280038B52AB10B689B68DB0517D5002038BD90
:101938000D4B04461B685D681C2D12D055F81C2CF5
:10194800906958B100232C3202E00133834203D05E
:1019580052F8041FA142F8D19842E7D16FF0FC0079
:1019680038BDFFF7C3FAE9E72439002010B5D0B134
:10197800104B441E03EBD40421460E4800F06CFCC7
:10198800B0B10D4B1B685B681C2B0ED053F81C3C88
:101998005BB15B68A2685268126852689A4218BFC5
:1019A8000024204610BD0446E6E74FF0FF33F1E778
:1019B8000446F6E75434002024390020F8B50446DC
:1019C8001E460F46154600212C220C3000F0D0FF91
:1019D800054B069A1B68A7605B68C4E903651C3B56
:1019E80062616360F8BD00BF24390020064B1B68A4
:1019F8005B681C2B04D053F81C3C0BB1586870472B
:101A08004FF0FF30704700BF24390020094B10B554
:101A18001B685C681C2C05D054F81C3C9868C0F303
:101A2800802010BDFFF762FA54F81C3C9868C0F398
:101A3800802010BD2439002038B5044698B90C4BD5
:101A48001B685B681C2B08D053F81C3C2BB15D68E5
:101A5800B4EBD57F03D1284638BD4FF0FF35FFF7EB
:101A680045FA284638BD00F075FC0546F0E700BF8A
:101A7800243900202DE9F0410823802240F22C412E
:101A8800164800F0A3FB0023154E164FDFF85880C8
:101A980073607B6000F062FC03E02946204600F09A
:101AA8009FFA304600F098F8044690B139468023F2
:101AB800424600F007F90546204600F06FF9214636
:101AC80051F8080BFFF73EFB0028E6D0FFF70EFAA7
:101AD800E3E7BDE8F04100F0FFBA00BF543400204E
:101AE800103900200039002080380020002300F140
:101AF8002802C0F1040C52F8041B91B100B5816FA3
:101B08005CF812E019440833202BC1F804E006D031
:101B180052F8041B0029F2D10833202BF8D15DF8C4
:101B280004FB0833202BE6D1704700BF0A4B0B4A51
:101B38001B6810B55B680446A3F11C0C5A61D1E917
:101B48000223CCF82C10D1E90001A047044600F08C
:101B580027F9204610BD00BF24390020EDEEEEEE37
:101B680010B5094C094B2268526852699A4208BF5D
:101B7800086000F08DFB2368834203D0BDE8104065
:101B8800FFF700BE10BD00BF24390020EDEEEEEED9
:101B980070B505460C46EFF30583C3F30803B3B9E4
:101BA8000C4B1A689368A34202D2D168A14206D2AC
:101BB80021462846BDE870401268FFF705BA0023A1
:101BC80021462846BDE870401A46FFF7FDB9FFF7E1
:101BD8008DF9E5E70C390020F8B50546002864D0F2
:101BE800334E346814F1290F5CD8324A04F12803C3
:101BF80011688B4256D2E269A36902EB42020C33A8
:101C080003EB4203226A02EB42021344626A02EBCC
:101C1800820213449B00E31801D2994201D2FFF7D4
:101C280065F9236824491A0C12048A4228D19BB208
:101C3800B3F5817F2BD26368002B2DDB1F4A204B25
:101C48001768196807F14C038B42136027D8E269BB
:101C5800A36902EB42020C3303EB4203D4E90812F6
:101C680001EB41010B4402EB8202134432683C60F1
:101C780002EB83026B683846BB6432606F60F8BD64
:101C8800FFF734F923689BB2B3F5817FD3D3FFF70D
:101C98002DF96368002BD1DAFFF728F9CEE7FFF7B3
:101CA80025F9D4E700273846F8BDFFF71FF997E76D
:101CB800302E00209427000000005F5F2C2E0020AB
:101CC800902700002DE9F04F85B0804689461746D9
:101CD800039300285AD0002958D0D8F800202D485E
:101CE80002F13005D2E906310468029205EB83055A
:101CF800002945D0284B01EB41021B6804EB820206
:101D08009A42026036D8002C3AD04FF0000B5E465B
:101D18000020AB686A6913F4007FC4E9005806F133
:101D28000106A0604BEA020B05F118055FFA83FA79
:101D380013D017B1039A802A03D00193FFF7D6F87E
:101D4800019B13F0E00F02D157F82A300BB1FFF7CF
:101D5800CDF8029BD96947F82A40D9F80430B14236
:101D6800A360C9F8044004F10C04D1D8584605B062
:101D7800BDE8F08FFFF7BAF8029BD9690029C2D1F4
:101D88004FF0000B584605B0BDE8F08FFFF7AEF8EE
:101D9800A3E700BF282E00208C270000704700BF53
:101DA8008230012800D9704708B5FFF72FFE00B12F
:101DB80008BDBDE80840FFF799B800BF002070478C
:101DC8000C4B70B51B6805465C680E4654F8102C21
:101DD8001C3C0AB102420AD0002E02DB606928408E
:101DE80070BD29462046BDE8704000F099B9FFF75C
:101DF8007DF8F1E72439002070B504460E4600B39B
:101E0800431E03421DD1184A062311682C224D682F
:101E1800314655F8140C1C3DFFF7CCF9A0B96B6995
:101E2800BBB16B69234219D021462846FFF720FD34
:101E38000146B0B12C2230460C3101F045F80020A3
:101E480070BDFFF753F8DEE7FFF750F86B69002B1A
:101E5800E7D1FFF74BF86B692342E5D1FFF746F866
:101E6800E2E76FF08B0070BD24390020F8B5054615
:101E78000F46FFF77BFD0446002845D0A668002ED4
:101E880047D0E368991C16D05A1C18D18FBB15F19E
:101E9800810F23D0EFF3108672B62946204600F052
:101EA80091F8054686F310882368022B1CD000237E
:101EB80028462360F8BD022323600025EAE7002BAB
:101EC8001FDB2046FFF712FE33683D469B689B05E3
:101ED80044BF0223236015F1810FDBD16369002B16
:101EE800D8DBFFF703F8D5E72046FFF7B3FC284611
:101EF800F8BD17F1820F0FD017F1830F01D13D46BE
:101F0800C8E7FEF7F3FFD8E7FEF7F0FFA668002E54
:101F1800B7D1FEF7EBFFB4E702233D462360B9E7EC
:101F2800FEF79CBF10B4436840781C3BEFF3108C5D
:101F380072B61C695A69224006D1002C18BF0220CB
:101F48008CF3108810BC7047022A04D158691A6CA7
:101F580020F00200586100240A6005201C618CF3FF
:101F6800108810BC704700BF29B320B3026812B3B1
:101F780038B5436813B30C46596C5269E1675C6421
:101F8800EFF3108172B6586902435A6181F31088E1
:101F980065686DB1EFF3108372B66A6992075CBF2A
:101FA80002222A6183F3108801230020236038BDB0
:101FB800FEF79CFFEEE76FF0800070476FF080003F
:101FC80038BD00BF43681964EFF3108172B65A69CF
:101FD80042F002025A6181F310880020704700BF66
:101FE80000232DE9F047044602684364956A1069A6
:101FF800354E2844073525F0070520F00700C4E9C9
:102008000950E56826630D439168D2F8188001F4F9
:10201800406C5FFA81FE11F40071D2F80C9082B026
:102028002362E362E56004F11C0631D1D769DFF869
:102038009CA0BD0005F1130323F00703C01AE0615B
:10204800C0E9009A81606FB102F130030C3503EBEF
:102058008803054400F10C021969183342F8041B7F
:102068009542F9D10023BCF5406F87601849A061FB
:1020780084F834E0A66384F83530E3861BD06FF02B
:10208800010204F1340002B0BDE8F04700F026B9BF
:102098000E49A0F11002BCF5406FE26140E90491DD
:1020A80040F8083C4946A26184F834E084F83530A9
:1020B800E386A663E3D1074B01911E6000F07CF92B
:1020C80001990346DBE700BFEDEEEEEE185C000079
:1020D800492F00000C39002038B50D480D4D00F08F
:1020E800D1F80D4B0D4A28461A6000F025F92B68E7
:1020F80004465B6853F8141C53F81C0CFFF74CF8A3
:1021080008B9204638BDFEF7F1FE204638BD00BFAD
:102118002D1F00002439002008390020001C002051
:1021280038B504460D4648B1EFF3108372B66069BE
:10213800284008BF256183F3108838BDFEF7D6FE16
:10214800F2E700BF2DE9F84300F0A2F81C4FA0F118
:1021580034063B685D681B4B29461B68012B18D069
:102168000446B0B1A5F11C08B04512D0EFF30982BE
:10217800AB682833934215D8EFF3108972B6D8F8B4
:102188000800B168FFF76AF978B93C60616889F3BB
:1021980010880D4B1B6813B1B26902B11A6028464A
:1021A800BDE8F883FEF7A2FEE6E7B16854F8340C00
:1021B800FEF7F2FF0028E8D0FEF798FEE5E700BF3B
:1021C80024390020443400200839002070B32DE958
:1021D800F84F1E463BB3171D03FB07FA0AF10C0321
:1021E8008B428B4691461ED1804600240A46002128
:1021F80000F0BEFB08F10C039C46A64600E0AC4686
:102208000EF1010E7645CCF800400CEB070564464C
:10221800F5D10020AAEB070A5344C8E90039C8F8E9
:1022280008B0BDE8F88F6FF0F800FAE76FF0F80033
:10223800704700BF034638B1006828B10022016822
:10224800196040F8042B7047704700BF02680B1FE5
:1022580041F8042C0360704700F10C0399420FD336
:102268008268C91A8A420BD943680433B1FBF3F276
:1022780003FB1211A1F10400B0FA80F04009704785
:1022880000207047014B1860704700BF18390020C4
:10229800002330B50F4A83B014680193B4B10E4DD2
:1022A80003E001280FD0A46884B120462B6801A957
:1022B8009847C0B205286070F3D101996068FFF7AC
:1022C80057FA01236370204603B030BD002420462E
:1022D80003B030BD1C390020183900209C4670B569
:1022E800134E134634680546624624B190F800C080
:1022F8002078604513D3AC6035606868FFF74EFA04
:1023080001210C4B69701A6822B129781278914220
:1023180028BF35681D6070BD2078604503D2A64689
:10232800A468002CF8D1AC60CEF80850E5E700BFEF
:10233800203900201C39002038B50546FFF7A8FFD2
:102348000446FFF71FFA05B12C606068BDE8384005
:10235800FFF754BA4FF0FF30704700BF08B500F0E0
:102368001FF8034B986000F021F880F3888808BDB7
:1023780000ED02E008B5FFF799F868B9FFF7A0F893
:1023880050B9FFF7A9F838B962B6FFF7A7F818B936
:10239800FFF7BCF800B908BD43F6DA3008BD00BF46
:1023A800014B1868704700BF78270000014B1B6875
:1023B8001868704778270000014B1B6858687047F9
:1023C800782700002DE9F04F89469BB00393054616
:1023D8001446FFF71BFB7F4BC9F307281B685E6891
:1023E8004FEA192304935FEA2943059370D45FFAEF
:1023F80089FA08EB0A03042B6AD8002D68D007462F
:10240800FFF71AFB6B00069062D5734B05F01F02AD
:1024180053F82290B9F1000F5AD0D9F800303A4653
:1024280049465868FFF77CFA002840F0C0804846C3
:10243800C5F30721FFF762FA002849D1EFF31085A9
:1024480072B6FFF7F7F9079085F31088002800F0B7
:10245800B180FFF7DDF907464FEAC80502232A468F
:10246800214656F8140C1C3E0897FEF7A3FE78BBCD
:10247800039F4FEACA0B06235A463946B068FEF74F
:1024880099FE099020BB202200210AA800F070FACA
:102498002022002112A800F06BFA2A4621460AA839
:1024A80000F012FD5A46394612A800F00DFDB8F1A9
:1024B800000F12D00AAC671901E0BC420DD0D4E974
:1024C80000120223B068FEF775FE08340028F4D025
:1024D8006FF080001BB0BDE8F08F049B13F0FE0F77
:1024E8001BD001270AABB8451D440CAC10D92346B4
:1024F80054F8080CD3E900120A44904203F1080387
:1025080004D254F8042C02449142E1D3AB42F1D1F5
:102518000137B84504F10804E9D8BAF1000F4CD0E6
:1025280012AC0BEB040501E0AC4209D0D4E900126F
:102538000623B0680834FEF73DFE0028F4D0C7E74C
:10254800069B49460093089A059B0798FFF736FAB9
:10255800B8F1000F13D007990AAB01F1140201F189
:10256800380009995C6842F8044F53F8084B40F862
:10257800314001318845F5D8BAF1000F0FD0002459
:10258800079912AA0B468B442431506841F8040F6E
:1025980052F8080BC3E9160408335B45F5D1079BCD
:1025A800039A194648469A67FFF7DEFC92E76FF0F0
:1025B80081008FE76FF082008CE7069B4946009305
:1025C800089A059B0798FFF7F9F9B8F1000FC2D1EF
:1025D800E5E700BF243900208038002040F20110D0
:1025E800704700BF70B50546FFF710FA0646284643
:1025F800FFF768F948B10446014632462846FFF716
:102608008FF910B92368D86870BD002070BD00BF6D
:102618002DE9F047214C0D4624689046D4F80490E3
:102628001F46FFF7A3F9044690B3E368002B2CDBA1
:10263800032D27D804EB850ADAF8186016B9304656
:10264800BDE8F08706233A46414659F8140CFEF7D0
:10265800B1FD00BBDAF818303E469F4228BF1E463F
:1026680004EBC50440463246A16B00F02DFCA36B79
:1026780030463344A363DAF818309B1BCAF8183085
:10268800BDE8F087FEF732FCD4E7FEF72FFCCFE772
:10269800FEF72CFCC9E7FEF729FCDBE7243900200C
:1026A80070B50E461546FFF761F90446D8B1E368E0
:1026B800002B15DB032E10D804EB8603986958B15C
:1026C80085422A4628BF0246851A104604EBC604EE
:1026D800A16B1144A1639D6170BDFEF707FCEBE798
:1026E800FEF704FCE6E7FEF701FCE0E72DE9F84316
:1026F8001E4C0F462468914664681D46FFF736F95C
:10270800A4F11C08044668B3E368002B27DB032FF9
:102718001CD804EBC70604EB8704A36AF26D9B1A66
:10272800AB4219D302232A464946D8F80800FEF7D7
:1027380041FD70B9D6E91603494618442A4600F007
:10274800C3FBF36D2B44F365BDE8F883FEF7CEFBBE
:10275800DFE7FEF7CBFBEDE7FEF7C8FBE2E7FEF7A6
:10276800C5FBD4E7FEF7C2FBCEE700BF2439002043
:102778000080000000800000FFFF0F00007C0000C8
:10278800008000001C300020043000204C020000B3
:1027A000009A214B9A4208D110B500F015F900F0BB
:1027B000C1F806BC96460C4674470FDFFEE700BF23
:1027C000009A194B9A4208D110B500F00DF900F0AB
:1027D000B1F806BC96460C4674470FDFFEE700BF13
:1027E0000CB4029A104B9A4209D10CBC10B500F0FF
:1027F00003F900F09FF806BC96460C4674470FDFBD
:10280000FEE700BF009A084B9A4202D107490868C8
:1028100074470FDFFEE700BF009A034B9A4200D1D6
:1028200074470FDFFEE70000A5EDF5FE202E002027
:102830000348044B834202D0034B03B1184770474F
:10284000182F0020182F0020000000000548064B1C
:102850001B1AD90F01EBA301491002D0034B03B19E
:1028600018477047182F0020182F00200000000084
:1028700010B5064C237843B9FFF7DAFF044B13B1C8
:102880000448AFF300800123237010BD1C300020EA
:1028900000000000D05D000008B5044B1BB10449E6
:1028A0000448AFF30080BDE80840CFE70000000017
:1028B00020300020D05D0000A3F5803A704700BFB3
:1028C000174B002B08BF134B9D46FFF7F5FF002168
:1028D0008B460F461348144A121A00F04DF80E4B5F
:1028E000002B00D098470D4B002B00D098470020BC
:1028F000002104000D000D48002802D00C48AFF361
:10290000008003F02BF920002900FEF7F5FA03F010
:1029100011F900BF000008000000000000000000E6
:10292000F80B0020202F002090490020000000001C
:1029300000000000002383F300887047FEF7DABA36
:10294000FFF7FCFFFEE700BFFEF7D4BAFFF7FCFF7E
:10295000FEE700BFFEF7CEBAFFF7FCFFFEE700BFC1
:10296000FEF7C8BAFFF7FCFFFEE700BFFEF7C2BAEA
:10297000FFF7FCFFFEE700BFC9B230B501EB012451
:1029800004EB044462B1830784460AD002E013F0EA
:10299000030F07D06346013A03F8011B9C46F6D1AA
:1029A00030BD0346032A11D9A2F1040E2EF0030E06
:1029B00003F1040CE6441D461C6063469E450CF181
:1029C000040CF8D112F00302EAD02B1D1A4403F8CC
:1029D000011B9342FBD130BD024B1B685B689B68B7
:1029E000184700BF001C0020024B1B685B685B6837
:1029F000184700BF001C002010B4034C2468646812
:102A00002468A44610BC6047001C0020024B1B68D1
:102A10005B68DB68184700BF001C0020024B1B6886
:102A20005B681B69184700BF001C002010B4034CF2
:102A3000246864686469A44610BC6047001C0020D8
:102A400010B4034C24686468E469A44610BC604771
:102A5000001C0020024B1B685B681B6A184700BF04
:102A6000001C0020024B1B685B685B6A184700BFB4
:102A7000001C0020002070470F4B02689A4206D1CC
:102A8000C269A3F11023A3F1EF139A4201D00120F0
:102A900070478368012BFAD8C36813B10269934267
:102AA000F5D043692BB18069C01AB0FA80F04009B3
:102AB00070471846704700BF55AA00FFF8B5164B7F
:102AC000996829B10846FFF7D7FF08B9CB680BB161
:102AD0000120F8BD0B69002BFBD0104D104E1A6879
:102AE000AA42F5D1DA69B242F2D19A68012AEFD846
:102AF000DC68002CECD01A699442E9D05F691FB100
:102B0000D3F818C06745E3D08C42E1D11946002ABA
:102B1000DFD01346E3E700BF2839002055AA00FFA5
:102B2000669911EE002865D070B5374D2B68002BE3
:102B300054D0AA68002A51D08342014661D86A68FD
:102B4000134498425DD2A0F120063046FFF794FF6F
:102B5000002856D151F8183C012B52D151F8144C91
:102B600041F8180C51F8100C002C38D0A368002B39
:102B700035D151F81C2C6368203213442061636006
:102B800000B1C460202200213046FFF7F5FE206925
:102B9000F0B18368E3B9264642687368134402695A
:102BA000203373603261D6E9051331B38B6103B111
:102BB0005961416983697161B361E1B18E61B36942
:102BC00003B15E6102B1D66020220021FFF7D4FE7E
:102BD0002B699B0702D5FFF771FF90B970BD10B14B
:102BE0008368002BD8D0EB6841F8083C03B15E61E4
:102BF000EE60EDE77047EE60E2E7002BD9D0EB60C6
:102C0000D6E7012002F096FF283900202DE9F84F81
:102C10003E4D2B68EC68002B40D0AB68002B3DD0BC
:102C200000283BD0002939D001FB00F6B6FBF0F0BC
:102C3000884233D1301D31D8B10733D026F003019B
:102C4000043114B92BE0A4694CB363688B42FAD306
:102C5000D4F808C0BCF1000F55D1A0695B1A232B32
:102C60008146676920D80123A360002F47D0B8614F
:102C7000A06900B1476100232A696361D207A3619B
:102C800003D5FFF71BFF00283DD120343246002139
:102C90002046FFF771FE2046BDE8F88F002420464D
:102CA000BDE8F88F3146CCE7D4F8108001F1200E52
:102CB000DFF85CB0DFF85CA004EB0E02203BC2E959
:102CC000013CC2E9034844F80EB0C2F81CA0B8F1B8
:102CD000000F01D0C8F80C20C2F81890576187B1D6
:102CE000BA61906900B14261002361602969226183
:102CF0000122C4E90533CB07A260C6D5C1E7E8606D
:102D0000B7E7EA60EEE7012002F014FF283900205F
:102D100055AA00FF669911EE38B50D461422002120
:102D200004461148FFF728FE1049114800F030F81A
:102D3000232D18D914F0030304D0043DC3F1040279
:102D40001D4414442A4600212046FFF715FE064B79
:102D5000084A0948A5F12001C3E901541C60E0615B
:102D6000C4E90021DC6038BD28390020252B000093
:102D70000D2C000055AA00FF669911EE0020704747
:102D8000704700BF014B1B68184700BF342E00205E
:102D900010B40446034A044B00201460196010BCB0
:102DA000704700BF382E0020342E002038B504466E
:102DB000406A18B1A16A00F099F9606AFFF7E2FF72
:102DC0000021236A2C22012B14BF6FF096050D46BB
:102DD0002046C4E90911FFF7CFFD284638BD00BFE2
:102DE000064B0A4693F800C01CF0010F03D00146C1
:102DF000181D00F059B86FF0880070473C3900206A
:102E000038B5134D2B78DB0702D50024204638BD9A
:102E1000281D00F047F8044618B900F01DF80446D4
:102E200060B100F025F80B4800F050F80821084880
:102E300000F05CF900F034F8204638BD00F02EF8C0
:102E400004460028EDD12B7843F001032B70DCE71A
:102E50003C39002040390020044A002092F8803597
:102E600043F0010382F88035704700BF44390020E9
:102E7000F8B5094F01263C4607F5B06526622046A5
:102E80002C34FFF793FFAC42F8D197F880356FF3FD
:102E9000000387F88035F8BD44390020FDF71ABCDF
:102EA000704700BF0020704710B582B0002001AB12
:102EB000144600F0EFF830B9019BA34218BF6FF041
:102EC000930002B010BD6FF09200FAE70020704747
:102ED000CAB310B540EA0104A40703460CD004E0CD
:102EE00043EA010C1CF0030F06D011F801CB013AA4
:102EF00003F801CBF4D110BD032A17D98C46A2F1F7
:102F0000040E2EF0030E04318E44A3EB0C03DCF808
:102F1000004043F80C4003EB0C040CF1040CE645B4
:102F2000F5D112F00302E6D06146231D8C46114410
:102F3000A3EB0C039CF8002003F80C200CF1010C0F
:102F40006145F7D110BD70472DE9F04F4FF0010AF0
:102F5000264B8FB0D3F80090D9F80820D9F800306C
:102F60000AFA02FA0AF1FF32019213B198470028D7
:102F700038D1012709F10C0B4FF000410198FFF700
:102F800045FD06460028F7D0DA460024D9F8082087
:102F9000A24207FA04F508D9354209D10134A24208
:102FA0000AF1040A07FA04F5F6D8FFF75BFDE3E738
:102FB000DAF80020013492B103A92846FFF72EFD6C
:102FC0005AF8042B03A8DDF81080904701464046CC
:102FD000FFF740FDAE43CFD0D9F80820D8E7FFF780
:102FE00041FDE9E7FFF73EFDC3E700BF001C0020FD
:102FF00010B50C4C236813B10B4B1B682BB900F0B8
:1030000059FD30B90122084B1A60012323600020CA
:1030100010BD0138062801D9044810BD044B53F8EF
:10302000200010BDCC3E0020C83E0020FE8FFFFFD8
:10303000445C0000144B2DE9F043002814BF044603
:103040001C46124F236883B0BB4219D016460D466A
:1030500020464FF4E07104F1040900F047F804F54C
:103060008E78484600F010FC404600F035FA2B46BA
:103070004A4640460649009600F044FA08B92760DF
:10308000002003B0BDE8F083D03E0020A5BCC95AA3
:103090000D39000070B50D4C1D46002814BF0646C2
:1030A00026460B4B306882B098420DD106F58E70E3
:1030B000002633460096144600F072FA002818BF26
:1030C00034462C6002B070BD0248FBE7D03E0020C1
:1030D000A5BCC95AE88FFFFF38B131B100220144C5
:1030E0000346013081421A70FAD1704738B131B1CC
:1030F000002201440346013088421A70FAD1704719
:103100002DE9F04FB2F5C07FB5B000F2D680DFF800
:10311000B09114460D464FF4D07200210DF15C08B9
:1031200007464846FFF728FC404601F0EFF9002328
:10313000A9F810302023294609F11805224689F8FC
:103140001730284663BAA9F81230FFF7C1FE802273
:103150005C4B4046079303F10433089303F10433B7
:1031600009932A5503F1043307A90A9301F0E4F9FE
:10317000824600287ED10FAD04F119032C460BAE18
:103180000293039701960495102200210198FFF7FE
:10319000F3FBDFF834B1DDF808A005940E9B5BF873
:1031A000044C5BF80C7C0B995BF8100C5BF8085C2A
:1031B0005C40019BDDE90C627E40554081EA0007DE
:1031C0001A4601214046CDE90B76CDE90D5401F0B8
:1031D000CDF9BAF1100F94BFAAEB0A0AAAF1100AAE
:1031E0000BF1100B002863D1BAF1000FD6D1059C6A
:1031F000102220460199FFF76BFE99F80330103436
:103200000133A04589F80330BED1049D80222946B0
:103210004046039F019E01F08FF9824660BB3C4609
:1032200007F1200913AB1A460121404601F09EF92F
:10323000824608BB1022204613A91444FFF748FE1B
:103240004C45EFD1404601F071F94FF4D0711C4864
:10325000FFF74CFF28462021FFF748FF07A8102161
:10326000FFF744FF30461021FFF740FF504635B0CE
:10327000BDE8F08F0FAD0BAE404601F057F94FF4AB
:10328000D0710F48FFF732FF28462021FFF72EFFAD
:10329000102107A8FFF72AFF10213046FFF726FF6D
:1032A00020213846FFF722FF504635B0BDE8F08FA9
:1032B0008246039F019E049DDEE76FF0370AF3E725
:1032C0009040002000010203A04000202DE9F041C1
:1032D00088B004460D462022002168466F46FFF75D
:1032E0004BFB04F12006E27B0132D2B2E273002AEA
:1032F0004DD1A27B0132D2B2A273002A47D1637BA7
:103300000133DBB26373002B41D1237B0133DBB28A
:103310002373002B3BD1E37A0133DBB2E372002B42
:1033200035D1A37A0133DBB2A372002B2FD1637A9C
:103330000133DBB2637253BB237A0133DBB22372F6
:103340002BBBE3790133DBB2E37103BBA379013318
:10335000DBB2A371DBB963790133DBB26371B3B95B
:1033600023790133DBB223718BB9E3780133DBB20C
:10337000E37063B9A3780133DBB2A3703BB9637820
:103380000133DBB2637013B92378013323703B46FA
:1033900022460121304601F0E9F8804650BB103743
:1033A00008AB9F429FD1029AAB68039F53400293A0
:1033B0003046EE6807997E400396049F2E69009B75
:1033C0007E4004966E69059F80227E400596069F8A
:1033D000AE697E400696EE697140079129684B40C0
:1033E000009301996B684B406946019301F0A4F882
:1033F000804638B168462021FFF778FE404608B085
:10340000BDE8F081102220460DEB0201FFF760FDC0
:10341000F0E700BF2DE9F8431D468369B3F5C07F8F
:1034200052D81646C3F5C072AA424DD3C5F5C07234
:10343000D31AB34248D30446DFF898904FF4C072D1
:103440000F4648460021FFF797FA4946D4F89430D2
:10345000A269D4F898009847002838D1D4F8188089
:103460003DB1D4E925302A4609EB0801984770BBE5
:10347000A84407B1C6B9174942460846FFF740FEBF
:10348000054638B14FF4C0711248FFF72FFE2846A9
:10349000BDE8F88320460F49FFF718FF05460028CE
:1034A000F0D101232361EDE73946324609EB0800EC
:1034B000FFF70EFD0749B04442460846FFF720FEDD
:1034C00005460028DED1E5E76FF03705DFE76FF04E
:1034D0003305DCE73042002010B5A4220021044669
:1034E000FFF74AFA4FF0FF314FF6F072044B2161BB
:1034F000E26104F19C001B68BDE81040184700BF62
:103500005C2E00202DE9F043054685B00F46164697
:103510000021102268469946FFF72EFA1E4B05F14E
:103520009C0840461B68984720B10446204605B0D9
:10353000BDE8F08305F12004204600F0E7FFAA690A
:10354000C5E92576EAB920232E69AB61002E20DB80
:1035500020466946802200F0EFFF044630B933462A
:10356000494628460C9AFFF755FF04460B4B404648
:103570001B689847002818BF0446204605B0BDE8E0
:10358000F0832E69002EE3DA172A02D8013256089A
:10359000DEE70026DCE700BF582E0020542E002076
:1035A0002DE9F04FB2F5806F8DB0169F00F2E380E9
:1035B000B7F5807F00F2DC80044615460E462022D7
:1035C000002104A89846FFF7D7F96C4B04F19C0939
:1035D00048461B6898478346002840F0928022693D
:1035E000E3699A4200F391806369002B40F08D807B
:1035F000002F40F0A980DFF888A16F46002D00F071
:1036000098806F4604F120080EE0102DAB4628BFCD
:103610004FF0100B304639465A46FFF759FCB5EBD0
:103620000B055E4400F08580E37B0133DBB2E3737E
:10363000002B4DD1A37B0133DBB2A373002B47D109
:10364000637B0133DBB26373002B41D1237B0133F6
:10365000DBB22373002B3BD1E37A0133DBB2E3729D
:10366000002B35D1A37A0133DBB2A372002B2FD10B
:10367000637A0133DBB2637253BB237A0133DBB26B
:1036800023722BBBE3790133DBB2E37103BBA37974
:103690000133DBB2A371DBB963790133DBB2637150
:1036A000B3B923790133DBB223718BB9E3780133EA
:1036B000DBB2E37063B9A3780133DBB2A3703BB92B
:1036C00063780133DBB2637013B92378013323705D
:1036D0003B4622460121404600F048FF8346002831
:1036E00093D0DAF80030484698470346202104A8D2
:1036F000002B18BF9B46FFF7F9FC10213846FFF757
:10370000F5FC58460DB0BDE8F08F3A46414600231F
:103710002046FFF77FFEDFF868A000283FF46DAF7A
:103720004846DAF800309847834600283FF465AFF2
:10373000E7E7204604A9FFF7C9FD83460028D0D15A
:10374000236901332361CCE73A46414604A8FFF7D9
:10375000D7FC834618B16F46DFF824A0C1E72046A6
:1037600004A9FFF7B3FD834600283FF444AFF2E716
:103770006FF0370BC5E76FF0350BC2E7582E00200E
:10378000542E00202DE9F043202B1D460646884686
:1037900091468BB026D8DBB202AF8DF80480B046DC
:1037A00058F8041B8DF8053021B9404600F020FF81
:1037B000044640B9012302224046336001A900F0CB
:1037C0002BFF044638B138462021FFF78FFC2046F6
:1037D0000BB0BDE8F0832A464946404600F01CFF86
:1037E0000446F0E702AF1946104600233A4601F0BE
:1037F00099F804460028E6D12023B9461D46CCE7B7
:103800002DE9F041D0F8F830A6B0002BD8BF02AEB9
:1038100031DD05460027D0F80C4102AEA4F10108C5
:103820009022D5F8FC403146D0F8000101AB019759
:10383000B8FA88F8A0474FEA5818044620B9019B07
:1038400053B9B8F1000F16D030469021FFF74EFC67
:10385000204626B0BDE8F081014632462846FFF7F3
:1038600091FF58B9D5F80431019A1344C5F80431D1
:10387000B8F1000FE8D16FF03C04E5E704462046BC
:1038800026B0BDE8F08100BF70B5002504461422C3
:1038900004F588762946C0F8F850FC30FFF76CF83C
:1038A000082229463046FFF767F8144B30461B685C
:1038B0009847204640F8045B00F080FE104B3046ED
:1038C0001B689847C8B9D4F8F830AB420FDC03EB5B
:1038D000830204EB82022021C2F800010120C2E928
:1038E000421008490133C2F8FC10C4F8F830064B06
:1038F0003046BDE870401B68184770BD5C2E002044
:10390000582E002011440000542E00202DE9F047CD
:10391000202A88B07AD83F4B00F5887904461B6886
:1039200048461746884698470546F8B940F20116BA
:10393000D4F8F830002B65D02046FFF761FF05462C
:1039400038B9D4F8F830002B14DC013EF2D16FF016
:103950003B056E4620213046FFF7C8FB2E4B4846FC
:103960001B689847002818BF6FF01D05284608B04F
:10397000BDE8F087D4E94132934203D3D4F80C2157
:10398000012A02D0013ED7D1E1E71F2BFAD96E46BA
:1039900001462022304604F1040AFEF7EDFF3146CD
:1039A000504600F063FE05460028D3D1504600F093
:1039B00019FE504600F002FE2946504600F018FE5F
:1039C00005460028C6D150462022314600F024FE8C
:1039D00005460028BED1034632462021304600F07D
:1039E000A1FF05460028B5D1D4F8F8303A46002B9F
:1039F000C8BF002340463146C8BFC4F80431FFF7B2
:103A000067FAA7E76FF03F056E46A3E76FF03B0547
:103A1000ACE700BF582E0020542E0020002130B506
:103A20008DB0282202A80191FEF7A6FF02A800F09F
:103A3000A1FF044610B120460DB030BD174D4FF028
:103A4000FF31286800F044F9044620B1144800F022
:103A5000D5F9012C18D0002000F06AF9D0B9114A2C
:103A600002A901A800F0C6FC0446012000F060F99C
:103A700060B9286800F034F90028DCD00A4800F06A
:103A8000BDF920460DB030BD0524F2E7074800F02F
:103A9000B5F9EEE7064800F0B1F9E0E7402E002066
:103AA000605C0000B0430020B85C0000985C00003F
:103AB000785C000030B583B000F05CF828B100F00D
:103AC000ABF80324204603B030BD00F077F8D8B936
:103AD00000F02EF9E0B9224CD4F828391B0EF02B57
:103AE0000AD1D4F8242A1F4B9A4231D000F044F86E
:103AF000072400F091F8E5E7062400F03DF800F017
:103B00008BF8204603B030BD0424204603B030BDFE
:103B100000F032F800F080F8FFF780FF044698B913
:103B2000114D2B68002BCDD102460146FFF782FADA
:103B300050B968220D4901ABFFF7ACFA20B9204615
:103B40000B4B2B6003B030BD0524204603B030BDC5
:103B5000012000F0EDF80028DAD1C4F80C0ADBE708
:103B6000001084500000E020D0450020D445002003
:103B70005AEA5A5A0020704700207047430504D57E
:103B80004FF0FF32034BC3F80821024BC3F8080A79
:103B9000704700BF00108450014BC3F8040A7047FF
:103BA0000010845008B100F06BB84FF475007047F6
:103BB00008B100F04FB84FF47500704710B51148C8
:103BC00000F072F800B110BD0F4800F06DF8002849
:103BD000F9D10E4C204600F067F80028F3D10C4BC9
:103BE0000C481C6000F060F801460028EBD100F0A2
:103BF0002DF8044608B1204610BD00F07BF82046A1
:103C0000FAE700BF502E00204C2E0020482E002046
:103C1000402E0020442E002008B5084800F04EF841
:103C2000074800F04BF8074800F048F8064800F055
:103C300045F8BDE8084000F00BB800BF502E00204A
:103C40004C2E0020482E0020442E002000207047DB
:103C5000704700BF024610B4084CD4F8003A134233
:103C6000FBD021B1D4F804310B60C4F80831034B08
:103C70000020C3F8082A10BC704700BF0010845011
:103C8000044AD2F8003A1842FBD0C2F8080A0020D1
:103C9000704700BF0010845001F084BFFEF76CBE77
:103CA0000A460021FEF768BE08B5034B02681B6890
:103CB00010689847002008BD7C2E002008B5034BF3
:103CC00002685B6810689847002008BD7C2E0020C1
:103CD000024B02689B681068184700BF7C2E0020CA
:103CE00008B5034B0268DB6810689847002008BDE0
:103CF0007C2E002070B5094C094D2069AB689847AF
:103D000018B1084B08485B6898470021074AEB68E0
:103D100011602069BDE87040184700BF682E002080
:103D20007C2E0020602E0020D05C00003C4600204D
:103D3000F8B51A4D1A4E0446B26828699047E8B99A
:103D4000184F3B684CB1A3B1012B19D0013B3B602C
:103D50002869F36898470020F8BD43B90121124A49
:103D6000C2F800151149D1F81029002AFBD10133FE
:103D70003B60F368286998470020F8BD0C48F8BDFF
:103D80000A4AD2F81039002BFBD1074A6FF07E4067
:103D9000C2F80035FFF700FF3B68D7E7682E002028
:103DA0007C2E00203C4600200000845000108450EF
:103DB000E98FFFFF014B1B68184700BF7C2E0020D6
:103DC000014B9B68184700BF7C2E0020014BDB682D
:103DD000184700BF7C2E0020BFF34F8F0549064BCC
:103DE000CA6802F4E0621343CB60BFF34F8F00BF99
:103DF000FDE700BF00ED00E00400FA0530B44FF02D
:103E0000FE320025074B084C08494968C3F80024D6
:103E1000C3F80424C3F80824C3F80C24C4F80055DC
:103E200030BC08470010845000008450602E0020F1
:103E300010B5044650B1636813F0685F05D0064AB8
:103E4000934202D000236260236010BD034B0448FC
:103E50005B689847EFE700BF2C5F5CA9602E0020ED
:103E6000F05C0000C8B143680D4A934213D013F0D0
:103E7000685F0ED0012350E8002F194640E8001C6F
:103E80009CF0000FF7D1012AF5D0BFF35F8F00201F
:103E9000704704487047044870476FF4E04070472B
:103EA0002C5F5CA9E98FFFFFEA8FFFFF034680B11B
:103EB000426809498A420AD012F0685F05D0BFF310
:103EC0005F8F002210461A6070470448704704480C
:103ED00070476FF4E04070472C5F5CA9E98FFFFFEB
:103EE000EA8FFFFF10B5044620B10023034A236088
:103EF000626010BD0248FFF781FFF6E73A00003A22
:103F0000185D00002DE9F047002878D00C46002904
:103F100075D01D46002B72D007461AB1012200232E
:103F20002A6003602B68002B64D02946204600F0ED
:103F30000FFE804600285FD12146286800F0EEFD84
:103F40008046002858D12B68082B6CD0042B6DD0EC
:103F5000A3F10209B9FA89F94FEA59190121354E3D
:103F6000C6F8C411C6F84011C6F8C411636AC6F891
:103F70003031D6F830219342F6D14FF0000A4FF09D
:103F8000FF30C6F82CA1FFF7F9FD6FF01B03504678
:103F9000C6F80031FFF700FEC6F80C91D6F8040A07
:103FA00040F48060FFF7F8FD0A23C6F83831089B1B
:103FB000012B29D02369204AA2FB03231B09626A33
:103FC000404602FB03F303EB43031A4ADB039B095E
:103FD000C2F8D8310123C2F82C313B682A6823F09B
:103FE0007F4343EA02633B602A6843EA02233B6063
:103FF000BDE8F087DFF844804046BDE8F087DFF891
:1040000040804046BDE8F0874FF47F03D3F80C2C86
:10401000013206D0D3F80C3C074AA2FB03231B094C
:10402000CDE71623CBE74FF0030997E74FF00209DE
:1040300094E700BF00108450ABAAAAAA310CF1008B
:10404000350CF10058B34B1EB3F5047F27D230B5C1
:104050004FF0000ECD00744671464B0901F01F0C65
:1040600050F82330BCF11F0F23FA0CF306D003F0F5
:10407000010319B901211C468E46EEE79C4201F16D
:10408000010106D01C464FF0010EA942E5D10020E7
:1040900030BD0EF1010E9645F7D1024830BD014802
:1040A000704700BF360CF100C0B32DE9F0434C1E41
:1040B000B4F5047F1DD2E3B1DAB100252E46A8463F
:1040C0002C46CF0003F1FF394FEA541C04F01F0EB9
:1040D00050F82C10BEF11F0F21FA0EFC0CD00CF082
:1040E000010C4CB90126E04634463546ECE79642D1
:1040F00016D90C48BDE8F083AB420BD0C44508BFCD
:104100000136A945F3D001350134BC42DCD1002091
:10411000BDE8F0830125E0462E46F5E701487047EB
:104120001D46F1E7370CF1002DE9F04F91B08346C1
:10413000DDE91B460D46002E6ED10F691C60002381
:104140001A990B60002A00F02F819D4B6A6AD3F800
:104150003811D3F830319A4269D10A2967D19BF8D6
:104160000330089304F10803079304230593954B48
:10417000934CA3FB07239B0803EB4303A7EB4303E9
:10418000039306971A9B069E1E60002E00F0EA809D
:1041900000F0EEFC00230993BBF1000F00F0D58086
:1041A00098464FF0010ADDF81C90002D00F0CD80FC
:1041B000089B002B3DD0284608A900F0C9FC002828
:1041C00039D0814B984220D0089B082B00F0E48026
:1041D00000225B000893294608AB58460092FFF77F
:1041E00091FE7A4B984200F0D38070B9DBF8002042
:1041F000130A03F47F03134323F07F43CBF800300B
:10420000059B013B0593BDD10020039000F0B0FC5D
:10421000039811B0BDE8F08F4FF47F01D1F80C0C7A
:1042200001300CBF4FF40477D1F80C7C86E7684866
:10423000EBE76648C5E72946089800F06FFC0028C0
:10424000BFD1089B082B00F0A980042B00F0A980A7
:10425000A3F10203B3FA83F35B090493C4F8C4A186
:10426000C4F840A1C4F8C4A16B6AC4F83031D4F8D2
:1042700030219342F6D100234FF0FF30C4F82C31A7
:10428000FFF77CFC002318466FF01B03C4F80031D5
:10429000FFF782FC049B4B4FC4F80C31D4F8040A9E
:1042A00040F48060FFF778FC0A23C4F838312B69AA
:1042B00009A8A7FB03236A6A1B0902FB03F303EBAC
:1042C0004303DB039B09C4F8D831C4F82CA1DBF805
:1042D0000030089923F07F420B0243EA0163134345
:1042E000CBF8003000F00AFC099B03F01A030343EB
:1042F0007FF46AAFA7FB0637D4F81431B8EB970FF9
:104300000A93D4F818310B93D4F81C310C93D4F8D9
:1043100020310D93D4F824310E93D4F828310F9323
:1043200001D1039B9BB9484618220AA9183EFFF702
:10433000B3FC09F1180908F101089EB100F018FC5E
:1043400000230993002D7FF433AF224839E7484614
:104350001A46F61A0AA9994408F10108FFF79CFCCD
:10436000002EEBD1069F079E6A6939463046FFF75B
:1043700069FEAA6940B94FF4806339463046FFF7B9
:1043800093FE00283FF440AF00231A9A136018E709
:104390002B6A002B3FF439AF0F4836E70323049311
:1043A0005CE70223049359E7012229465846009608
:1043B00008ABFFF7A7FD00283FF4D4AE25E700BF08
:1043C00000108450ABAAAAAA020CF100310CF10033
:1043D000300CF100350CF100320CF10010B4DDE9C5
:1043E000013401940024DDF80CC0CDE902C410BCF6
:1043F000FFF79ABE30B51546012487B005AB009390
:104400000022CDE9015404ABFFF78EFE07B030BDAA
:10441000F0B587B0002966D01E46002B63D0144645
:10442000002A60D0314F0D4638684FF0FF31FFF75A
:104430004FFC00284DD10020FFF77AFC002844D122
:104440002B4800F097FAD8B101204FF0FF35FFF765
:104450006FFC002835D14FF408712648FEF73CFE6A
:1044600004212548FEF738FE21482821FEF734FEB6
:104470003868FFF735FC00282FD1284607B0F0BD7B
:104480001C4A0346029205AA019204AA03900092D4
:10449000174902461848FFF7A1FF03460028D3D169
:1044A00028461D46059B22469C4228BF1A46049971
:1044B00032600831FFF7F0FB0120FFF739FC0028DC
:1044C000C9D00E48FFF79AFCC5E70D48FFF796FCE8
:1044D000B6E70C48FFF792FCADE70B48FFF78EFC00
:1044E000284607B0F0BD4FF0FF35C6E7402E00204C
:1044F000544600207C46002050460020985C000076
:10450000785C0000605C00003C5D000010B5044673
:1045100030B1002201236265A265E365236610BD08
:104520000148FFF76BFCF4E7545D000018B17422FA
:104530000021FFF7B3BB704788B199B110B50024D3
:10454000802A846380F83C4006D110220463104422
:10455000FFF7A2FB204610BD6FF01F0010BD6FF0EB
:10456000210070476FF01F00704700BF70B5044610
:1045700086B0F8B11046EAB1E3B101291AD8A26BAE
:1045800016D0012A16D1102500210DEB0506019643
:1045900002AA61632946009500F0F6FA50B92B464D
:1045A0003246204602A900F099FD18B906B070BD48
:1045B000002AE8D06FF02100F8E700BF10B50446EC
:1045C00028B12046BDE81040F421FFF769BB04483C
:1045D000FFF714FC2046BDE81040F421FFF760BB54
:1045E000685D000010B1F421FEF776BD704700BF92
:1045F00008B521B1012908D06FF0360008BD0121AE
:1046000000F058F80028F7D108BD022100F052F858
:104610000028F9D0F0E700BF30B505468818B0F59E
:10462000801F0B461446A1B001D8802A0CD9B3F5DF
:10463000801F17D922461946284600F07DF8044607
:1046400084B9204621B030BD6846FFF725FB2246DD
:104650006946284600F070F8802104466846FFF756
:104660001FFBEDE76FF03604EBE700BF70B5E8B174
:104670000E46D9B1044600F031F80546B0B92368BA
:10468000012B0BD0022B01D0284670BD1C223046D6
:1046900004F10801FFF700FB284670BD20223046D8
:1046A00004F10801FFF7F8FA284670BD6FF03605EF
:1046B000EAE700BF78B138B50D46F0210446FFF7B0
:1046C000EFFA402320462560E36500F091FA0038B8
:1046D00018BF012038BD0120704700BFF0B5056E3E
:1046E000A5B0044604AEE5B9002301270193304686
:1046F0006760294602AA009300F046FA10B1012033
:1047000025B0F0BD2A46204602A900F099FA0028FB
:10471000F5D1204600F0AAFB0028F0D1206625B094
:10472000F0BD802D2A46304628BF802204F1640166
:10473000FFF7B2FA256ED7E7002800F0AE802DE92A
:10474000F04F1446A5B0002A3DD00F46002949D0AD
:10475000B2F5803F0546006E20D34FF6FF7805F195
:10476000640AEB6D1A1AB2FBF3F103FB1122002A63
:1047700065D18342B9464FF6FF7672D0B6FBF3FBA4
:1047800003FB0BFBBBF1000F30D1002E45D1A4F58C
:104790007F44FF3CB4F5803F4744E2D2EA6D161AED
:1047A000B6FBF2F302FB1366A64228BF2646002E94
:1047B00075D1824200F08D80B4FBF2F602FB06F662
:1047C0002EB9002C79D1002025B0BDE8F08F002350
:1047D00031463846CDE9003302AA00F0D5F9002869
:1047E00000F09580012025B0BDE8F08F00235946E8
:1047F0004846CDE9003302AA00F0C6F90028F1D1FD
:104800005A46284602A900F01BFA0028EAD1A6EB76
:104810000B06286ED944002EB9D0193049463246CD
:1048200005EB8000FFF738FAA4F57F44286EFF3CC3
:104830003044B4F5803F4744286692D2AEE7424503
:1048400028BF4246164639465044FFF725FA286EDF
:10485000EB6D3044834207EB06092866A8EB060699
:104860008CD1802B28BF802351461A4604A8FFF71D
:1048700013FA0023E96D02AACDE9003304A800F081
:1048800083F90028AED12846EA6D02A900F0D8F9D4
:104890000028A7D1EB6D286670E70120704705F16D
:1048A0006403394632461844FFF7F6F9286EEA6D7C
:1048B0003044A41B374428667BE72B6E224619330D
:1048C00005EB83003946FFF7E7F92B6E23442B668F
:1048D00079E7802A28BF802205F1640104A8FFF748
:1048E000DBF90023E96D04A8CDE9003302AA00F04A
:1048F0004BF900287FF476AF2846EA6D02A900F054
:104900009FF900287FF46EAFEA6D286654E73246BF
:10491000284602A900F094F900287FF463AF3744D9
:10492000A41B4EE7F8B51C460546114816460F462F
:10493000FFF744FE21460E48FFF75AFE044620B119
:104940000B48FFF74FFE2046F8BD3A462946084877
:10495000FFF762FE04460028F2D131460448FFF713
:1049600085FE04460248FFF73DFE2046F8BD00BF25
:104970009C4800201C2370B582B001A90546019314
:1049800000F032F8044638B9019B1C2B07D0144CB8
:104990001C212846FFF784F9204602B070BDD5E9F6
:1049A0000112131E18BF0123003918BF012101266F
:1049B00028689B00EA6843EA4103002818BF43F0D7
:1049C0000103EE612AB9C5E90834002BE4D1054C96
:1049D000DEE7204643F00803C5E9083402B070BDA5
:1049E000370CF0000E0CF0000346002866D00029BA
:1049F00064D00A681C2A61D14FF47F023B49D2F887
:104A0000100C88425CD0D2F8101C013158D0D2F87A
:104A1000101C4FF47F021960D2F8140C34498842FC
:104A200060D0D2F8141C01315CD0D2F8141C4FF4C1
:104A30007F025960D2F8181C11F5947F4FD0D2F83C
:104A4000181C01314BD0D2F8181C4FF47F0299602A
:104A5000D2F81C0C274988423ED0D2F81C1C0131E8
:104A60003AD0D2F81C1C4FF47F02D960D2F8001C57
:104A700070312FD0D2F8001C01312BD0D2F8001C9D
:104A80004FF47F021961D2F8041CAF3120D0D2F864
:104A9000041C01311CD0D2F8041C4FF47F02596170
:104AA000D2F8080C144988420DD0D2F8081C013104
:104AB00009D0D2F8082C00209A6170470120704775
:104AC00040F6FC01A5E740F2373200209A617047BA
:104AD0005121E2E79021D3E742F60411C3E740F603
:104AE000D861B2E742F2D001A1E700BFFCF8FFFFB6
:104AF000D020FFFF0429FFFF37F3FFFF014608B571
:104B00004FF48060FFF754F80022034BC3F8C8212C
:104B1000C3F82C2108BD00BF0010845001380728BD
:104B200005D8DFE800F0100E040A04040406074864
:104B30007047CB6800204B6270478B6800204B6247
:104B400070474B68F6E70B68F4E700BF310CF100E3
:104B50000B6802E0082B0B6006D8026A13424FEA8A
:104B60004303F7D00020704700487047310CF10034
:104B70000022044B4FF48060C3F82C21C3F8C421F9
:104B8000FEF7FCBF00108450F0B5002483B0B0F1F4
:104B9000005F8DF8074025D38C468444BCF1804FDC
:104BA00004461FD817461D4601220DF1070300F0E9
:104BB00059FF0646B0B99DF80730099A3C603B7131
:104BC00092B14DB10246089928460DF1070300F055
:104BD00049FF38B99DF807303046099A15601371BE
:104BE00003B0F0BD4FF47506304603B0F0BD00BF12
:104BF000D8B108B50368012B04D0022B0FD043B104
:104C00000B4808BD20220B490830FFF745F800206B
:104C100008BD142208490830FFF73EF8F7E72022C4
:104C200006490830FFF738F8F1E74FF47300704792
:104C30000100F300785D0000B85D0000985D0000A1
:104C40002DE9F843002900F0F9800446002800F01F
:104C5000F98003680F469046002B00F0C380013BAB
:104C6000012B00F2D7804FF0FF3178484FF0020956
:104C7000FFF72EF8002840F0BF800020FFF758F81B
:104C80000646002840F0C280714AD2F81C39002B39
:104C9000FBD16F4DD5F8203C002BFBD14FF0FF30FE
:104CA000FEF76CFFD5F8040A20F04000FEF774FF11
:104CB00001230722C5F81838C5F80029C5F8C437FC
:104CC000A36CC5F8CC37E36CC5F8D037C5F8C097EE
:104CD00023685BB1013B012B18D8636AC5F85C36C9
:104CE000236AC5F85836E369C5F85436A269584BAB
:104CF000C3F850266269C3F84C262269C3F84826D7
:104D0000E268C3F84426A268C3F84026504AD2F8A5
:104D10001039002BFBD1B8F1000F5FD06368402041
:104D2000012B08BFC2F884363A68494BC3F8282CD7
:104D3000C3F82C8CFEF736FF0646454AD2F81039E8
:104D4000002BFBD1424AD2F8203C002BFBD1236838
:104D50005BB1013B012B18D8D2F85C366362D2F804
:104D600058362362D2F85436E361394BD3F85026D3
:104D7000A261D3F84C266261D3F848262261D3F8A9
:104D80004426E260D3F84036A36000230121304A74
:104D9000D2F8CC07A064D2F8D007E064C2F8C417F8
:104DA000C2F88436C2F8C837D2F81039002BFBD1CC
:104DB000C2F81838002E3BD1254BD3F8040A40F036
:104DC0004000FEF7E9FE0120FEF7B2FF60BB1F487E
:104DD000FEF786FF10BB3046BDE8F8830423C2F817
:104DE000C837AAE74FF0FF3118484FF00109FEF726
:104DF0006FFF00283FF441AF1648FEF7FFFF002089
:104E0000FEF796FF064600283FF43EAF1248FEF735
:104E1000F5FF39E7114E3046BDE8F8831048FEF73C
:104E2000EDFF3046BDE8F8830E48FEF7E7FFCEE71A
:104E3000102104F10800FEF733FFBDE70A4E3046AB
:104E4000BDE8F8834FF47306C5E700BF502E00207D
:104E500000108450605C0000785C00000100F300EA
:104E6000B85C0000985C00000300F300A0B30346A8
:104E700070B4D0E90240D3E9041226BA05BA0CBADC
:104E800010BAC3E90440D3E90612986A09BAC3E923
:104E9000026512BA996100BAD3E9084125BA0CBA81
:104EA000C3E90725D3E90B12C3E9094009BAD86B56
:104EB00012BAD962D3E90D4125BAC3E90C250CBA5F
:104EC00000BAD3E9101209BA12BAC3E90E40196444
:104ED00000205A6470BC70474FF47300704700BFE5
:104EE000002867D038B590F83C300446022B17D024
:104EF000032B42D0002B31D03048314D2A68314B42
:104F00001268C3F800242A685268C3F804242A6887
:104F10009268C3F808242A68D268C3F80C2438BD04
:104F2000016B006C00F0CEFB254D0028E6D12A680D
:104F3000244B1268C3F800242A685268C3F804247A
:104F40002A689268C3F808242A68D268C3F80C2437
:104F5000216B206C00F024FC68B1CFE70269194B8B
:104F6000C3F800244269C3F804248269C3F8082402
:104F7000C269C3F80C24002038BD016B006C00F03E
:104F8000E1FB0F4D0028B9D12A680E4B1268C3F817
:104F900000242A685268C3F804242A689268C3F877
:104FA00008242A68D268C3F80C2400F0EFFB00281C
:104FB000E1D0A3E74FF47100704700BF0900F10092
:104FC0003C2E00200010845038B50446364AD2F8F2
:104FD0001039002BFBD1344AD2F87034002BFBD1AE
:104FE000314AD2F8203D002BFBD12F4AD2F8203C89
:104FF000002BFBD12C4AD2F8383D002BFBD12A4D97
:10500000D5F8383C002BFBD14FF0FF30FEF7B6FD52
:10501000636BD5F8040A23F00403032BE36D39D046
:10502000012B0CBF20F0800020F02000FEF7B4FD23
:1050300001231D4AC2F80039D2F81039002BFBD1E8
:10504000194AD2F87034002BFBD11749C2F8BC348E
:10505000D1F81039002BFBD1134AD2F87034002B51
:10506000FBD1626B002022F00401032918BFA36B5F
:105070004FEA820218BF03F001030B4902F01C0241
:105080001A43C1F8C024636B072B04BF0123C1F886
:105090007C3438BD012B0CBF20F0400020F0100004
:1050A000FEF77AFDC4E700BF00108450094A0A4B9E
:1050B00011680968C3F8001411684968C3F804143A
:1050C00011688968C3F808141268D268C3F80C2400
:1050D000704700BF3C2E0020001084502DE9F04F97
:1050E00085B0002900F0EC809046002A00F0E880AE
:1050F0000546002800F029819946C36D0E46002B15
:1051000052D1B9F5805F54D295F83C30042B00F0B1
:10511000FF8000274FF0FF31AC48FEF7D9FD002893
:1051200040F0D5800020FEF703FE002840F0D88034
:105130000123A748C0F81038D0F81049002CFBD143
:105140006B6B032B3ADC002B3BDAA24CA04AD2F863
:105150001039002BFBD1002F40F0D1806B6BEA6D32
:1051600023F00403032B9A4BD3F8040A00F09F802A
:10517000012A0CBF40F0800040F02000FEF70CFD3B
:105180000022934B0120C3F81028FEF7D1FD002820
:1051900040F0B1808D48FEF7A3FD002840F0A480C8
:1051A000204605B0BDE8F08F012BADD1B9F5803FA9
:1051B000AAD3894C204605B0BDE8F08F063B012BF1
:1051C000C3D8AB6B012B00F2BE80EB6D012B7CD8FA
:1051D0002B6E012B00F2E8802846FFF7F5FE04460F
:1051E0000028B3D12846FFF77BFE04460028ADD146
:1051F0006B6B072BA9D801229A4012F08A0F40F05E
:10520000D58012F0440F40F0BA80D2079DD523F02C
:105210000403032B32680DD02B6ED8F80010012B3D
:105220006B4B0BBFC3F8281DC3F8301DC3F82C9D72
:10523000C3F8349DEB6D012B654B0BBFC3F8282CD5
:10524000C3F8302CC3F82C9CC3F8349C6B6B23F050
:105250000403032B00F0A2802B6E012B14BF20202F
:105260008020FEF79FFC044600287FF46FAF584B68
:10527000D3F81049002CFBD1696B072914D80122FF
:105280008A4012F08A0F40F0BB8012F0440F0BD01E
:10529000D3F860242A60D3F864246A60D3F86824C1
:1052A000AA60D3F86C34EB600123AB654EE7012AAA
:1052B0000CBF40F0400040F01000FEF76DFC5FE7CF
:1052C000464C204605B0BDE8F08F454C3EE74548CA
:1052D000FEF794FD0020FEF72BFD00283FF428AFD9
:1052E0004148FEF78BFD23E74048FEF787FD204647
:1052F00005B0BDE8F08F3E48FEF780FD4AE7042385
:10530000202105F1100085F83C30FEF7C9FC25E7A7
:10531000296B286C00F0C0F998B9364F2C4C3B68CB
:105320001B68C4F800343B685B68C4F804343B680D
:105330009B68C4F808343B68DB68C4F80C34296BFC
:1053400031B10127E6E62C4C00E74FF4710427E762
:105350004FF0100B2B6D05EB0B0A0193EB6CCDF8A6
:1053600008A00093286CD5E91123CDF80CB000F00B
:1053700061FA002851D1002385F83C30E1E72A6822
:10538000134BC3F860246A68C3F86424AA68C3F89E
:105390006824EA68C3F86C246B6B38E7EB6D012B6B
:1053A00014BF102040205CE7144CCFE62A68084B5D
:1053B000C3F840246A68C3F84424AA68C3F84824A0
:1053C000EA68C3F84C246B6B21E700BF502E002025
:1053D000001084500100F1000500F1000B00F10005
:1053E0000300F100605C0000785C0000B85C000025
:1053F000985C00003C2E00200200F1000400F10047
:10540000D3F840242A60D3F844246A60D3F84824AF
:10541000AA60D3F84C34EB6046E73B6859461B68FA
:105420005046C4F800343B685B68C4F804343B68F9
:105430009B68C4F808343B68DB68C4F80C34FEF79A
:105440002FFC98E72DE9F04109B302B30446002888
:1054500000F0AF801D46436B0E46072B1BD05DB995
:10546000032B10D1836D73B945668566C5660567E4
:10547000102500F164030B602B4631462046BDE841
:10548000F041FFF72BBE2F463846BDE8F081764F3E
:105490003846BDE8F081C36D002B40F08D80B5F536
:1054A000805F80F090801DB9A36D002B40F08B8051
:1054B0004FF0FF316D48FEF70BFC002840F08F8065
:1054C0000020FEF735FC002840F085800123684A63
:1054D000C2F81038D2F81039002BFBD1636B032BC4
:1054E0004FDD063B012B4ED8A36B012B6DD8E36D2E
:1054F000012B78D8236E012B77D82046FFF764FD67
:105500000746002840D12046FFF7EAFC074600285E
:105510003AD1626B072A36D80123934013F08A0FE1
:1055200040F0818013F0440F6FD1DB072BD50122AF
:105530004F4BC3F87C24C3F8BC543168002D56D1BE
:10554000A16D09B9C3F82425494BD3F81079002F70
:10555000FBD1616B072917D801228A4012F08A0F0C
:105560006FD112F0440F0FD0D3F860242260D3F82B
:1055700064246260D3F86824A260D3F86C34E360DA
:1055800002E0002BB0DA3B4F394AD2F81039002B39
:10559000FBD10120C2F81038FEF7CAFBB8B9334876
:1055A000FEF79EFB00283FF46FAF3348FEF726FC62
:1055B0006AE74FF4710767E7012B7FF474AFB5F525
:1055C000803FFFF470AF2D4F5EE72D4FDCE72D4895
:1055D000FEF714FCE3E72C48FEF710FC76E72B48B7
:1055E000FEF70CFC6CE72A4FCEE72A4FCCE7E26DC2
:1055F000012A33D01020C3F8301CC3F8345CFEF706
:10560000D1FA074600289FD0BEE72268184BC3F89E
:1056100060246268C3F86424A268C3F86824E2685E
:10562000C3F86C2483E72268114BC3F840246268F6
:10563000C3F84424A268C3F84824E268C3F84C24A1
:1056400075E7D3F840242260D3F844246260D3F88D
:105650004824A260D3F84C34E36095E7C3F8281CD3
:105660004020C3F82C5CCAE70B00F100502E00204C
:10567000001084500100F100B85C00000500F1004A
:105680000200F100985C0000785C0000605C0000A3
:105690000300F1000400F1007F280CD849B1032970
:1056A00001D00648704706497F280CBF08460020F5
:1056B0007047084670470248704700BF0300F70074
:1056C0000100F7001A4A431C4FEAC00C70B4C2F83C
:1056D00000350CF57F0303F5044372B61D68BFF374
:1056E0004F8F62B60024134BC2F800459D421CD078
:1056F000A1B1114D861C6544C2F8006572B62D68D3
:10570000BFF34F8F62B69D42C2F800450DD07F288F
:105710000BD8032907D070BC084870477F2804D8ED
:1057200070BC002070477F28FAD170BC04487047D5
:1057300000900350501A84500884FF000300F700C3
:105740000100F700B9B90D4AC30003F57F0301302A
:1057500010B403F50443C2F8000572B61C68BFF329
:105760004F8F62B6064B0748C2F800159C4208BF2F
:10577000002010BC70470448704700BF00900350E1
:10578000501A84500100F7000300F70000200122A6
:10579000024BC3F8380AC3F87824704700108450CD
:1057A00009B11D48704730B401241C4B1C4DC20088
:1057B00002F57F022044C5F8004502F50442C3F813
:1057C0000811C3F80011C3F80411C3F8000572B63C
:1057D0001168BFF34F8F62B6124A914219D11C6013
:1057E00000E0A0B9D3F80021D3F80811D3F80401E0
:1057F0000A43F6D049B90C4B002818BF18460022BE
:10580000064BC3F8002530BC70470848F7E7064848
:10581000F5E70748F3E700BF0C00F10000900350E4
:1058200000008450001484500200F7000100F700CB
:105830000600F7002DE9F0470024CCB006468A4662
:105840001746214674220EA89946579DDDF85881C7
:10585000FDF792F8802221462CA82B94FDF78CF8B6
:105860008423B5F57F6FCDE90A440D940C9405931C
:1058700074D8FFF71BFC2BAC05AB01934946DDE95F
:10588000542338460295009400F08CF8002875D116
:1058900007231B93012300222693F7180123DFF827
:1058A000ECC0F10001F57F01CDE92423CDF868A01B
:1058B0001C901E9601F50441CCF8007572B60A687A
:1058C000BFF34F8F62B6324BCCF800059A424AD0F4
:1058D00002220DF113038DF813201B7810210EA85E
:1058E0008DF87430FEF7DCF910220DF120090092DA
:1058F000204605990AABCDF8049006AAFFF744F9B3
:10590000074600BB012410E0102D2E4628BF1026AC
:105910000EA93246FEF7C0F910210EA8FEF7C0F915
:105920000134AD1B3744E4B226D0059B4A4606A994
:105930000EA88DF8AC40FFF785FD034608EB070085
:10594000002BE1D01F46742200210EA8FEF7A6F915
:10595000FFF7ACFB38464CB0BDE8F0870D4F38463A
:105960004CB0BDE8F0870C4B1B68B3420BD103224F
:105970000DF113031A70B0E72F46E4E7074F3846DE
:105980004CB0BDE8F087064FE4E700BF009003503D
:10599000501A84500F00F100AC2E00200E00F100D0
:1059A0000C00F1002DE9F041002482B00A9D019421
:1059B000B5F57F6F40D8ED00B5F5807F1E4634BF4A
:1059C0000323042301F1FF3CBCF13F0F0C4600937D
:1059D00032D888B3174666BB089A6AB3099A116829
:1059E00051B3A2191344994226D3089B014622467B
:1059F000581CFEF751F9089B04F102081C440023CF
:105A0000637026BB089BFF2D009503EB080017D998
:105A10002B029BB243EA1523022201A90193FEF750
:105A20003BF908F102030020099A136002B0BDE8B7
:105A3000F0810AB1402ECFD9094802B0BDE8F0810B
:105A400001226946FEF728F908F10103EBE7089BFC
:105A5000324603EB08003946FEF71EF9B044D1E7A1
:105A60000600008000201870704700BF431810B572
:105A700001D21F2A01D9002010BD013902F0140300
:105A80000144102B80EA01043CD009DC8BB1042BCB
:105A9000F1D11F2C40E840F315D941E840F10EE068
:105AA000142BE8D11F2C40E8C0F30CD941E8C0F119
:105AB00005E01F2C40E800F305D941E800F11C4641
:105AC0000B468C42D7D122F01402013A0A2AD2D8CE
:105AD00001A151F822F000BF275B0000215B00000C
:105AE000135B0000775A0000775A0000775A0000D5
